:10000000E9C5000003C6000001C60000FFC50000EE
:10001000FDC50000FBC50000F9C50000F7C50000E4
:10002000F5C50000F3C500000C94BE1C0C94D71C51
:10003000EDC50000EBC500000C94431D0C946C1D35
:100040000C94951D0C94BE1D0C94E71D0C94101E71
:100050000C94391E0C94621E0C948B1E0C94B41ECE
:10006000D5C50000D3C50000D1C50000CFC5000034
:10007000CDC50000CBC50000C9C50000C7C5000044
:10008000C5C50000C3C50000C1C50000BFC5000054
:10009000BDC50000BBC50000B9C50000B7C5000064
:1000A000B5C50000B3C50000B1C500000C94C70C75
:1000B000ADC50000ABC50000A9C500000C94D31F5E
:1000C0000C94FC1F0C9425200C944E200C9477204B
:1000D0000C94A0209BC5000099C5000097C50000A6
:1000E00095C5000093C5000091C500008FC50000B4
:1000F0008DC500008BC5000089C5000087C50000C4
:100100000C94E70C83C5000081C500007FC500008A
:100110007DC500007BC5000079C5000077C50000E3
:1001200075C5000073C5000071C500006FC50000F3
:100130006DC500000C94DD1E0C94061F0C942F1F3F
:100140000C94581F0C94811F0C94AA1F5FC50000CB
:100150005DC500005BC5000059C5000057C5000023
:100160000C94FC0C53C5000051C5000002000008AF
:100170000840010001000008084801007FFE7C08DB
:1001800008447FFC4002440848440100888445FE3E
:1001900028400280048044082FFE04400480440864
:1001A00008400A2010807C080840311808804488E4
:1001B0001840C0060880444828A00100FFFE4448BB
:1001C000C8A00888014044080890488402207C08A0
:1001D0000910481204104408090848121808002899
:1001E0000A0487F0600400100C02810316820203E7
:1001F0000415161783020405141517840205061347
:10020000141785020613178E02178F030405169024
:10021000041591051415169214179313179C0613C1
:1002200014179D051415179E041516179F0316A085
:10023000FF81031782020304178302040517840257
:1002400005061785020613178E02178F030405167D
:1002500090041591030405141516920205141793C2
:10026000020613179C0205061314179D02040514B9
:1002700015179E0203041516179F0316A0FF81028F
:10028000168203168304168405168512168D13161E
:100290008E14158F9014159113169212169D131625
:1002A0009E14169F1516A0FF8103168202030415E3
:1002B000830204051484020506138502068E0214C7
:1002C0008F03040515900415910304051415169267
:1002D0000205141793020613179C02050613141740
:1002E0009D0204051415179E0203041516179F039B
:1002F00016A0FF810316820203041583020405146D
:100300008402138502068E02148F030405159004DF
:100310001591051415169214179313179C061314B0
:10032000179D051415179E041516179F0316A0FF99
:100330008102038202041617830205151784020640
:10034000141785020613178E02178F0304051690E3
:10035000041591051415169214179313179D14176D
:100360009E15179F1617A0FF8102158203141516FC
:10037000830413141684051213168512168E0412A4
:1003800013168F041314159004149104121415926B
:1003900013169312169C051213169D041314169E21
:1003A000031415169F0215A0FF810316820415166B
:1003B0001783051415178406178513178E05178FD5
:1003C0000516900515910304051492020593020683
:1003D0009C020506139D020405149E020304159F4A
:1003E0000316A0FF81070882060883050884040815
:1003F0008E05088F0607909106079205089304085A
:100400009D05089E06089F0708A0FF810217850228
:100410000613178D020513178E030415168F90030C
:10042000041516910205141792020613179C020573
:10043000061314179D0204051415179E02030415D4
:1004400016179F0316A0FF00000010000020807FF9
:10045000FC00F823F8108002403F00100003F01267
:10046000480100100040900A50FFFE800021100259
:1004700040010047FE09123FFE1FF040801212208B
:100480000011101080640E20001FF01100290020C0
:1004900000111021F8010020001FF0E008FFFE20ED
:1004A0000001002008054020003FF82008092040F6
:1004B000000100200831184000FFFE2050C10680D6
:1004C000000000002001001001000000208000F862
:1004D000008023F810803F003FFE100003F0010071
:1004E000222010004090FFFE2220800021100100F9
:1004F0003FFC47FE09121FF022204080121211100B
:1005000022201080640E1FF023E01100290011103A
:10051000200021F801001FF02FF0E008FFFE01008D
:100520002410200805403FF842202008092001003F
:1005300041C020083118FFFE86302050C10600005F
:10054000380E0020010100010000002080010000A1
:100550008023F8108001003FFE100003F00100220C
:1005600020100040903FF822208000211021083FF9
:10057000FC47FE0912210822204080121221082285
:10058000201080640E210823E0110029002108209A
:100590000021F801003FF82FF0E008FFFE210824B9
:1005A00010200805400100422020080920010041D8
:1005B000C020083118010086302050C106010038E3
:1005C0000E002001200001000000208021FC00809E
:1005D00023F8108020083FFE100003F0FC102220BA
:1005E00010004090403022208000211050483FFCF5
:1005F00047FE09129084222040801212FF0222201E
:100600001080640E100023E01100290011FC20006E
:1006100021F801001C202FF0E008FFFEF02024103C
:10062000200805405020422020080920102041C009
:100630002008311813FE86302050C1061000380EF5
:10064000002001020001003FF0201020103FF020A8
:100650001020103FF02208211020A0204024202844
:10066000183006089008880888108017FE30A030DF
:10067000A050A090A010A01120112211221222122D
:100680001E1400100013FC208420884888F8901065
:100690009C20844144F944412801281A10E228444E
:1006A00044018202000100008000800000FFFE0083
:1006B000000000044004200810080810082004402E
:1006C0000400007FFC02000200020002003FF00470
:1006D00010041004100410081008100810FFFE0089
:1006E0000000007FFC44444444444444444444489F
:1006F00044483C5004600440047FFC400400000077
:10070000007FFC00000000000000003FF800000037
:1007100000000000000000FFFE00000000000000DC
:10072000003FF80000000000000000000000000092
:10073000000000FFFE0000000000000000000000BC
:10074000000000FFFE020040000787FC10000010C0
:100750000001004001F8048413F0FC10007FFC7FCE
:10076000F10804442110841000444480010807FC6F
:10077000491084900048253FC1FFC0007920FC90BB
:100780000010100001081FFF11402090000000FF22
:10079000C108044421782090C01FF000417F87FCED
:1007A0004109FE90C0010000414084447908229034
:1007B00000010000414887FC0190229000010000E8
:1007C0004148804001504210C001000052160FFE07
:1007D0001A204210C0010000322180406250821075
:1007E000007FFC0014C05FFF048D0C70000100202E
:1007F000000300100002002048E2771049264970EB
:10080000492449004924490078EC49004028000067
:1008100041C000000000300000100048000010003F
:10082000080000200010423A25CE084246263148F2
:10083000424244213042424421004242442100428B
:100840004244210066468421005A3A842100400235
:100850000000004042000000403C78C04703E30035
:1008600044E0C882030044A0C082000044B1408339
:10087000C0004C9141006000789A43002000408AFB
:1008800046002000408E441A630040844F99C37F85
:10089000C7878F8003FC0030638710C003FC0030E3
:1008A0003387206002000030338730600200303030
:1008B00032CB30600200303032CB006002000030BA
:1008C00032CB00C002F0003062CB00C00318003F02
:1008D000C2D30180020C003002730200000C003011
:1008E00002730400000C003002730820060C003074
:1008F00002731020060C003002232023041800305D
:1009000002233FE3021830780727BFE301F0307875
:10091000C0460E1844E0CE0B1844A0C2110044B1EA
:100920004211004C91421100789A421100408A42D3
:100930001100408E421A1840844F8E1800000100AA
:1009400000000000003FFE010020003FF0002000FA
:10095000010011F800100020803FF810080010007E
:100960002080210800081FF00020802108000800D6
:1009700010002FFC2108F00800101820843FF81107
:10098000F8FFFE182084210811080100002104014D
:100990000011002108002104110011001190002213
:1009A0000409001100056000220406001502092058
:1009B000184404058019023118184828187010FED0
:1009C000C506009010E00E00000200001010081094
:1009D0000820FFFE00003E08224822483E482248E8
:1009E00022483E48220822082A28241000001FF826
:1009F0001008100810081FF81008100810081FF839
:100A000010081008200820084028801000003FF837
:100A10000100010001000100FFFE010002800280D0
:100A200004400440082010102008C00601000008FF
:100A30000100000801007C0801004408010045FE97
:100A4000111044081108440811047C08210444884A
:100A500021024448410244488102440801007C08C4
:100A6000010044080500002802000010004010208A
:100A70000440102004203C2008202020101041FCBD
:100A80002008BD24400411249FE211240420FD24E9
:100A9000042011FC04201124082010200820142018
:100AA00010201820214010204080002008201C2009
:100AB000F02010A810A4FCA2112231203A245424C2
:100AC000542890081010102010C0130000000000DF
:100AD00000000000000003FFFFFFFFE00000000433
:100AE000000000001000000008739C707C080000EB
:100AF00000082122202208000000082141202108AE
:100B000000000008214120210800000008214120A8
:100B10002108000000083F412021080000000821B2
:100B20004120210800000008214120210800000088
:100B3000082141202108000000082122212208006C
:100B4000000008739C7F7C08000000040000000087
:100B50001000000003FFFFFFFFE000001FFFC010B8
:100B6000004076DB4046DB4046DB4076DB40100051
:100B7000401FFFC01FFFC010004070DB4040DB4043
:100B800040DB4070DB401000401FFFC01FFFC01063
:100B90000040701B40401B40401B40701B40100039
:100BA000401FFFC01FFFC0100040700340400340C3
:100BB0004003407003401000401FFFC01FFFC010E3
:100BC0000040700040400040400040700040100075
:100BD000401FFFC011241FBECFEFCDBFD7E2DEBF45
:100BE00011E2A0E0B0E2ECEDFDE402C005900D9250
:100BF000AC35B107D9F722E2ACE5B1E201C01D92F4
:100C0000AB3CB207E1F72DD70C94EC26F9C980E094
:100C100090E0019685339105E1F708950F931F93B6
:100C2000CF93DF93CDB7DEB72A97CDBFDEBF8C0160
:100C300080E092E025D4882321F080E092E00DD47A
:100C4000E6DFAE01495F5F4F61E080E092E0A1D452
:100C5000BE016F5F7F4F80E092E05FD499818A810F
:100C6000997E906199838F780230110521F48A83EF
:100C700087E08C830EC080628A8382E08C8300319F
:100C8000110538F01F820051000F000F000F088778
:100C900006C081E08F83000F000F000F0887BE01A0
:100CA0006F5F7F4F80E092E0F5D3AE01495F5F4F09
:100CB00061E080E092E051D4AADF2A96CDBFDEBF8A
:100CC000DF91CF911F910F91089580E092E0D8D3EA
:100CD000811104C080E092E0A9D399DF9FB7F89416
:100CE000809100028460809300029FBF8091060281
:100CF000982F917080FFFACF909306028091240282
:100D000090912502089580E090E001968533910549
:100D1000E1F7089541E06EEC71E286ED91E20E9408
:100D2000381C41E062ED71E28CED91E20C94381CCC
:100D3000CF92DF92EF92FF92CF93DF9383E090E028
:100D40006DDF80E092E072D3DEDFC0E0D0E4C12C42
:100D5000D12C7601BADFC80ED91EE11CF11C2197F7
:100D60002097C1F780E092E078D3CDDF8EE0F69453
:100D7000E794D794C7948A95D1F785E0C80ED11C23
:100D8000E11CF11CC0920620D0920720E0920820BE
:100D9000F0920920DF91CF91FF90EF90DF90CF90FC
:100DA00008952F923F924F925F926F927F928F920F
:100DB0009F92AF92BF92CF92DF92EF92FF920F93EA
:100DC0001F93CF93DF93CDB7DEB72A97CDBFDEBF9A
:100DD0004C016F834887411189C160900620709053
:100DE0000720FC0180E090E0262F30E02B833C833D
:100DF0004B815C818417950738F41286138614861C
:100E0000158601967896F4CF80E092E039D3882356
:100E100021F080E092E021D376DF83E090E0FEDEF7
:100E200080E092E003D36FDF9FB7F89480910002D7
:100E30008460809300029FBFF30120E038E02983A3
:100E40003A8300E010E0A12CB12C212C312C40E0A1
:100E500050E080910602982F917080FFFACF909316
:100E6000060220912402309125029FB7F8948091C8
:100E700000028460809300029FBF4115510561F418
:100E80006EE1660E711C621673060CF0C5C0E217A7
:100E9000F3070CF446C0C0C04130510509F05FC0F3
:100EA0006901EE24D7FCE094FE2C809106209091FD
:100EB0000720A0910820B0910920C816D906EA069B
:100EC000FB0620F1B901620D731D66157705F4F07C
:100ED000B90168517C4F66157705C4F02E173F079E
:100EE000BCF06114710479F0B501E3E07695679583
:100EF000EA95E1F7F501E61BF70BBF01F3012617B1
:100F0000370720F005C0E0E0F0E002C043E050E029
:100F1000BF01620D731D621773071CF0423051054B
:100F200051F419012E1A3F0A41E050E0A12CB12CD6
:100F300000E010E071C041305105A1F42C013D01E9
:100F40004A0C5B1C611C711C4C145D046E047F0414
:100F500018F45901A81AB90A0F5F1F4F5DC042303B
:100F60005105F9F24330510509F056C06401E12CF6
:100F7000F12C4B815C81E416F50608F04BC0D601DC
:100F80006C9170E006171707F0F111968C9190E0C4
:100F900008171907C0F5A801461B570BDC01A61B53
:100FA000B70BBD01759567957595679546175707FA
:100FB00030F0AC01401B510B4617570760F4ACE210
:100FC000B1E04A9FC0014B9F900D5A9F900D112494
:100FD0000E94892202C06CE271E0AB01662757FDD6
:100FE0006095762FD6011A964D905D906D907C900D
:100FF0001D97440E551E661E771E1A964D925D92E1
:101000006D927C921D97BFEFEB1AFB0A48E1C40E6C
:10101000D11CAFCF40E050E089819A81019789834C
:101020009A83892B19F03F01F90113CF80910602B1
:10103000982F917080FFFACF90930602809124023E
:101040009091250280E092E008D25DDE84E090E09D
:10105000E5DD80E092E0EAD156DE28E030E080E095
:1010600090E0DC015FB7F894409100024460409347
:1010700000025FBF40910602542F517040FFFACF2B
:101080005093060240912402509125024115E8E058
:101090005E0720F4840F951FA11DB11D2150310959
:1010A00021153105F9F633E0B595A7959795879504
:1010B0003A95D1F78A539740A109B1091816190634
:1010C0001A061B0644F42BE0880F991FAA1FBB1FAA
:1010D0002A95D1F703C080E090E0DC01F401868717
:1010E0009787A08BB18B80E092E0B7D1840196ED19
:1010F000292E91E2392E198239814F81341709F452
:1011000033C1F885D801FF2351F016961D921D9228
:101110001D921C921997F101138212821CC15696DE
:101120008D919C915797019656968D939C935797C6
:101130001A964D905D906D907C901D971E964D91E6
:101140005D916D917C915197440E551E661E771EE0
:1011500052964D915D916D917C915597440E551E1F
:10116000661E771EF801428A538A648A758A05973B
:101170000CF4F1C0168A178A1A964D925D926D9200
:101180007C921D97128A138A148A158AC680D7808A
:10119000E084F1848281938124813581C414D50453
:1011A000E604F7041CF58D3FFFE79F0734F4AC011C
:1011B0004F5F5F4F49875A8704C08EEF9FE789874B
:1011C0009A87E985FA85D8011296ED93FC931397D7
:1011D000253031051CF02550310902C020E030E0F7
:1011E000D80114962D933C93159720C02D3FBFE74F
:1011F0003B072CF4F9013196E987FA8704C02EEFFA
:101200003FE729873A87E985FA85D8011496ED9357
:10121000FC9315978530910514F0059702C080E086
:1012200090E0D80112968D939C931397530142013D
:101230008C189D08AE08BF08B7FE08C0B094A094F3
:1012400090948094811C911CA11CB11CC501B40117
:101250000E9496232FE632E143E05AE30E9469247C
:101260006B837C838D839E8349855A8557FF02C09B
:1012700040E050E0BAE0B49FC001B59F900D11244A
:101280000196BC01882777FD8095982F0E949623B0
:101290009B01AC016B817C818D819E810E946924C0
:1012A0006B837C838D839E83C501B4016F5F7F4F09
:1012B0008F4F9F4F0E9496232DEC3CEC4CE45FE354
:1012C0000E9469245B014C0120E030E048EC52E4CC
:1012D0000E94652418162CF0A12CB12CE8ECA2E495
:1012E00002C0E82DA92D2B813C814D815E81B50185
:1012F0008E2F9A2F0E94D1234B015C01C701B601AA
:10130000C414D504E604F70474F40E949623A501DE
:1013100094010E94FB220E946323F8016683778375
:10132000808791870FC00E949623A50194010E9497
:10133000FA220E946323D80116966D937D938D93B4
:101340009C931997C501B4010E946323F801628739
:10135000738784879587F981FF5FF983085E1F4F44
:1013600026E0220E311CC8CE2A96CDBFDEBFDF910B
:10137000CF911F910F91FF90EF90DF90CF90BF9092
:10138000AF909F908F907F906F905F904F903F9025
:101390002F900895CF93DF931F92CDB7DEB7809142
:1013A000E6219091E721E091E221F091E321BE0155
:1013B0006F5F7F4F09958981992787FD90950F90E1
:1013C000DF91CF910895682F8091E6219091E721D8
:1013D000E091E421F091E521099597FF03C08FEF9B
:1013E0009FEF089581E090E008958115924069F49F
:1013F00080915C2191E0980F90935C21811105C050
:1014000062E081E090E00C94231C089581159240E5
:1014100061F480915C21815080935C21811105C031
:1014200062E081E090E00C942E1C08951F93CF930E
:10143000DF93EC011FB7F894D8DF8881816088833F
:101440001FBF9FB7F894E4EBF2E280818F5F808347
:101450009FBFDF91CF911F910895CF93CFB7F8949D
:10146000FC0120812E7F2083D1DFCFBF9FB7F8946E
:10147000E4EBF2E28081815080839FBFCF91089599
:101480008115924029F481E090915C21911101C075
:1014900080E00895FF920F931F93CF93DF93EB01AA
:1014A00081159240A1F561E270E082E08ED0082FB4
:1014B00010E060E270E082E088D0102F0027082B57
:1014C000FFB6F89480E092E090DF20910002217056
:1014D00082E08093000200930C0210930D028C8135
:1014E0009D81809318029093190289818093020252
:1014F0008B81809304028A81809303028881809388
:1015000001022093000280E092E080DFFFBEDF91C5
:10151000CF911F910F91FF900895FF920F931F930A
:10152000CF93DF93EC018B01FFB6F8945EDF888DDB
:10153000998DF801848395838A8181838C8183834B
:101540008B81828389818083CE0160DFFFBEDF9142
:10155000CF911F910F91FF900895FF920F931F93CA
:10156000CF93DF93EC018A01FFB6F8943EDFF801D8
:10157000808188A382818AA3818189A383818EA3AC
:10158000CE0144DFFFBEDF91CF911F910F91FF90FD
:101590000895FF920F931F93CF93DF93EC018A017D
:1015A000FFB6F89422DF88A1F80180838AA18283A4
:1015B00089A181838EA18383CE0128DFFFBEDF91C5
:1015C000CF911F910F91FF9008954091CA01E62F8E
:1015D000F72F8093CA0184914093CA010895CF9256
:1015E000DF92EF92FF92CF93DF938091680680FFA6
:1015F0002CC08091CF0187FDFCCF88E092E00E9453
:101600009326EC018930910510F0C1E0D0E0809183
:10161000CF0187FDFCCF0E945C1C6B017C018AE03E
:1016200092E00E9493269601281B390BC901892F4D
:1016300099278695869586958C0F9D1F89309105F3
:1016400008F452C088E090E04FC082E090E0E6DA13
:101650003CDB7C0180E092E000DF8091680681FF46
:1016600003C03DE0E30EF11C20910B2030910C20D3
:10167000AFE1B0E00E94DB226E0D7F1D811D911D48
:1016800025E096958795779567952A95D1F79B01E3
:1016900060930B2070930C20E7ECF0E280E090E088
:1016A000419151912417350720F00196883091051A
:1016B000B9F780FF13C0282F332727FD30954091BD
:1016C0000A20241B310947FD339537FF03C03195AC
:1016D00021953109223031051CF08E7F80930A203C
:1016E000C0900A208C2D90E0DF91CF91FF90EF9079
:1016F000DF90CF9008959091680690FD20C08823D8
:1017000019F010925D21089580915D21811117C01B
:101710008091CF0187FDFCCF62DFBC0188E092E0C1
:101720000E94BF268091CF0187FDFCCF0E945C1CE8
:101730008AE092E00E94BF2681E080935D210895B7
:10174000FF920F931F93CF93DF93EC0161111092DF
:101750005E21F0905E218091CF0187FDFCCF80E07B
:1017600092E00E949326282F291B2F77F21648F526
:101770002091CF0127FDFCCF8C0111270F191109F2
:10178000015011090F73112783E0000F111F8A9573
:10179000E1F7C8010E948D26688379838A839B8341
:1017A0008091CF0187FDFCCFC80104960E948D2651
:1017B0006C837D838E839F83F394F0925E2181E01E
:1017C00003C0F110C4CF80E0DF91CF911F910F9142
:1017D000FF900895EF92FF920F931F93CF93DF93A3
:1017E0007C018091CF0187FDFCCF80E092E00E94D8
:1017F0009326EC01891B8F77803458F08091CF01BC
:1018000087FDFCCF6D2F6F5F6F7781E092E00E94C4
:1018100097268091CF0187FDFCCF8E010F73112792
:1018200093E0000F111F9A95E1F7F7014081518174
:1018300062817381C8010E94BA268091CF0187FD21
:10184000FCCFF7014481558166817781C8010496F8
:101850000E94BA268091CF0187FDFCCF6C2F6F5F6D
:101860006F7780E092E0DF91CF911F910F91FF9011
:10187000EF900C949726AB01BC018091CF0187FDBE
:10188000FCCF84E092E00C94BA268091CF0187FDD2
:10189000FCCF84E092E00C948D26CF93DF93EB0194
:1018A0000E946F218883DF91CF9108950C94672166
:1018B000CF92DF92EF92FF92CF93DF936B017C0187
:1018C00041E951E20E940D1BC701B6010E94C21BF3
:1018D0009B01AC01E7E0F1E2C7EDD0E2C12CD12CD5
:1018E000760160E081919191A0E0B0E0281739077E
:1018F0004A075B0768F0281B390B4A0B5B0B899181
:101900009991C80ED91EE11CF11C6F5F673151F728
:10191000E62FF0E0EE0FFF1FDF01A952BF4D0D9043
:10192000BC91A02D0E94EA22E95FFE4D2081318109
:1019300040E050E00E949D222C0D3D1D4E1D5F1D7C
:10194000203A86E8380781E04807510520F02FE962
:1019500036E841E050E0CA01B901DF91CF91FF9034
:10196000EF90DF90CF90089580E090E001968A326A
:1019700024E09207D9F708957EDF0E945C1C665F21
:101980007F4F8F4F9F4F0E94841C81E0B4CE1F92E7
:101990000F920FB60F9211248F93EF93FF93E8E409
:1019A000F0E080818E7F8083E0919321F0919421FB
:1019B0001082E0919321F091942185E08183FF9141
:1019C000EF918F910F900FBE0F901F9018951F925F
:1019D0000F920FB60F9211248F93EF93FF93E8E4C9
:1019E000F0E080818E7F8083FF91EF918F910F9047
:1019F0000FBE0F901F9018951F920F920FB60F9267
:101A000011242F933F934F935F936F937F938F9303
:101A10009F93AF93BF93EF93FF93CF93DF931F9267
:101A2000CDB7DEB7BE016F5F7F4F809148209091A8
:101A3000492033DF89810E94481A0F90DF91CF91AE
:101A4000FF91EF91BF91AF919F918F917F916F9196
:101A50005F914F913F912F910F900FBE0F901F906C
:101A60001895CF93DF93CDB7DEB76297CDBFDEBFBA
:101A70000E94FE1B0E94A31C08DF0E944A1C8CEBE4
:101A80009CE00E949E1C0E945C1C665F7F4F8F4FF3
:101A90009F4F0E94841C8091A20081608093A200CD
:101AA00080E099E00E94C92080910109887F80939D
:101AB000010980ED97E08093260990932709809192
:101AC0000009807F86608093000964E0E62EE09242
:101AD000820678E0F72EF092820680E88093620614
:101AE00001E00093E1070093E60712E0109361061E
:101AF0001093660680E2809361068093660680E418
:101B00008093610680936606BE016F5F7F4F80E021
:101B100092E003DD0093020689819A819F789062AA
:101B20009A83817E806189831B821C8382E090E09E
:101B300075D8BE016F5F7F4F80E092E0ABDCE09232
:101B40006206F09262068091A20082608093A200F9
:101B5000789400914820109149200093E621109339
:101B6000E72186E59CE08093E4219093E5218DE4D4
:101B70009CE08093E2219093E32180914320909117
:101B800044208D839E8380914520909146208F83B1
:101B9000988780914720898740913F20509140202D
:101BA000609141207091422049835A836B837C83EA
:101BB000003A28E0120731F460E183E090E00E94EF
:101BC000231C09C0003A39E0130729F460E184E0DE
:101BD00090E00E94231CBE016F5F7F4FC8010E94EE
:101BE0004E226AEC79E083EE99E00E944326E09170
:101BF0004820F091492083818F7C80628383FAD7CB
:101C000080E28093650682E08093E507789481E026
:101C100080936A0683E08093690694E090938A0635
:101C20008093890682E08093920680914800817FAC
:101C30008660809348006ED852E0A52E01E010E047
:101C4000BB24B3949924939480910C0980FFFCCF1A
:101C500080910C09816080930C098091780081FF4C
:101C60000BC06FE780E092E00E949726A092780078
:101C7000009391211093922180918D2190918E213A
:101C8000A0918F21B09190210196A11DB11D80934B
:101C90008D2190938E21A0938F21B09390214FE5B9
:101CA00051E2409393215093942127E331E280E65F
:101CB00091E2DA0141E6642E41E2742EF90141918C
:101CC0009F01642F669566956695F0E26F9FB0015F
:101CD00011247A5FFB0160854770680102C0CC0C5B
:101CE000DD1C4A95E2F76C21F30140816623B1F0D7
:101CF000411106C04C91453018F0B082FC011082B1
:101D0000FC016081462F50E04F3E51051CF441E03C
:101D1000460F01C040EFFC01408314C0442339F05A
:101D2000FC014081453018F0F30110821C926C9147
:101D3000462F50E04F3E51051CF441E0460F01C0D4
:101D400040EF4C9303961396F3E06F0E711C41E243
:101D50002A33340709F0B2CF8091912190919221DA
:101D600020915F21009781F4243689F580916121CB
:101D700081112DC080910D2090910E208093912192
:101D80009093922121E024C0243621F430916121E6
:101D9000332399F03AEF320F3E3548F42091612118
:101DA0002223A9F020916021253089F406C0293C26
:101DB00070F02091612121110AC080930D20909331
:101DC0000E20109291211092922121E001C020E07A
:101DD0008091912190919221009711F1309165218C
:101DE000323321F440916721442359F036503C327C
:101DF000B8F430916721332399F030916621353062
:101E000079F48330910539F0019680939121909374
:101E1000922121E005C0009391211093922121E0AD
:101E20008091912190919221009719F13091622136
:101E3000323321F4409164214423C1F04AEF430F2F
:101E40004C3248F480916421882399F08091632179
:101E5000853079F40BC0323360F030916421311158
:101E600008C055245394039721F404C05524539477
:101E700001C0512C88EE91E22E870E94FD1A2E851A
:101E80008D3461F48091912190919221892B09F0F8
:101E9000AFC20093912110939221AAC2211102C0D6
:101EA000852D01C081E08170482E80906806582DF4
:101EB0005170852EE0919121F0919221309711F48B
:101EC000552329F060E260936506A092E507211191
:101ED00010928C2180918D2190918E21A0918F2143
:101EE000B09190214420E9F0AC01BD01415051096D
:101EF000610971095F77662777274093882150939E
:101F0000892160938A2170938B21382F3F733093FE
:101F100087218093832190938421A0938521B0937E
:101F20008621E230F10541F1C0908321D0908421D7
:101F3000E0908521F0908621AC01BD014C195D092E
:101F40006E097F0941365A4E61057105C8F1EF2BC4
:101F5000B9F1811008C010929121109292218F73D3
:101F6000809387212DC08093832190938421A09317
:101F70008521B093862124C04091882150918921E8
:101F800060918A2170918B214F87588B698B7A8B56
:101F9000AC01BD015F7766277727CF84D888E988B1
:101FA000FA884C155D056E057F0551F480938321F9
:101FB00090938421A0938521B093862110928C2147
:101FC0002E870DDB382E80E096DB2E8531101AC06F
:101FD000811019C08091822181110FC080919121BF
:101FE00090919221892B49F0F6E9DF2ED09282213F
:101FF00080918D218F73809387211092912110926F
:10200000922103C081101092822120908C215520B2
:1020100021F0822D8B2580938C21E0919121F091EC
:102020009221E130F105D1F480918D2190918E21A2
:10203000A0918F21B09190214091832150918421D2
:102040006091852170918621841B950BA60BB70B9F
:10205000893C9F4AA105B105F0F46CC0E230F1055E
:1020600079F580918D2190918E21A0918F21B09151
:10207000902140918321509184216091852170911C
:102080008621841B950BA60BB70B893E9340A105B7
:10209000B10508F44FC0811003C090928C2110C08C
:1020A00080918D2190918E21A0918F21B0919021CE
:1020B0008093832190938421A0938521B0938621DE
:1020C0003397C1F54420B9F0622F8AE791E238DBFB
:1020D000482E4B2480917E2190917F21A0918021D8
:1020E000B091812180936C2190936D21A0936E21FA
:1020F000B0936F2101C0412C0E945C1C20917A2179
:1021000030917B2140917C2150917D21621B730B8A
:10211000840B950B609373217093742180937521C8
:1021200090937621442031F00093912110939221D5
:1021300010928C2180919121909192210197029788
:1021400068F580916821882341F01092682141E070
:1021500062E08FE090E20E94D10680918C2188237A
:10216000F9F021101DC05520D9F00E945C1C698334
:102170007A838B839C8360911520709116208091C7
:1021800017209091182094DB6D837E838F8398872E
:10219000CE0101961FDB2224239404C0212C02C00F
:1021A0002224239480918221882351F081508093AE
:1021B0008221811105C080918D218F7380938721A9
:1021C00040918D2150918E2160918F2170919021AD
:1021D0008091872190E0A0E0B0E02A013B01EFE38D
:1021E0004E22552466247724481659066A067B0633
:1021F00009F096C08092782180918221882321F075
:1022000090927921312C02C01092792180919121F4
:1022100090919221039789F480917E2190917F2162
:10222000A0918021B091812180936C2190936D21A8
:10223000A0936E21B0936F2137C0609115207091EB
:102240001620809117209091182032DB60936C212A
:1022500070936D2180936E2190936F2120911520B2
:10226000309116204091172050911820CA01B901D1
:10227000E2E09595879577956795EA95D1F7620F96
:10228000731F841F951F20912D2030912E20409187
:102290002F2050913020620F731F841F951F08DB81
:1022A000609370217093712160916C2170916D2108
:1022B00080916E2190916F2124E630E040E050E063
:1022C0000E949D222432310570F02C34310568F0D3
:1022D0002F36310560F02739310558F02B3F310595
:1022E00050F484E009C080E007C081E005C082E0CE
:1022F00003C083E001C085E08093772130926B2199
:1023000080918C21809372218091912190919221D2
:102310008093692190936A2189E691E2C5D42DC00A
:102320004F5F5F4F6F4F7F4F4F735527662777275C
:10233000481759076A077B0759F4809191219091BA
:102340009221892BD1F0B092E6070E94980615C021
:1023500080918C21811111C0222079F080E480933A
:102360006506A0926506B092E507FEDA4091682105
:1023700062E08FE090E20E94D10680918C21811171
:1023800002C0211007C0A0926606B092E60780E462
:10239000809366068091912190919221892B09F07A
:1023A00053CC9092682181104FCC80918221811171
:1023B0004BCCF0E2F0936606A092E6078091880687
:1023C00082FF42CC80918C06817080938C06809134
:1023D000A20084608093A200809148008160809375
:1023E000480088958091A2008B7F8093A2002CCC1E
:1023F00021E081E058CDEF92FF920F931F93CF938E
:10240000DF931F92CDB7DEB77C018C01169507953F
:1024100080EB69839BD78FE36981861B97D7802FD9
:102420008F7094D7C70125E0969587952A95E1F797
:10243000877080610F90DF91CF911F910F91FF9076
:10244000EF9084C7DF92EF92FF920F931F93CF9389
:10245000DF93EC01D62E00E010E02B8130E0021774
:102460001307B8F48981B801680F711D888190E065
:10247000C2DFE12CF12C2A8130E0E216F30630F4C1
:102480008D2DE4D782E0E80EF11CF5CF0F5F1F4FD2
:10249000E4CFDF91CF911F910F91FF90EF90DF90EC
:1024A000089524EBE5EFF1E2DF011D922A95E9F7AB
:1024B000462F50E0653B10F044EB50E0A5EFB1E251
:1024C00020E030E02417350741F0FC01E20FF31F54
:1024D000E491ED932F5F3F4FF5CF08952F923F92F8
:1024E0004F925F926F927F928F929F92AF92BF9224
:1024F000CF92DF92EF92FF920F931F93CF93DF93D0
:10250000CDB7DEB76497CDBFDEBF2C016B837C8374
:1025100049015A01ED86FE860F87188BFB01028167
:10252000069510E0C8010E9415253C018CEC8983BA
:1025300083E38A83A80160E070E0C3010E943C2627
:1025400000E010E0C12CD12CEB81FC81838190E074
:10255000C816D90608F0C8C0F201E00FF11F8F01BC
:1025600004191509819187FFFACF682F6F7770E002
:1025700080E090E00E9496232D853E854F85588906
:102580000E9469240E94CC240E946823E62EF12C2C
:10259000EC14FD0418F4F1E0CF1AD108EB81FC81B2
:1025A0008181B601680F711D808190E024DFCE1417
:1025B000DF0411F0730184C00F5F1F4F6D827E82B4
:1025C000E12C8D819E8186199709EB81FC81228106
:1025D000269530E08217930708F082C09C01220FF5
:1025E000331F2B873C87F12C212C312CF201E00F7B
:1025F000F11F608167FD4AC070E080E090E00E94BA
:102600009623A50194010E9469240E94CC240E9473
:1026100068232B853C85220D331D29873A8770E07E
:102620002617370799F5C80101968F839887FC0113
:10263000E40DF51D608167FD25C070E080E090E04D
:102640000E949623A50194010E9469240E94CC2433
:102650009B01AC01E985FA85BF01882777FD80954C
:10266000982F298B3A8B4B8B5C8B0E949623298960
:102670003A894B895C890E945F23811103C00E5FF8
:102680001F4F04C0F1E0EF260F811885EE2041F0C6
:10269000E1E0F0E0EC0FFD1FE20DF31D8081F82A70
:1026A0002FEF221A320A32E02316310409F09ECFAE
:1026B000ED81FE81F192ED83FE838F2DC7D681CF10
:1026C000EB81FC818281869590E09701261937097C
:1026D0002817390728F4F70181917F01B7D6F0CF89
:1026E000FFEFCF1ADF0A30CFC3016496CDBFDEBF44
:1026F000DF91CF911F910F91FF90EF90DF90CF90DE
:10270000BF90AF909F908F907F906F905F904F9011
:102710003F902F900C94AD252F923F924F925F9255
:102720006F927F928F929F92AF92BF92CF92DF92E1
:10273000EF92FF920F931F93CF93DF9300D01F92DE
:10274000CDB7DEB78B01622F4983ABDEF801C080C5
:10275000D12C2180312C4981A42EBB24A7FCB0941C
:102760008281282F30E021503109287F285F3F4F98
:1027700002C0359527954A95E2F72A833B83E12CE1
:10278000F12C60E8862E912CF801838190E0E81608
:10279000F90608F056C0B701620D731DC6012BDEA5
:1027A000C7010A2C02C0969587950A94E2F74A81E0
:1027B0005B81849F3001859F700C949F700C112465
:1027C00090E0412C512CF801228130E04216530652
:1027D000A0F592010A2C02C0369527950A94E2F7DB
:1027E000F901E60DF71D53E0F695E7955A95E1F7E7
:1027F000EB50FE4D27703327A40102C05595479535
:102800002A95E2F79A013081322381E009F480E0D1
:1028100092012C0D3D1D20FF07C081119363892F6C
:10282000998314D6998105C0882311F09CEC01C0CE
:1028300090E05FEF451A550AC6CFFFEFEF1AFF0A87
:10284000A3CF2396CDBFDEBFDF91CF911F910F9114
:10285000FF90EF90DF90CF90BF90AF909F908F90C0
:102860007F906F905F904F903F902F900895CF93FF
:10287000DF93CDB7DEB72A97CDBFDEBF9AE0E2E7A0
:10288000F0E2DE01119601900D929A95E1F7982FF2
:102890009695611111C0E92F80FF0BC081E0209156
:1028A0009721211180E080939721882311F0E1E0A6
:1028B000E90F1092962110C080919621853010F07A
:1028C0001092962180919621E92F981708F4E82F0D
:1028D00081E08E0F80939621F0E0EE0FFF1F81E0E4
:1028E00090E08C0F9D1FE80FF91F28E1442321F091
:1028F00042E066E570E203C040E06AE570E2808194
:1029000091812A96CDBFDEBFDF91CF9105CFFF9297
:102910000F931F93CF93DF93CDB7DEB76097CDBFF3
:10292000DEBFF82E8B018CE0ECE7F0E2DE011196C1
:1029300001900D928A95E1F7FB01408151816281FE
:1029400073814D875E876F87788BF1E0FF1558F0B4
:102950008F85869586958F878695982F990F980FE6
:102960008D85890F8D87809195218F1541F0F0928B
:10297000952120E040E0B80180E090E0CDDEFE014E
:102980003196EF0DF11DEF0DF11D2FE740E0BE0177
:10299000635F7F4F80819181BFDE6096CDBFDEBFD8
:1029A000DF91CF911F910F91FF90089580E090E00B
:1029B00001968A369105E1F708952F923F924F9242
:1029C0005F926F927F928F929F92AF92BF92CF92BF
:1029D000DF92EF92FF920F931F93CF93DF93CDB7C8
:1029E000DEB7AB97CDBFDEBF6FA378A789A79AA745
:1029F0004BA728013901CBA2DCA2EDA2FEA2282C14
:102A00006E0185E1C80ED11C85E0F60111928A9510
:102A1000E9F78FEF8AA384E1E8E8F0E2DE0111969E
:102A200001900D928A95E1F72296EEADFFAD2297C7
:102A300081818F8F828188A3838189A33A2CF5E0DD
:102A4000FA1510F4F5E03F2E0DE411E27601EAE00C
:102A50008E2E912CA12CB12CF801219131918F0156
:102A600040E050E06FA178A589A59AA50E949D221B
:102A7000CA01B901A50194010E949D22F701619349
:102A80007F01F1E207351F0739F74601C12CAA245F
:102A9000A394D12CB12C2296EEADFFAD229780816C
:102AA0008C0D8E8FB21431F0AA2021F0F4018081B8
:102AB0008823F1F0F4018081FE013196E80FF11DC9
:102AC000E80FF11D64EB80819181EBDCEBA0FCA0B1
:102AD0000DA11EA1A3019201BE01625E7F4F85EF91
:102AE00091E2FCDCD39418A1C10ED31014C063C0D2
:102AF000FBA5F1115DC0EBA0FCA00DA11EA1A301DF
:102B00009201BE01625E7F4FCE018296E7DCD394D4
:102B100088A1C80E4DC0B2102CC02296EEADFFADFC
:102B2000229701812396FFAD2397FF2389F020E0B0
:102B300030E040E850E4C301B2010E9469240E94E1
:102B400068236C8F6D8F015F0B8F86E0C80E07C006
:102B500094E09C8F9D8F085E0B8FE8E0CE0E8E8DEB
:102B6000810F8E5F8A8F6FEFCE014A966BDCA12CAE
:102B700001C0A12CB394FFEF8F1A9F0A85E0B81211
:102B80008ACFAA20C1F064EB89819A818ADCEBA00C
:102B9000FCA00DA11EA1A3019201BE01625E7F4FA8
:102BA00085EF91E29BDCD11006C0DD24D39403C0F5
:102BB000D310E0CFE8CF8D2DAB96CDBFDEBFDF9138
:102BC000CF911F910F91FF90EF90DF90CF90BF902A
:102BD000AF909F908F907F906F905F904F903F90BD
:102BE0002F90089560E08EE690E22CDC60E08AE6AB
:102BF00090E228CCEF92FF920F931F93CF93DF9335
:102C0000CDB7DEB76997CDBFDEBF8FEF80934106AA
:102C10008093210610E81093010682E08093E1077B
:102C200089E1ECE9F0E2DE01119601900D928A95BE
:102C3000E1F71093060608E000932606B7DE00933E
:102C40002506B4DE109305068E010F5F1F4F7E012F
:102C50008AE1E80EF11CF80181918F0177D30E15FE
:102C60001F05C9F76996CDBFDEBFDF91CF911F91D8
:102C70000F91FF90EF90B6CFCF93DF9300D000D0AD
:102C8000CDB7DEB782E2898388E18A8386E48B83CD
:102C90008EE18C8360E0CE010196D4DB2496CDBF1B
:102CA000DEBFDF91CF9108952F923F924F925F92B6
:102CB0006F927F928F929F92AF92BF92CF92DF924C
:102CC000EF92FF920F931F93CF93DF93CDB7DEB7B1
:102CD000C054D109CDBFDEBF3C01FC014080518012
:102CE00080919821909199218415950529F07ADF9A
:102CF0004092982150929921F1E04F16510469F0C9
:102D000008F47DC232E04316510409F44FC083E059
:102D10004816510409F435C180C2F3018185882326
:102D200041F020E940E062E670E28CEC9AE0F4DCED
:102D300007C02EE740E066E670E28CE691E0ECDC4E
:102D400020E840E06EE570E28FE898E0E5DC28E4FA
:102D500040E062E570E282E198E0DEDCF30163814D
:102D60007481858196811F9227E531E23F932F93ED
:102D700042E0842E55E0A52EE6E6CE2EDC2CEC2C8F
:102D8000EFE3FE2E00E010E020E43FE340E015DE3C
:102D900040E0F301678582816ADD6AE470E2F30155
:102DA0008685B5DD0F900F900F9037C280E28BAF14
:102DB00016E01CAF9CE29DAF39E03EAF9CE49FABB8
:102DC0009AE098AF0CE009AF24E12AAF44E24BABA4
:102DD0002CAB8DAB9EAB46E94FA718AB48E249AB95
:102DE0003AAB3EEB3BA79CA70DA72EA73AE93FA322
:102DF00028A789A79AA78BA399E29CA390E69DA3F5
:102E00009EE09EA38F8F88A390EE99A3BB24B394DA
:102E1000BAA294E99B8F1C8EBD8E8E8F6FEFCE0170
:102E20004F9610DB6CECCE014B960CDB25E340E0BB
:102E3000BE01655C7F4F8AE598E06EDC26E240E0EB
:102E4000BE016D5C7F4F8CEE97E066DC26E240E0D1
:102E5000BE01695D7F4F8CEE97E05EDC2DE240E0C5
:102E6000BE01615D7F4F8FE099E056DC27EA40E0CC
:102E7000BE016D5D7F4F85E497E04EDCF301268552
:102E8000E5EBF0E2DE01119601900D920A95E1F773
:102E9000E1ECF0E2DE011D9601900D921A95E1F74A
:102EA0008091492190914A21A0914B21B0914C21D0
:102EB0008F8B988FA98FBA8F8B8B9C8BAD8BBE8B92
:102EC000E22FF0E0DE01AE0FBF1FEE0FFF1F21E08B
:102ED00030E02C0F3D1FE20FF31F1D962C9140E0B8
:102EE000BE01695E7F4F8081918116DC8B899D894F
:102EF000890F8B8B20E240E0BE016D5E7F4F83E83F
:102F000096E00ADC6EE470E2F301868500DDF301F1
:102F10006381748185819681BF929E01295C3F4FB8
:102F20003F932F9302E0802E25E0A22E31E7C32E9F
:102F30003DE3D32E3AE0E32E3FE3F32E00E010E032
:102F400020E03FE340E039DDF3016781708580E0F8
:102F500090E0BF929E01255D3F4F3F932F9300E08D
:102F600010E020E03FE340E028DD40E0F30167852A
:102F700082817DDC0F900F900F900F900F900F903B
:102F80004CC188E28B8B1C8A88E48D8B80E18E8B10
:102F900090E79D871E869CE09F87888B20E940E014
:102FA000BE016D5E7F4F8CE399E0B6DB40E0F3013C
:102FB000678582815CDC20E840E06EE570E28FE8A6
:102FC00098E0AADB28E440E062E570E282E198E064
:102FD000A3DBF30163817481858196811F9227E5CC
:102FE00031E23F932F93E2E08E2EF5E0AF2EA6E67E
:102FF000CA2EDC2CEC2CAFE3FA2E00E010E020E42B
:103000003FE340E0DADCF3016285738584859585D2
:10301000BCE34B2E512C612C712CA30192010E9418
:103020009D220F900F900F902C33310541055105D3
:1030300028F41B01982EB92EE0E023C0CA01B90183
:10304000A30192010E949D222831310541055105BD
:1030500028F41B01982EB92EE1E013C0CA01B90172
:1030600028E130E040E050E00E949D221B01982EB4
:10307000B92E2E3131054105510510F4E2E001C0B1
:10308000E3E0CA01B901243631054105510520F0BC
:1030900063E670E080E090E09E012F5F3F4F3901D2
:1030A0004E2E512C611571058105910509F43FC023
:1030B00019821A8220E12B832C835F851F929E0147
:1030C000235F3F4F3F932F932AE0822E32E0A32EBF
:1030D0004EEAC42E47E4D42E41EEE42E4EE3F42E05
:1030E0009701860141E021965FAF219766DC21962A
:1030F0005FAD2197859F002D11249D85900F9983A9
:10310000F2013196DF01AC5BBE4D1C911B83EE0FCB
:10311000FF1FE65CFE4D20E440E0B3018081918119
:10312000FBDA502F510F0F900F900F9001C050E01D
:103130008D859E85AF85B88989839A83AB83BC834F
:103140008D85850F89833F853FAF1F927F926F9258
:10315000AAE08A2EB2E0AB2E1EEAC12E17E4D12ED1
:1031600011EEE12E1EE3F12E9701860141E0B1013F
:10317000892D9B2D21965FAF21971FDC21965FAD96
:103180002197B52E9FAD899FB00C11241A8200E1C2
:103190000C838D858B0D8983F201EC5BFE4D1081D4
:1031A0001B83F201EE0FFF1FE65CFE4D20E440E0C2
:1031B000B30180819181B0DA1B0D0F900F900F90B9
:1031C000103768F41A820B830C838D85810F8983F5
:1031D00020E240E0B3018CEC99E09EDA105F1437F6
:1031E000E0F48D853E8598893A839C83810F89839D
:1031F00080E7811B8B8360E0C30124D90EC0F301FB
:103200008089811103C08785882331F041E0F30173
:10321000678582812CDB01C0E5DCC05CDF4FCDBF60
:10322000DEBFDF91CF911F910F91FF90EF90DF9064
:10323000CF90BF90AF909F908F907F906F905F9056
:103240004F903F902F900895AF92BF92CF92DF9210
:10325000EF92FF920F931F93CF93DF9300E216E05C
:1032600084E0F82EF801F58290E4E92E96E0F92E3C
:10327000DD24DA94F701D282D5821682DD24D3943C
:10328000F801D682C12C26E0D22E30E8B32EF6010A
:10329000B68242E0A42EF801A682F701F084F8017C
:1032A000A582F601B5821F2D111F1127111F12953E
:1032B000110F110F107CFF2DF170CF2F80E0D82F50
:1032C000CC0FDD1F1C2BF1FAAA27A0F9B0E063E0B8
:1032D000AA0FBB1F6A95E1F71A2BF2FAEE27E0F965
:1032E000F0E075E0EE0FFF1F7A95E1F71E2BF3FA81
:1032F000662760F970E07695762F66277795679553
:10330000162BF4FA442740F950E0440F551F142BB4
:10331000F5FA222720F930E0220F331F220F331F46
:10332000122BF6FA882780F990E0B4E0880F991FF5
:10333000BA95E1F7812BDF91CF911F910F91FF900B
:10334000EF90DF90CF90BF90AF9008956F927F92F3
:103350008F929F92AF92BF92CF92DF92EF92FF92A5
:103360000F931F93CF93DF93782E5BE0652E6CDF76
:1033700087FF03C06A94D9F75AC08FEF8093410644
:1033800081E08093260680E88093060624E020935F
:10339000260671FA992790F970FA882480F8912C02
:1033A000C4E0880C991CCA95E1F7892A972D991FCA
:1033B0009927991F990F990F990F982972FAAA24A2
:1033C000A0F8B12CD5E0AA0CBB1CDA95E1F79A293C
:1033D00073FACC24C0F8D12CCC0CDD1C9C2974FAD7
:1033E000EE24E0F8F12C06E0EE0CFF1C0A95E1F764
:1033F0009E2975FA002700F910E0000F111F000F39
:10340000111F902B76FA772470F8C72D30E0D32F58
:10341000D695DC2FCC27D795C7959C2B9093450646
:103420009095909346062093250680930506DF919C
:10343000CF911F910F91FF90EF90DF90CF90BF90B1
:10344000AF909F908F907F906F900895CF93DF9370
:10345000D82FCBE0F9DE87FF03C0C150D9F715C0E4
:103460008FEF8093410681E08093250680E880936A
:10347000060694E090932606D0934506D095D09307
:1034800046069093250680930506DF91CF91089517
:103490009091AC229330D1F058F4992371F091308F
:1034A00069F58093A92283E08093AC2280E008959F
:1034B0009430E9F0953031F121C0833519F510923F
:1034C000AB2281E08093AC2280E008959091AB2202
:1034D000E92FF0E0E755FD4D868381E0890F809369
:1034E000AB22843079F48093AC2280E00895853457
:1034F00029F485E08093AC2281E008951092AC22FB
:1035000080E0089580E00895CF92DF92EF92FF92DD
:103510006A017B01FC0124812D3421F52081318158
:1035200042815381A0E1B7E20E94EA22A7019601FD
:103530000E949D22BA01A901453CF9E05F0761059F
:10354000710520F044EC59E060E070E08091CF011B
:1035500087FDFCCF80E392E0FF90EF90DF90CF906B
:103560000C94BA26FF90EF90DF90CF9008954F9281
:103570005F926F927F928F929F92AF92BF92CF9203
:10358000DF92EF92FF92CF93DF93EC012A013B0190
:10359000E3EBF2E2C12CD12C7601812C912C540169
:1035A0008394A291B0E0D097A50194010E94F422E7
:1035B000C60ED71EE81EF91EAAE0B0E00E94EA225D
:1035C0004B015C0182E2EF3AF80759F7C882D982D1
:1035D000EA82FB82B301A201CE0196DFDF91CF9197
:1035E000FF90EF90DF90CF90BF90AF909F908F9023
:1035F0007F906F905F904F9008952091AC2225307E
:1036000051F41092AC222091A922FC01248334DBD6
:103610008091A922089580E008954F925F926F9261
:103620007F928F929F92AF92BF92CF92DF92EF9252
:10363000FF92CF93DF934B015C01EA01C0909E2182
:10364000D0909F21E090A021F090A1216C197D09DC
:103650008E099F090E9496232DEC3CEC4CE45EE31E
:103660000E9469242B013C01C701B6010E949623E8
:103670009B01AC01C301B201BED70E9463236B0161
:103680007C0160939E2170939F218093A021909351
:10369000A121CB01881999094C0197FF03C091948E
:1036A00081949108AA2497FCA094BA2C98E8C91692
:1036B00093E1D906E104F10444F0C701B60125E025
:1036C00030E040E050E05BD704C028EE33E040E05B
:1036D00050E080919A2190919B21A0919C21B091E2
:1036E0009D2182169306A406B50674F48D379105C4
:1036F000A105B10524F40196A11DB11D11C08EE7ED
:1037000090E0A0E0B0E00CC084309105A105B105C7
:1037100024F00397A109B10903C080E090E0DC0127
:1037200080939A2190939B21A0939C21B0939D21FB
:103730008091EC218D34B9F480919A2190919B2154
:10374000A0919C21B0919D210A97A105B1055CF043
:1037500088819981019729F4B701A60188EE91E249
:1037600006DF1092EC21DF91CF91FF90EF90DF9078
:10377000CF90BF90AF909F908F907F906F905F9011
:103780004F900895CF92DF92EF92FF926B017C01F0
:103790008091CF0187FDFCCF80E392E00E948D26CF
:1037A0006F3F2FEF72078207920721F468EE73E0F4
:1037B00080E090E09B01AC01253C89E038074105A1
:1037C000510520F024EC39E040E050E0C701B6019B
:1037D00091D628EE33E040E050E0AFD6CA01B901FF
:1037E000FF90EF90DF90CF9008959FB7F894E0E5B9
:1037F000F0E02081822B80839FBF08958FEF80931C
:1038000070008093710080937200809373008093A6
:103810007400809375008093760082E0E6DF8091EB
:10382000510081FFFCCF61E080E490E02DD09FB794
:10383000F894809150008E7F809350009FBF81E06C
:103840008093430008952FB7F894FC01E059FF4F8F
:1038500060958081862380832FBF08952FB7F894C9
:10386000FC01E059FF4F8081862B80832FBF089594
:10387000FC01128213824483440F415045836083CC
:10388000718380E090E008951BBEFC0128ED24BF09
:1038900060830895109200042091010420FDFCCF64
:1038A00060930804709309048093B9229093BA221C
:1038B00087E08093000408950F931F938091010483
:1038C00080FDFCCF8FB7F8946091B9227091BA2235
:1038D00000910804109109040115110531F490912B
:1038E000030490FF02C06F5F7F4F8FBFCB01A0E04A
:1038F000B0E07727662720E030E0602B712B822B29
:10390000932B1F910F91089521E02093020460935F
:103910000C0470930D046093BD227093BE228093BB
:10392000BB229093BC228091010480FDFCCF82E0F9
:103930008093030485E08093020408958093BF225E
:103940009093C022089564E080E090E07CDFE0E0A6
:10395000F4E08FEF9FEF82879387108611869FB7E1
:10396000F894E6EBF2E280818F5F80839FBFE0E016
:10397000F4E081E0828387E0808308951F920F92B4
:103980000FB60F9211248F939F93EF93FF93E9EB60
:10399000F2E280819181019680839183FF91EF9182
:1039A0009F918F910F900FBE0F901F9018951F92AF
:1039B0000F920FB60F921124CF92DF92EF92FF92E7
:1039C0000F931F932F933F934F935F936F937F9327
:1039D0008F939F93AF93BF93EF93FF936091B9221F
:1039E0007091BA220091BB221091BC22601771071E
:1039F00098F181E080930204E091BF22F091C0220F
:103A0000309751F1C0900804D0900904CB01A0E098
:103A1000B0E077276627E12CF12C6C297D298E29CF
:103A20009F2920E030E0980111270027C090BD2297
:103A3000D090BE22E12CF12C0C291D292E293F29E2
:103A4000061717072807390730F0C901B8016F5F5B
:103A50007F4F8F4F9F4F0995FF91EF91BF91AF918E
:103A60009F918F917F916F915F914F913F912F9196
:103A70001F910F91FF90EF90DF90CF900F900FBEAE
:103A80000F901F9018951F920F920FB60F9211244E
:103A90002F933F934F935F936F937F938F939F9356
:103AA000AF93BF93EF93FF93E091CC21F091CD21A1
:103AB000309709F00995FF91EF91BF91AF919F91D8
:103AC0008F917F916F915F914F913F912F910F90C7
:103AD0000FBE0F901F9018951F920F920FB60F9266
:103AE00011242F933F934F935F936F937F938F9303
:103AF0009F93AF93BF93EF93FF93E091CA21F0910F
:103B0000CB21309709F00995FF91EF91BF91AF91CB
:103B10009F918F917F916F915F914F913F912F91E5
:103B20000F900FBE0F901F9018951F920F920FB617
:103B30000F9211242F933F934F935F936F937F9333
:103B40008F939F93AF93BF93EF93FF93E091C8211F
:103B5000F091C921309709F00995FF91EF91BF913C
:103B6000AF919F918F917F916F915F914F913F9115
:103B70002F910F900FBE0F901F9018951F920F92CC
:103B80000FB60F9211242F933F934F935F936F9330
:103B90007F938F939F93AF93BF93EF93FF93E091A6
:103BA000C621F091C721309709F00995FF91EF9157
:103BB000BF91AF919F918F917F916F915F914F9145
:103BC0003F912F910F900FBE0F901F9018951F924D
:103BD0000F920FB60F9211242F933F934F935F9341
:103BE0006F937F938F939F93AF93BF93EF93FF93C5
:103BF000E091C421F091C521309709F00995FF911A
:103C0000EF91BF91AF919F918F917F916F915F9154
:103C10004F913F912F910F900FBE0F901F901895CD
:103C20001F920F920FB60F9211242F933F934F9331
:103C30005F936F937F938F939F93AF93BF93EF9314
:103C4000FF93E091C221F091C321309709F00995CB
:103C5000FF91EF91BF91AF919F918F917F916F9164
:103C60005F914F913F912F910F900FBE0F901F903A
:103C700018951F920F920FB60F9211242F933F9316
:103C80004F935F936F937F938F939F93AF93BF9364
:103C9000EF93FF93E091C021F091C121309709F09B
:103CA0000995FF91EF91BF91AF919F918F917F9176
:103CB0006F915F914F913F912F910F900FBE0F9099
:103CC0001F9018951F920F920FB60F9211242F93E9
:103CD0003F934F935F936F937F938F939F93AF9394
:103CE000BF93EF93FF93E091BE21F091BF213097F6
:103CF00009F00995FF91EF91BF91AF919F918F913D
:103D00007F916F915F914F913F912F910F900FBED7
:103D10000F901F9018951F920F920FB60F921124BB
:103D20002F933F934F935F936F937F938F939F93C3
:103D3000AF93BF93EF93FF93E091BC21F091BD212E
:103D4000309709F00995FF91EF91BF91AF919F9145
:103D50008F917F916F915F914F913F912F910F9034
:103D60000FBE0F901F9018951F920F920FB60F92D3
:103D700011242F933F934F935F936F937F938F9370
:103D80009F93AF93BF93EF93FF93E091BA21F0918C
:103D9000BB21309709F00995FF91EF91BF91AF9149
:103DA0009F918F917F916F915F914F913F912F9153
:103DB0000F900FBE0F901F9018951F920F920FB685
:103DC0000F9211242F933F934F935F936F937F93A1
:103DD0008F939F93AF93BF93EF93FF93E091B8219D
:103DE000F091B921309709F00995FF91EF91BF91BA
:103DF000AF919F918F917F916F915F914F913F9183
:103E00002F910F900FBE0F901F9018951F920F9239
:103E10000FB60F9211242F933F934F935F936F939D
:103E20007F938F939F93AF93BF93EF93FF93E09113
:103E3000B621F091B721309709F00995FF91EF91E4
:103E4000BF91AF919F918F917F916F915F914F91B2
:103E50003F912F910F900FBE0F901F9018951F92BA
:103E60000F920FB60F9211242F933F934F935F93AE
:103E70006F937F938F939F93AF93BF93EF93FF9332
:103E8000E091B421F091B521309709F00995FF91A7
:103E9000EF91BF91AF919F918F917F916F915F91C2
:103EA0004F913F912F910F900FBE0F901F9018953B
:103EB0001F920F920FB60F9211242F933F934F939F
:103EC0005F936F937F938F939F93AF93BF93EF9382
:103ED000FF93E091B221F091B321309709F0099559
:103EE000FF91EF91BF91AF919F918F917F916F91D2
:103EF0005F914F913F912F910F900FBE0F901F90A8
:103F000018951F920F920FB60F9211242F933F9383
:103F10004F935F936F937F938F939F93AF93BF93D1
:103F2000EF93FF93E091B021F091B121309709F028
:103F30000995FF91EF91BF91AF919F918F917F91E3
:103F40006F915F914F913F912F910F900FBE0F9006
:103F50001F9018951F920F920FB60F9211242F9356
:103F60003F934F935F936F937F938F939F93AF9301
:103F7000BF93EF93FF93E091AE21F091AF21309783
:103F800009F00995FF91EF91BF91AF919F918F91AA
:103F90007F916F915F914F913F912F910F900FBE45
:103FA0000F901F9018951F920F920FB60F92112429
:103FB0002F933F934F935F936F937F938F939F9331
:103FC000AF93BF93EF93FF93E091AC21F091AD21BC
:103FD000309709F00995FF91EF91BF91AF919F91B3
:103FE0008F917F916F915F914F913F912F910F90A2
:103FF0000FBE0F901F9018951F920F920FB60F9241
:1040000011242F933F934F935F936F937F938F93DD
:104010009F93AF93BF93EF93FF93E091AA21F09109
:10402000AB21309709F00995FF91EF91BF91AF91C6
:104030009F918F917F916F915F914F913F912F91C0
:104040000F900FBE0F901F9018951F920F920FB6F2
:104050000F9211242F933F934F935F936F937F930E
:104060008F939F93AF93BF93EF93FF93E091A8211A
:10407000F091A921309709F00995FF91EF91BF9137
:10408000AF919F918F917F916F915F914F913F91F0
:104090002F910F900FBE0F901F9018951F920F92A7
:1040A0000FB60F9211242F933F934F935F936F930B
:1040B0007F938F939F93AF93BF93EF93FF93E09181
:1040C000A621F091A721309709F00995FF91EF9172
:1040D000BF91AF919F918F917F916F915F914F9120
:1040E0003F912F910F900FBE0F901F9018951F9228
:1040F0000F920FB60F9211242F933F934F935F931C
:104100006F937F938F939F93AF93BF93EF93FF939F
:10411000E091A421F091A521309709F00995FF9134
:10412000EF91BF91AF919F918F917F916F915F912F
:104130004F913F912F910F900FBE0F901F901895A8
:104140001F920F920FB60F9211242F933F934F930C
:104150005F936F937F938F939F93AF93BF93EF93EF
:10416000FF93E091A221F091A321309709F00995E6
:10417000FF91EF91BF91AF919F918F917F916F913F
:104180005F914F913F912F910F900FBE0F901F9015
:104190001895CF93CFB7F894811528E0920711F4C2
:1041A00061E005C0803428E0920741F462E083E0DA
:1041B00090E049DB64E083E090E016C0811529E0DF
:1041C000920741F461E084E090E03DDB64E084E04C
:1041D00090E00AC081159A4081F461E085E090E0AA
:1041E00032DB64E085E090E02EDB9FB7F8948091AD
:1041F000B4228F5F8093B4229FBFCFBFCF91089529
:10420000009709F463C0811524E0920711F464E07B
:1042100005C0803821E0920721F462E080E090E060
:1042200054C0803823E0920711F461E005C0811585
:1042300022E0920721F462E081E090E046C081151F
:1042400028E0920711F461E037C0811529E0920758
:1042500011F461E029C081152AE0920711F461E0B0
:1042600032C0803428E0920711F462E025C0803922
:1042700028E0920711F464E01FC0803C28E0920718
:1042800011F468E019C0803C29E0920711F468E05D
:104290000BC0803A28E0920711F460E10DC0803A2B
:1042A00029E0920721F460E184E090E00EC08038BC
:1042B00024E0920721F460E483E090E006C0803AB5
:1042C000944021F460E485E090E0BDCA0895FC01CB
:1042D000218125FFFCCF608380E090E00895FC0100
:1042E000218127FFFCCF808108958F929F92AF920A
:1042F000BF92CF92DF92EF92FF920F931F93CF93D3
:10430000DF93EC016A017B0148015901B901A80161
:10431000A3E07695679557954795AA95D1F7D9016A
:10432000C80116E1B695A795979587951A95D1F787
:104330002C8122FD08C07695679557954795B695CF
:10434000A795979587954C155D056E057F0508F433
:1043500097C0C816D906EA06FB0608F491C08C81FE
:1043600082FD04C0CC0CDD1CEE1CFF1CC501B40199
:10437000A7019601E2D08FEF90E0A0E0B0E019EF46
:10438000281739074A075B0758F0880F991FAA1F9B
:10439000BB1F1D3F0CF481601F5F173089F74BC0B6
:1043A00017FF49C0D701C60103E0880F991FAA1F54
:1043B000BB1F0A95D1F7881A990AAA0ABB0A812F4E
:1043C000992787FD90951E3FE4F46DEF7FEF681B02
:1043D000790BA501940104C0220F331F441F551F00
:1043E0006A95D2F7CA01B90146015701B694A7945C
:1043F00097948794680D791D8A1D9B1DA7019601CE
:1044000018C09C012D5F3F4FD701C60104C0880F23
:10441000991FAA1FBB1F2A95D2F79C01AD01BC01B1
:10442000CD019695879577956795680D791D8A1DBD
:104430009B1D83D01CC023E0210FD701C60104C0FF
:10444000880F991FAA1FBB1F2A95D2F79C01AD01A7
:10445000BC01CD019695879577956795680D791D77
:104460008A1D9B1D6AD02150310941095109832FB2
:104470008F701295107F812B8F832E8381E001C076
:1044800080E0DF91CF911F910F91FF90EF90DF902F
:10449000CF90BF90AF909F908F9008950F931F93F0
:1044A000CF93DF93EC018B01ABDE8D818F738D8316
:1044B000F80186819481892B9085992311F098E0E9
:1044C00001C090E0892B8D83F80140815181628188
:1044D000738100E018E428EE31E0CE0106DF9C8114
:1044E00098609C839C8190619C83DF91CF911F9108
:1044F0000F910895DB018F939F936CD0BF91AF9183
:10450000A29F800D911DA39F900DB29F900D11242D
:104510000895AA1BBB1B51E107C0AA1FBB1FA6170A
:10452000B70710F0A61BB70B881F991F5A95A9F75C
:1045300080959095BC01CD010895A1E21A2EAA1B89
:10454000BB1BFD010DC0AA1FBB1FEE1FFF1FA21743
:10455000B307E407F50720F0A21BB30BE40BF50B40
:10456000661F771F881F991F1A9469F760957095C9
:10457000809590959B01AC01BD01CF010895052E5A
:1045800097FB16F400940FD057FD05D0D6DF07FC3B
:1045900002D046F408C050954095309521953F4F84
:1045A0004F4F5F4F089590958095709561957F4F1F
:1045B0008F4F9F4F0895A29FB001B39FC001A39F4B
:1045C000700D811D1124911DB29F700D811D11244C
:1045D000911D0895F0DFA59F900DB49F900DA49FAD
:1045E000800D911D11240895B7FFF4CFF3DF821BD6
:1045F000930B08955058BB27AA270ED02CC11DD16C
:1046000030F022D120F031F49F3F11F41EF412C19A
:104610000EF4E095E7FB08C1E92F2ED180F3BA171D
:10462000620773078407950718F071F49EF546C179
:104630000EF4E0950B2EBA2FA02D0B01B9019001BD
:104640000C01CA01A0011124FF27591B99F0593F01
:1046500050F4503E68F11A16F040A22F232F342F49
:104660004427585FF3CF469537952795A795F04097
:104670005395C9F77EF41F16BA0B620B730B840BAC
:10468000BAF09150A1F0FF0FBB1F661F771F881F64
:10469000C2F70EC0BA0F621F731F841F48F48795BC
:1046A00077956795B795F7959E3F08F0B3CF9395AB
:1046B000880F08F09927EE0F97958795089590D069
:1046C00008F481E0089504D06894B111F8C0089509
:1046D000DBD088F09F5790F0B92F9927B751A0F001
:1046E000D1F0660F771F881F991F1AF0BA95C9F786
:1046F00012C0B13081F0E2D0B1E00895DFC0672F81
:10470000782F8827B85F39F0B93FCCF38695779535
:104710006795B395D9F73EF490958095709561951E
:104720007F4F8F4F9F4F0895E89409C097FB3EF449
:1047300090958095709561957F4F8F4F9F4F9923EE
:10474000A9F0F92F96E9BB279395F695879577956C
:104750006795B795F111F8CFFAF4BB0F11F460FF2C
:104760001BC06F5F7F4F8F4F9F4F16C0882311F084
:1047700096E911C0772321F09EE8872F762F05C098
:10478000662371F096E8862F70E060E02AF09A9533
:10479000660F771F881FDAF7880F9695879597F928
:1047A0000895990FBB0B550FAA0BE0E8FEEF161604
:1047B0001706E807F90770F012161306E407F50765
:1047C00060F0BA1754F031F4261737074807590735
:1047D000A7951BF4B901CA01BA2FB695979508950C
:1047E000990F0008550FAA0BE0E8FEEF1616170602
:1047F000E807F907C0F012161306E407F50798F06A
:10480000621B730B840B950B39F40A2661F0232B82
:10481000242B252B21F408950A2609F4A140A695FE
:104820008FEF811D811D089597F99F6780E870E0E3
:1048300060E008959FEF80EC089500240A94161616
:10484000170618060906089500240A94121613067E
:10485000140605060895092E0394000C11F488230C
:1048600052F0BB0F40F4BF2B11F460FF04C06F5F28
:104870007F4F8F4F9F4F089557FD9058440F551FFE
:1048800059F05F3F71F04795880F97FB991F61F0D2
:104890009F3F79F087950895121613061406551F49
:1048A000F2CF4695F1DF08C0161617061806991FB5
:1048B000F1CF86957105610508940895E894BB27AA
:1048C00066277727CB0197F908958ADF08F48FEFE1
:1048D00008950BD0C0CFB1DF28F0B6DF18F09523D4
:1048E00009F0A2CFA7CF1124EACFC6DFA0F3959F8E
:1048F000D1F3950F50E0551F629FF001729FBB27C7
:10490000F00DB11D639FAA27F00DB11DAA1F649F72
:104910006627B00DA11D661F829F2227B00DA11D25
:10492000621F739FB00DA11D621F839FA00D611DAB
:10493000221F749F3327A00D611D231F849F600DCC
:10494000211D822F762F6A2F11249F5750408AF005
:10495000E1F088234AF0EE0FFF1FBB1F661F771F91
:10496000881F91505040A9F79E3F510570F05CCFD1
:10497000A6CF5F3FECF3983EDCF38695779567957D
:10498000B795F795E7959F5FC1F7FE2B880F911DAF
:104990009695879597F9089577DFE0F09E37D8F0E0
:1049A0009639B8F49E3848F4672F782F8827985F97
:1049B000F9CF86957795679593959539D0F3B62F6E
:1049C000B1706B0F711D811D20F4879577956795E8
:1049D000939502C01CC073CF882371F4772321F014
:1049E0009850872B762F07C0662311F499270DC0A6
:1049F0009051862B70E060E02AF09A95660F771F41
:104A0000881FDAF7880F9695879597F908959F3F45
:104A100031F0915020F4879577956795B795880F79
:104A2000911D9695879597F90895CF93DF938230DE
:104A3000910510F482E090E0E091C322F091C4224D
:104A400020E030E0A0E0B0E0309739F140815181C2
:104A500048175907B8F04817590771F482819381B4
:104A6000109729F012968D939C9313972CC08093E6
:104A7000C3229093C42227C02115310531F042177B
:104A8000530718F0A901DB0101C0EF019A01BD0134
:104A9000DF010280F381E02DD7CF21153105F9F038
:104AA000281B390B2430310580F48A819B816115E4
:104AB000710521F0FB018283938304C08093C3229C
:104AC0009093C422FE01329644C0FE01E20FF31F10
:104AD0008193919322503109288339833AC02091E0
:104AE000C1223091C222232B41F420910220309127
:104AF00003202093C1223093C222209100203091C4
:104B000001202115310541F42DB73EB74091042015
:104B100050910520241B350BE091C122F091C22257
:104B2000E217F307A0F42E1B3F0B2817390778F084
:104B3000AC014E5F5F4F2417350748F04E0F5F1FE3
:104B40004093C1225093C2228193919302C0E0E02E
:104B5000F0E0CF01DF91CF910895CF93DF930097DD
:104B600009F487C0FC01329712821382C091C322DC
:104B7000D091C422209781F420813181280F391FE0
:104B80008091C1229091C2228217930779F5E09318
:104B9000C122F093C2226DC0DE0120E030E0AE17EA
:104BA000BF0750F412964D915C9113979D014115EA
:104BB000510509F1DA01F3CFA283B383408151811A
:104BC000840F951F8A179B0771F48D919C91119703
:104BD000840F951F02968083918312968D919C91EC
:104BE0001397828393832115310529F4E093C3221F
:104BF000F093C4223EC0D9011296ED93FC93139713
:104C00004D915D91A40FB51FEA17FB0779F48081E0
:104C10009181840F951F0296D9018D939C931197D2
:104C20008281938112968D939C931397E0E0F0E03C
:104C30008A819B81009719F0FE01EC01F9CFCE012A
:104C4000029628813981820F931F2091C1223091D1
:104C5000C2222817390769F4309729F41092C32229
:104C60001092C42202C012821382C093C122D09338
:104C7000C222DF91CF910895DC0101C06D934150B4
:104C80005040E0F708950F931F93CF93DF93EC010B
:104C90008B01009731F46115710519F480E090E003
:104CA00037C06EE070E081E090E07CD0FC010097BE
:104CB000A9F380E883830115110571F0028713873A
:104CC00081E883838091C5229091C622892B21F4AB
:104CD000E093C522F093C6222097C9F0C087D18700
:104CE0008381826083838091C7229091C822892B1F
:104CF00071F4E093C722F093C8228091C922909169
:104D0000CA22892B21F4E093C922F093CA22CF0151
:104D1000DF91CF911F910F91089538D060817181FB
:104D200082819381089532D0808191810895262FC8
:104D3000E0ECF1E0378537FDFDCF3485377F3487F0
:104D4000378531FF09C036E3328738ED34BF31E0B3
:104D50003387378537FDFDCF33E3328780839183F7
:104D60001282248325E3228728ED31E024BF338794
:104D700001960895242FDCDF252FDADF00C0D7DF6E
:104D8000272FD6CF03D0808199270895E0ECF1E05A
:104D9000378537FDFDCF348538603487FC01E0501E
:104DA000F04F08950F931F93CF93DF93869F800159
:104DB000879F100D969F100D1124C80136DEEC015F
:104DC000009721F0A80160E070E056DFCE01DF918E
:104DD000CF911F910F910895F894FFCF0000CB223F
:104DE0002000C800000003100601000018000000A9
:104DF00000000000000000000000000000000000B3
:104E0000000000083000000000000000000000006A
:104E1000000000000000000000000000C2010003CC
:104E200000000000A00978004010BA284010D626E3
:104E3000260F6C106020E80018082A254010280072
:104E40004410280040108000804000008040BC0BCF
:104E5000A40B8C0B740B5C0B63064306C405450561
:104E6000C60447040B04E403A90368033003F302F8
:104E7000A8027E023102EA010010408120A0A4A60F
:104E8000A83FAD8AAEC8D300D520DA12DB00D92204
:104E9000AF35071907FD06DF06C106A306101C1C67
:104EA0001E1E1EB605D405F20510062E064C066A17
:104EB00006880690012F028D0020039001BC025845
:104EC0000284030807B004C409FC083011FC08F090
:104ED0000A30112823100EE8035014901A3818884D
:104EE00013E02E3C02DE017800A80254014E02F4C9
:104EF00001F302E605D103A30827082B114B0A7E14
:104F00000E901FE65F7047BE079A1F491B3F11D2E4
:104F10000A7E1322231FAC0A6C0A2C0A0C0AEC0925
:104F20001020201010862810101027E80364000AB3
:104F30000001006E1A121E00FFFFFFFFFFFFFFFFC0
:104F4000FFFFFFFFFFFFFFFFFFFFFFFFFFFFFFFF71
:104F5000FFFFFFFFFFFFFFFFFFFFFFFFFFFFFFFF61
:104F6000FFFFFFFFFFFFFFFFFFFFFFFFFFFFFFFF51
:104F7000FFFFFFFFFFFFFFFFFFFFFFFFFFFFFFFF41
:020000021000EC
:00000001FF
