:100000000C94D30B0C94F20B0C94F20B0C94F20B9B
:100010000C94F20B0C94F20B0C94F20B0C94F20B6C
:100020000C94F20B0C94F20B0C94504F0C946D4FFB
:100030000C94F20B0C94A6120C94E84F0C941550EF
:100040000C9442500C946F500C949C500C94C950DA
:100050000C94F6500C9423510C9450510C947D51F7
:100060000C94F20B0C945D4E0C94F20B0C94F20B6E
:100070000C94F20B0C94F20B0C94F20B0C94F20B0C
:100080000C94F20B0C94F20B0C94F20B0C94F20BFC
:100090000C94F20B0C94F20B0C94F20B0C94F20BEC
:1000A0000C94F20B0C94F20B0C94F20B0C94EC2EBF
:1000B0000C94F20B0C94F20B0C94CD120C94B852DD
:1000C0000C94E5520C9412530C943F530C946C53C3
:1000D0000C9499530C94F20B0C94F20B0C94F20BBD
:1000E0000C94F20B0C94F20B0C94F20B0C94F20B9C
:1000F0000C94F20B0C94F20B0C94F20B0C94F20B8C
:100100000C94102F0C94F20B0C94261F0C94F20BF1
:100110000C94F20B0C94F20B0C94F20B0C94F20B6B
:100120000C94F20B0C94F20B0C94F20B0C94F20B5B
:100130000C94F20B0C94AA510C94D7510C940452C9
:100140000C9431520C945E520C948B520C94F20B22
:100150000C94F20B0C94F20B0C94F20B0C94F20B2B
:100160000C9453260C94F20B0C94F20BB4314332E2
:100170004332433242320E32003243327C31433218
:100180004332433224324332433298314332433292
:1001900043324332433243324332433243324332B7
:1001A00043324332433243324332433243324332A7
:1001B000433243324332D431B83107634236B79BBE
:1001C000D8A71A39685618AEBAAB558C1D3CB7CCB7
:1001D0005763BD6DEDFD753EF6177231BF0000002F
:1001E000803F08000000BE922449123EABAAAA2A12
:1001F000BECDCCCC4C3E00000080BEABAAAAAA3E2D
:1002000000000000BF000000803F00000000000868
:100210004178D3BB4387D1133D190E3CC3BD428205
:10022000AD2B3E68EC8276BED98FE1A93E4C80EFC3
:10023000FFBE01C4FF7F3F0000000000200010202F
:1002400008800100100010200880010001FC10202F
:1002500008840100FC441040108801000844FC4858
:1002600010903FF81044248430A02108104425FE4B
:1002700030C021083444248250802108584424008E
:1002800091802108944448FC128021081444288459
:1002900014803FF810841084108221081084288470
:1002A000108201001104448410820100122880FC95
:1002B000107E01001410008410000100007C00007A
:1002C000008200000101000007008280088082C0D7
:1002D000104142E01002228010002E80080046806B
:1002E00007FF828000402040084040403F7E084099
:1002F00027FC489010402040850823FC03F80100AB
:10030000484000403FF80840E7FE010017FE20008B
:100310000100301023F8FFFE50102208000097FE65
:1003200023F80020101022087FFC12102BF8082060
:100330001110320804201110222804A010500210BD
:10034000004010200000000000100100010000002B
:10035000000000F800800100000000003F001FFCCA
:100360000100D67CFC7C01001004010092104210B8
:10037000FFFE10043FF892104810010010042108FD
:10038000921048101FF01FFC2108921078101110D5
:1003900010002108AA1048101FF010002108AA1010
:1003A00048101110100021086C1040101FF017FCAD
:1003B0003FF844104010010024042108441040106C
:1003C0003FF824040100447CE07C01004404010067
:1003D00000000000FFFE87FC01000000000000009C
:1003E0000404010000000000000FE00000082000ED
:1003F00000082080000820C0000827E00008200036
:10040000000FE7E000092300000FE1003C66E7E78A
:10041000E7FF663C00000000000000000000000054
:10042000000000FCEE3C007E426C420040426C4208
:100430000040426C420040426C0400587C5404006E
:10044000644054080002405410000240542000420E
:100450004054426044E0D67E603800000000000056
:1004600000000000000000443FF8FE44210828FE80
:10047000210828442108FE103FF8AA282108AA4490
:100480002108AA822108AE7C3FF8C2102108821000
:100490000100FE7C01008210010082100100FEFEBE
:1004A000010082000000010027F8008014083FFED0
:1004B0001408222087F8222044083FFC4408222008
:1004C00017F82220112023E021202000E9242FF01A
:1004D0002528241023304220212041C02FFE8630C1
:1004E0000000380E0000010023F8008012083FFED3
:1004F0001208222083F8222042083FFC42082220D2
:1005000013F82220100023E027FC2000E4A42FF0A1
:1005100024A4241024A4422024A441C02FFE863009
:100520000000380E03FFFFFFFFFC07FFFFFFFFFE89
:100530000FFFFFFFFFFF0E00000000070E0000008E
:1005400000070E7F3F9FCFE70E7F3F9FCFE70E7FD5
:100550003F9FCFE77E7F3F9FCFE7FE7F3F9FCFE765
:10056000CE7F3F9FCFE7CE7F3F9FCFE7CE7F3F9F9E
:10057000CFE7CE7F3F9FCFE7FE7F3F9FCFE77E7FD6
:100580003F9FCFE70E7F3F9FCFE70E7F3F9FCFE795
:100590000E7F3F9FCFE70E00000000070E00000017
:1005A00000070FFFFFFFFFFF07FFFFFFFFFE03FF37
:1005B000FFFFFFFC03FFFFFFFFFC07FFFFFFFFFE46
:1005C0000FFFFFFFFFFF0E00000000070E000000FE
:1005D00000070E003F9FCFE70E003F9FCFE70E00C2
:1005E0003F9FCFE77E003F9FCFE7FE003F9FCFE7D3
:1005F000CE003F9FCFE7CE003F9FCFE7CE003F9F8B
:10060000CFE7CE003F9FCFE7FE003F9FCFE77E00C2
:100610003F9FCFE70E003F9FCFE70E003F9FCFE702
:100620000E003F9FCFE70E00000000070E00000005
:1006300000070FFFFFFFFFFF07FFFFFFFFFE03FFA6
:10064000FFFFFFFC03FFFFFFFFFC07FFFFFFFFFEB5
:100650000FFFFFFFFFFF0E00000000070E0000006D
:1006600000070E00001FCFE70E00001FCFE70E00AF
:10067000001FCFE77E00001FCFE7FE00001FCFE77F
:10068000CE00001FCFE7CE00001FCFE7CE00001F37
:10069000CFE7CE00001FCFE7FE00001FCFE77E00B0
:1006A000001FCFE70E00001FCFE70E00001FCFE7AF
:1006B0000E00001FCFE70E00000000070E00000034
:1006C00000070FFFFFFFFFFF07FFFFFFFFFE03FF16
:1006D000FFFFFFFC03FFFFFFFFFC07FFFFFFFFFE25
:1006E0000FFFFFFFFFFF0E00000000070E000000DD
:1006F00000070E0000000FE70E0000000FE70E00DD
:1007000000000FE77E0000000FE7FE0000000FE78B
:10071000CE0000000FE7CE0000000FE7CE00000083
:100720000FE7CE0000000FE7FE0000000FE77E009D
:1007300000000FE70E0000000FE70E0000000FE7BB
:100740000E0000000FE70E00000000070E00000082
:1007500000070FFFFFFFFFFF07FFFFFFFFFE03FF85
:10076000FFFFFFFC03FFFFFFFFFC07FFFFFFFFFE94
:100770000FFFFFFFFFFF0E00000000070E0000004C
:1007800000070E00000000070E00000000070E002A
:10079000000000077E0000000007FE0000000007C8
:1007A000CE0000000007CE0000000007CE000000D1
:1007B0000007CE0000000007FE00000000077E00DA
:1007C000000000070E00000000070E0000000007F8
:1007D0000E00000000070E00000000070E000000E1
:1007E00000070FFFFFFFFFFF07FFFFFFFFFE03FFF5
:1007F000FFFFFFFC00000000030000000100048078
:10080000000001000080000002000100B9C3A25CEA
:10081000E080C6246263148084242442130084246C
:100820002442100084242442100084242442100016
:100830008424684210008423A84210000000200095
:1008400000000004200000000003C00000000000C1
:1008500000022000FFFE0FE220008104028FFE0054
:1008600081040282A00081040AF2A00081040FA08A
:10087000C000FFFC0AA1200081040AA2100081042C
:100880000AA40C0081040CA80418FFFC0CE7F8185B
:1008900081040820800001000820800001000FE78B
:1008A000F000010008208000010008208000010005
:1008B0000FE080180100082FFC180100082000003C
:1008C0006000900097E868181008100810001000E9
:1008D000100010001008081007E0300048104820F1
:1008E000484048804900320004C0092011202120DE
:1008F0004120812000C0000001000023F80080009A
:1009000012083FFE00120822200083F82220004235
:10091000083FFC00420822200013F82220001000AB
:1009200023E00027FC200030E4A42FF03024A4248E
:10093000100024A442203024A441C0302FFE863071
:10094000000000380E00000001000027F8008000C1
:1009500014083FFE00140822200087F822200044DB
:10096000083FFC00440822200017F8222000112034
:1009700023E0002120200030E9242FF03025282416
:1009800010002330422030212041C0302FFE86301D
:10099000000000380E000800001001000000208058
:1009A00009FC00F8008023F8108008443F003FFE57
:1009B000100003F07E440100222010004090084403
:1009C000FFFE222080002110089401003FFC47FE1A
:1009D0000912FF081FF022204080121208FC11109B
:1009E00022201080640E28841FF023E011002900CB
:1009F00028841110200021F801002E841FF02FF010
:100A0000E008FFFE28FC0100241020080540280013
:100A10003FF84220200809205800010041C020086A
:100A200031184FFEFFFE86302050C10680000000C6
:100A3000380E0020010000002002000000410000EC
:100A40000001F0010047F0210000007E007FFC2043
:100A50000007E0000002004440200081200001FF68
:100A6000FC444100004220000002007FF88FFC128D
:100A70002400003FE0444081002424000022204460
:100A8000402100C81C00003FE047C0220052000087
:100A9000002220400043F0020000003FE05FE1C080
:100AA00011FFFC00000200482040100A8000007F77
:100AB000F084404010124000000200838040106229
:100AC000300001FFFD0C6040A1820C0000000070AE
:100AD0001C00400200000002000200000041000073
:100AE000000200010047F02100000002007FFC200E
:100AF0000007E00000020044402000812000007F49
:100B0000F0444100004220000042107FF88FFC12A8
:100B1000240000421044408100242400004210447C
:100B2000402100C81C0000421047C02200520000B3
:100B3000004210400043F0020000007FF05FE1C07F
:100B400011FFFC00004210482040100A8000000203
:100B50000084404010124000000200838040106278
:100B600030000002010C6040A1820C000002007005
:100B70001C00400200000020000100000020800056
:100B80000021FC008023F81080000020083FFE10A8
:100B90000003F00000FC10222010004090000040F4
:100BA00030222080002110000050483FFC47FE0901
:100BB00012000090842220408012120000FF0222C6
:100BC000201080640E0000100023E01100290000B6
:100BD0000011FC200021F8010000001C202FF0E093
:100BE00008FFFE0000F020241020080540000050FF
:100BF000204220200809200000102041C020083198
:100C000018000013FE86302050C106000010003886
:100C10000E00200100000008200080080000A00055
:100C2000000820008008FE209000001FBF0140083F
:100C3000001090000024480220080011FF0000422C
:100C40008404107E00011000000408180C09FF0B3A
:100C5000100000040867F318100DFE000009FF00E3
:100C6000001C1009100000180800002A9411100040
:100C70000028880FF82A9211FE0000484808084909
:100C8000127110000008480808091111100000082E
:100C90000808080A111110000008080808081011B7
:100CA000FF000008280FF808501100000008100885
:100CB000080820010000000020801000000400232C
:100CC000F8108013FC7F0400100003F0208441041E
:100CD00000100040902088412400800021104888A6
:100CE00041240047FE0912F8907F24004080121230
:100CF000109C1024001080640E2084102400110029
:100D000029004144FF240021F80100F94411243056
:100D1000E008FFFE41281124302008054001281179
:100D20002400200809201A1021043020083118E27C
:100D3000282104302050C10644444A1400002001F8
:100D40000001828408001000104013FC1040108441
:100D500010401088FDF8FC88104810901048309C16
:100D60001CC8388430485544D0AA554410AA91284C
:100D7000510611282202121000001228488814443B
:100D80004444118284442000104017FC10400004A9
:100D900010404204FDF84104104841041048440446
:100DA0001CC8542430485414D0AA645410AA444493
:100DB000510643C422024004000040044888401405
:100DC000444440088444108010401040104017FCF8
:100DD00010402404FDF82404104867FC1048640007
:100DE0001CC8A400304827FCD0AA26A410AA2AA414
:100DF00051062BFC22022AA400002AA4488832A40F
:100E00004444220C84441000007811F823C02808C0
:100E1000104044501040822007FE7C10004013FE1A
:100E2000F040102213F8FE2412081020120810209F
:100E300012087C2013F844201208442028007CA0CB
:100E400047FE44400000108000401040404017FC26
:100E500020A0240420A02404011067FC02486400A0
:100E60001426A400102027FC23F826A4E0082AA4B6
:100E700020102BFC21102AA420A02AA4204032A458
:100E80002020220C002002000040010040407FFE94
:100E900020A0444220A09FF40110044002483FF8E3
:100EA000142604401020FFFE23F80820E008131049
:100EB000201020882110C04620A00600204001807C
:100EC0002020004000201000004013FC404010840F
:100ED00020A0108820A0FC88011010900248309CAF
:100EE000142638841020554423F85544E0089128EE
:100EF000201011282110121020A012282040144484
:100F00002020118200200200100010000078010053
:100F1000000100100011F823C00080007FFE3FFC9C
:100F2000280810403FFE004002200044501040229C
:100F3000200088244FF0822007FE2220001010801D
:100F4000007C1000403FFC0020083FF013FEF04002
:100F500022200000000010102213F82220001FF0B1
:100F60000010FE24120823E00001000010102012DF
:100F70000820003001000010102012082FF030016E
:100F80000000107C2013F82410000100000A442007
:100F900012084220300100000A4420280041C030DD
:100FA0007FFC00067CA047FE863000000000024463
:100FB000400000380E0000003E0000003F800000AE
:100FC00001C0000000E000003C6000003E30000076
:100FD00007300000033000003330000033300200DF
:100FE0001000007C000000010010003FC01FF00056
:100FF0007FFE3FFC20401010004002200020401FD8
:10100000F00088244FF03FFE1010001010800020E8
:1010100040FFFE0020083FF02040000000000000DC
:101020001027FC1FF0001FF0001024041110000115
:1010300000001024441FF03001000010244411105F
:10104000300100001024441FF0000100000A24B405
:101050000100300100000A41081FF0307FFC00064B
:1010600046040100000000000298027FFC0081039A
:10107000168202030415161783020405141517843B
:1010800002050613141785020613178E02178F0325
:101090000405169004159105141516921417931350
:1010A000179C061314179D051415179E0415161783
:1010B0009F0316A0FF810317820203041783020413
:1010C0000517840205061785020613178E02178F6F
:1010D00003040516900415910304051415169202D5
:1010E00005141793020613179C0205061314179D87
:1010F0000204051415179E0203041516179F031604
:10110000A0FF810216820316830416840516851239
:10111000168D13168E14158F9014159113169212A6
:10112000169D13169E14169F1516A0FF8103168296
:1011300002030415830204051484020506138502C4
:10114000068E02148F0304051590041591030405FF
:10115000141516920205141793020613179C020524
:10116000061314179D0204051415179E0203041597
:1011700016179F0316A0FF8103168202030415832E
:10118000020405148402138502068E02148F0304E0
:10119000051590041591051415169214179313173D
:1011A0009C061314179D051415179E041516179FFA
:1011B0000316A0FF8102038202041617830205159D
:1011C00017840206141785020613178E02178F0361
:1011D000040516900415910514151692141793130F
:1011E000179D14179E15179F1617A0FF81021582D1
:1011F000031415168304131416840512131685128E
:10120000168E041213168F041314159004149104EF
:101210001214159213169312169C051213169D04A0
:101220001314169E031415169F0215A0FF810316B2
:1012300082041516178305141517840617851317CE
:101240008E05178F0516900515910304051492025B
:10125000059302069C020506139D020405149E02D6
:101260000304159F0316A0FF810708820608830563
:10127000088404088E05088F0607909106079205DA
:10128000089304089D05089E06089F0708A0FF8193
:10129000021785020613178D020513178E03041516
:1012A000168F900304151691020514179202061367
:1012B000179C0205061314179D0204051415179EAA
:1012C0000203041516179F0316A0FF00000010006C
:1012D0000020807FFC00F823F8108002403F0010BF
:1012E0000003F012480100100040900A50FFFE80F9
:1012F0000021100240010047FE09123FFE1FF0408E
:10130000801212200011101080640E20001FF011B6
:101310000029002000111021F8010020001FF0E03A
:1013200008FFFE200001002008054020003FF820B3
:1013300008092040000100200831184000FFFE206D
:1013400050C10680000000002001001001000000D4
:10135000208000F8008023F810803F003FFE10003E
:1013600003F00100222010004090FFFE22208000A8
:10137000211001003FFC47FE09121FF0222040808F
:101380001212111022201080640E1FF023E01100B1
:1013900029001110200021F801001FF02FF0E008B3
:1013A000FFFE01002410200805403FF842202008DD
:1013B0000920010041C020083118FFFE863020506E
:1013C000C1060000380E00200101000100000020CD
:1013D000800100008023F8108001003FFE10000310
:1013E000F001002220100040903FF82220800021D0
:1013F0001021083FFC47FE091221082220408012DC
:1014000012210822201080640E210823E0110029F7
:10141000002108200021F801003FF82FF0E008FF2C
:10142000FE21082410200805400100422020080960
:1014300020010041C020083118010086302050C131
:10144000060100380E00200120000100000020806D
:1014500021FC008023F8108020083FFE100003F0DC
:10146000FC102220100040904030222080002110EB
:1014700050483FFC47FE09129084222040801212FF
:10148000FF0222201080640E100023E011002900CA
:1014900011FC200021F801001C202FF0E008FFFEC5
:1014A000F020241020080540502042202008092068
:1014B000102041C02008311813FE86302050C1068C
:1014C0001000380E002001020001003FF020102023
:1014D000103FF0201020103FF02208211020A02003
:1014E00040242028183006089008880888108017A3
:1014F000FE30A030A050A090A010A0112011221109
:10150000221222121E140000000000300000100001
:101510004800001000080000200010423A25CE08C4
:101520004246263148424244213042424421004250
:1015300042442100424244210066468421005A3A36
:1015400084210040020000004042000000403C7F37
:10155000C7878F8003FC0030638710C003FC003016
:101560003387206002000030338730600200303063
:1015700032CB30600200303032CB006002000030ED
:1015800032CB00C002F0003062CB00C00318003F35
:10159000C2D30180020C003002730200000C003044
:1015A00002730400000C003002730820060C0030A7
:1015B00002731020060C0030022320230418003090
:1015C00002233FE3021830780727BFE301F0300021
:1015D00000000000000000000000000000FFFFFF0E
:1015E000FFF0000000000001000000000800000003
:1015F0000000021CE71C1F04000000000002084855
:1016000088088400000000000208504808440000D8
:1016100000000002085048084400000000000208D2
:10162000504808440000000000020FD04808440061
:1016300000000000020850480844000000000002BA
:1016400008504808440000000000020850480844C0
:1016500000000000000208488848840000000000E4
:10166000021CE71FDF040000000000010000000072
:1016700008000000000000FFFFFFFFF00000000076
:1016800000000000000000000003FFFFFFFFE0007B
:10169000000004000000001000000008739C707C33
:1016A0000800000008212220220800000008214133
:1016B0002021080000000821412021080000000826
:1016C0002141202108000000083F4120210800009E
:1016D00000082141202108000000082141202108A4
:1016E00000000008214120210800000008212221DB
:1016F000220800000008739C7F7C080000000400A2
:101700000000001000000003FFFFFFFFE000003FAB
:10171000FFF02000102F7BD0EEF790ADEF50ABDE46
:10172000D0E7BDD02F7BD02000103FFFF03FFFF06F
:10173000200010207BD0E0F790A1EF50A3DED0E78F
:10174000BDD02F7BD02000103FFFF03FFFF02000E6
:10175000102003D0E00790A00F50A01ED0E03DD095
:10176000207BD02000103FFFF03FFFF02000102032
:101770000010E00010A00050A000D0E001D0200335
:10178000D02000103FFFF03FFFF02000102000109D
:10179000E00010A00010A00010E0001020001020B9
:1017A00000103FFFF00011241FBECFEFCDBFDFE2DE
:1017B000DEBF17E2A0E0B0E2E0E8FFEB00E00BBF25
:1017C00002C007900D92A436B107D9F72CE2A4E627
:1017D000B7E201C01D92A834B207E1F70E94292F99
:1017E0000C94BE5F0C9400000F931F93CF93DF9374
:1017F000CDB7DEB72A97CDBFDEBF8C0180E092E087
:1018000010D5882351F080E092E0F8D420E030E059
:101810002F5F3F4F25333105D9F7AE014F5F5F4F43
:1018200061E080E092E082D5BE016B5F7F4F80E097
:1018300092E040D50230110551F48D81897E80619E
:101840008D838E818F788E8387E0888714C08D8109
:10185000897E80618D838E818F7880628E8382E025
:1018600088870031110538F019820051000F000FF0
:10187000000F0A8306C081E08983000F000F000F6C
:101880000A83BE016B5F7F4F80E092E0D6D4AE0149
:101890004F5F5F4F61E080E092E02CD580E090E008
:1018A000019685339105E1F72A96CDBFDEBFDF9122
:1018B000CF911F910F91089580E092E0B2D48111F1
:1018C00009C080E092E083D480E090E00196853307
:1018D0009105E1F78FB7F894E0E0F2E09081946031
:1018E00090838FBF868180FFFDCFE0E0F2E081E052
:1018F000868384A195A199231CF4919581959109E2
:10190000089540E46AEE78E28AEE9AE20E94C94EB7
:1019100040E46AEE79E280EF9AE20C94C94E0895B1
:10192000CF92DF92EF92FF92CF93DF9383E090E02C
:101930005BDF80E092E04BD480E090E0019685335D
:101940009105E1F7C0E0D0E4C12CD12C7601B4DFE1
:10195000AA2797FDA095BA2FC80ED91EEA1EFB1E16
:1019600021972097A1F780E092E048D480E090E0B2
:10197000019685339105E1F70B2EBEE0F694E794CE
:10198000D794C794BA95D1F7B02D85E0C80ED11C75
:10199000E11CF11CC0920620D0920720E0920820A2
:1019A000F0920920DF91CF91FF90EF90DF90CF90E0
:1019B00008952F923F924F925F926F927F928F92F3
:1019C0009F92AF92BF92CF92DF92EF92FF920F93CE
:1019D0001F93CF93DF93CDB7DEB76A97CDBFDEBF3E
:1019E0004C016B874C874111F8C140900620509004
:1019F0000720662E712C6D867E8661147104C1F0FD
:101A0000FC01C301880F991F9C01220F331F220F75
:101A1000331F220F331F280F391F80E090E01286FA
:101A20001386148615864296729682179307B9F725
:101A300080E092E0F6D3882349F080E092E0DED3A4
:101A400080E090E0019685339105E1F783E090E036
:101A5000CBDE80E092E0BBD380E090E0019685335E
:101A60009105E1F78FB7F894E0E0F2E0908194609F
:101A700090838FBF8D859E85880F991F9C01220FB3
:101A8000331F220F331F220F331F3C01620E731EC0
:101A90006B8A7C8A5201612C6894772473F800E089
:101AA00010E019821A821F821886C12CD12C898AD3
:101AB0009A8A2B883C8896018F86988A80910602A4
:101AC00080FFFCCF41E04093060280912402909178
:101AD00025028090240290902502A4018FB7F894EB
:101AE000A0E0B2E09C9194609C938FBF21153105DA
:101AF00069F4BEE14B0E511C481459040CF0DCC0D3
:101B0000A814B9040CF4E4C22501E2C02130310567
:101B100009F0E0C26401EE24D7FCE094FE2C809131
:101B2000062090910720A0910820B09109208B8376
:101B30009C83AD83BE83C816D906EA06FB0608F46B
:101B4000D0C26F817885680D791D641575050CF418
:101B5000C8C2B40168517C4F641575050CF4C1C24C
:101B60008A149B040CF4C8C24114510409F4C5C280
:101B700069817A817695679576956795769567956B
:101B8000E981FA81E61BF70B8E169F0608F4A8C2BE
:101B9000B4C22501F401E419F509EF83F88721E0C7
:101BA00030E019821A8200E010E092C04B815C8123
:101BB0006D817E81E981FA814E0F5F1F611D711D6C
:101BC0004C155D056E057F0538F4F4014B815C8191
:101BD000E41BF50BE983FA830F5F1F4F79C02330B5
:101BE000310509F075C08D859E85892B09F466C085
:101BF000E981FA816F01E12CF12CD801A70196014E
:101C00000E945C569B01AC01C701B6010E94F655CB
:101C10009B01AC01012E1CE0569547953795279501
:101C20001A95D1F7102D2B833C834D835E838FEF64
:101C30009FEFAFEFBFE7821B930BA40BB50B298976
:101C40003A8940E050E0B4016C017D01D9016F8A0E
:101C5000788E498E5A8E8F859889AD8BBE8B2C914C
:101C600030E00217130708F19C01240F351FF9011A
:101C7000218130E002171307C0F41A968D909D90D1
:101C8000AD90BC901D978C149D04AE04BF0468F405
:101C90004B805C806D807E80840C951CA61CB71CDC
:101CA000FD0182869386A486B5864E5E5F4F52966E
:101CB0004215530591F605C025010AC020E030E029
:101CC00007C04B016F88788C498C5A8C20E030E03B
:101CD000F1E06F1A71086114710411F05401EECE35
:101CE0008F849888E0E0F2E0868180FFFDCFE0E01D
:101CF000F2E081E0868384A195A184A195A180E092
:101D000092E07CD280E090E0019685339105E1F786
:101D100084E090E069DD80E092E059D280E090E0DC
:101D2000019685339105E1F720E830E080E090E00E
:101D3000DC01E0E0F2E061E04FB7F89450815460DC
:101D400050834FBF468140FFFDCF668344A155A11C
:101D500044A155A1840F951FA11DB11D215031092A
:101D60002115310549F7689416F8B595A79597950B
:101D700087951694D1F76C017D0122E7C21A26E0FF
:101D8000D20AE108F1084D845E84452819F1F40176
:101D900020E030E04B895C89D701C601181619068E
:101DA0001A061B0654F4072E7BE0880F991FAA1F02
:101DB000BB1F7A95D1F7702D03C080E090E0DC0165
:101DC00086879787A08BB18B2E5E3F4F7296241724
:101DD000350721F780E092E011D25B84552009F4A9
:101DE00094C10AEE1AE20F2EFFEE2F2EFAE23F2EDA
:101DF000F02D0F2EFAEE6F2EF8E27F2EF02D1982C5
:101E000024012C85222359F0D20116961D921D9291
:101E10001D921C921997F8011382128248C1D801B1
:101E200013964C91139712963C9112975101F10120
:101E30002081431B42233291CF01431310C01396DC
:101E40004C91139712963C911297431741F01296BA
:101E50003C9112973F5F232312962C9312974D8645
:101E60005E86F201C284D384E484F5844685578576
:101E7000608971894C0D5D1D6E1D7F1D1396FC9050
:101E8000139712963C911297F5012081F31AF222D2
:101E9000FC013081F316C1F013963C9113972695FF
:101EA0002323ED91FC91119784E0289FE00DF11D13
:101EB000112440835183628373833F5FF501208146
:101EC000322313963C931397F30120E460E070E013
:101ED000CB014D855E85C190D190E190F1906C0D64
:101EE0007D1D8E1D9F1D2150B1F74D875E87139676
:101EF000CC90139712962C91C21AD5012C91C22224
:101F00002C2D30E040E050E00E941856ED85FE8513
:101F1000228733874487558786819781A085B1853D
:101F200082179307A407B507A4F4828193810196D1
:101F30008F3FFFEF9F0710F08EEF9FEFAD85BE85BF
:101F400012968D939C93139714961D921C9215973D
:101F500015C0ED85FE858481958101968F3FFFEF49
:101F60009F0710F08EEF9FEFAD85BE8514968D9381
:101F70009C93159712961D921C921397AD85BE8562
:101F80001A962D913D914D915C911D972B833C8329
:101F90004D835E831696CD90DD90ED90FC90199761
:101FA00049015A018C189D08AE08BF08C501B4014B
:101FB0003AF466277727CB01681979098A099B09C2
:101FC0006F83788789879A870E9493572CEA35EC2C
:101FD00047EA56E30E948F584B015C01ED85FE8570
:101FE00082819381648175816817790708F4BC0147
:101FF000660F771F660F771F6F5F7F4F80E090E05F
:102000000E9491579B01AC01C501B4010E948F58F9
:102010004B015C018F819885A985BA850196A11D28
:10202000B11DBC01CD0195958795779567950E9467
:102030009357A50194010E94CE574B015C012B815F
:102040003C814D815E81C216D306E406F5069CF400
:10205000C701B6010E949357A50194010E949056B2
:102060000E946057AD85BE8516966D937D938D93C6
:102070009C93199710C0C701B6010E949357A50100
:1020800094010E948F560E946057ED85FE856683FD
:10209000778380879187C501B4010E946057AD8521
:1020A000BE851A966D937D938D939C931D97B981F0
:1020B000BF5FB983E2E14E0E511C0A5F1F4FF6E08D
:1020C0002F0E311C73943B85B3139BCE1EC052015F
:1020D000250160CD2230310509F45BCD25017FCD8E
:1020E00052018F8198858A0D9B1D8417950784F373
:1020F000250123E030E073CD25016F817885640DE3
:10210000751D641775071CF351CD6A96CDBFDEBFF0
:10211000DF91CF911F910F91FF90EF90DF90CF90C3
:10212000BF90AF909F908F907F906F905F904F90F7
:102130003F902F900895CF93DF931F92CDB7DEB7D6
:102140008091FA2A9091FB2AE091F62AF091F72AE1
:10215000BE016F5F7F4F09958981992787FD909513
:102160000F90DF91CF910895682F8091FA2A909176
:10217000FB2AE091F82AF091F92A099599231CF499
:102180008FEF9FEF089581E090E0089581159240D0
:1021900069F48091642791E0980F909364278111EE
:1021A00005C062E081E090E00C94B44E0895811582
:1021B000924061F48091642781508093642781115B
:1021C00005C062E081E090E00C94BF4E08951F933B
:1021D000CF93DF93EC011FB7F894D8DF888181603B
:1021E00088831FBF8FB7F894E1E3FCE290819F5F83
:1021F00090838FBFDF91CF911F910895CF93CFB779
:10220000F894FC0120812E7F2083D1DFCFBF8FB7D0
:10221000F894E1E3FCE29081915090838FBFCF91DD
:1022200008958115924039F481E0909164279111CD
:1022300003C080E0089580E00895DF92EF92FF925E
:102240000F931F93CF93DF93EC018B01C11582E0B5
:10225000D80741F561E270E082E0C1D0E82EF12CB0
:1022600060E270E082E0BBD0FE2CEE24E82ADFB60C
:10227000F894CE018BDF2881217082E08883EC8680
:10228000FD86F80184819581888F998F81818A8369
:1022900083818C8382818B83808189832883CE0193
:1022A00086DFDFBEDF91CF911F910F91FF90EF90FE
:1022B000DF900895FF920F931F93CF93DF93EC016C
:1022C0008B01FFB6F89462DF888D998DF8018483C5
:1022D00095838A8181838C8183838B8182838981A9
:1022E0008083CE0164DFFFBEDF91CF911F910F91FC
:1022F000FF900895FF920F931F93CF93DF93EC010C
:102300008A01FFB6F89442DFF801808188A38281B8
:102310008AA3818189A383818EA3CE0148DFFFBE7A
:10232000DF91CF911F910F91FF900895FF920F932E
:102330001F93CF93DF93EC018A01FFB6F89426DF59
:1023400088A1F80180838AA1828389A181838EA1DB
:102350008383CE012CDFFFBEDF91CF911F910F91C0
:10236000FF900895CF93DF93EC0168E070E082E086
:1023700036D0888369E070E082E031D089836AE0FA
:1023800070E082E02CD08A836BE070E082E027D09E
:102390008B836CE070E082E022D08C836DE070E093
:1023A00082E01DD08D8360E170E082E018D08E83E2
:1023B00062E170E082E013D08F8363E170E082E03D
:1023C0000ED0888764E170E082E009D0898765E1FA
:1023D00070E082E004D08A87DF91CF910895409128
:1023E000CA01E62FF72F8093CA0184914093CA0156
:1023F0000895CF93DF93E0916527F091662784815C
:1024000083FF0BC08860848383E0838386EF9FEF24
:1024100080936F279093702796C0982F947149F0FE
:1024200083E083838FEF9FEF80936F2790937027D4
:102430008AC086FF47C0A0916727B0916827809126
:10244000692790916A2714962D913C9115978217D0
:1024500093076CF49C012F5F3F4F209369273093C3
:102460006A27A80FB91F11968C9187836CC0809141
:102470006B2790916C2718962D913C911997821794
:102480009307C8F420916D27222321F08681816073
:10249000868359C016962D913C911797AC014F5FDA
:1024A0005F4F40936B2750936C27D901A80FB91F3A
:1024B0008C91878348C083E0838310926F271092AA
:1024C000702741C08823CCF5A0916727B091682779
:1024D00080916B2790916C2718962D913C911997BC
:1024E0008217930708F516964D915C9117979C01FA
:1024F0002F5F3F4F20936B2730936C276781EA0152
:10250000C80FD91F688318968D919C911997281729
:10251000390718F482E0838316C087E08383109222
:102520006F27109270270FC083E0838389EF9FEF9E
:1025300080936F279093702706C08BEF9FEF809357
:102540006F2790937027DF91CF9108951F920F927C
:102550000FB60F9211240BB60F922F933F934F9308
:102560005F936F937F938F939F93AF93BF93EF93FB
:10257000FF933FDFFF91EF91BF91AF919F918F91BB
:102580007F916F915F914F913F912F910F900BBE73
:102590000F900FBE0F901F9018951F920F920FB6BD
:1025A0000F9211240BB60F922F933F934F935F938B
:1025B0006F937F938F939F93AF93BF93EF93FF930B
:1025C00018DFFF91EF91BF91AF919F918F917F9114
:1025D0006F915F914F913F912F910F900BBE0F9094
:1025E0000FBE0F901F901895FC01DB0114968C9183
:1025F000858388EB818381E0848310926E2710921B
:102600006F2710927027E0EAF0E082818260828377
:10261000789480E090E00895009709F45CC061151B
:10262000710509F45BC0FB01328520916E2702C061
:10263000311157C02111FCCF5FB7F89421E02093EE
:102640006E2720E83FEF20936F27309370275FBFFE
:102650008093652790936627609367277093682718
:102660001092692710926A2710926B2710926C279C
:1026700040936D27FB012081522F550F2481358116
:10268000232B11F4411103C0FC01568303C0516098
:10269000FC015683EFE6F7E28081918180389F4FFD
:1026A000D9F3E0916527F0916627848183708130AA
:1026B00049F0A5E6B7E2ED91FC9111978481837012
:1026C0008130C9F720916F273091702710926E27C3
:1026D000822F932F089588EF9FEF089588EF9FEF43
:1026E000089586EF9FEF0895CF93DF93E0E6F6E03D
:1026F000808580FF24C0EFECF1E080818823ECF33B
:1027000088E092E00E94BF5EEC018930910510F0F4
:10271000C1E0D0E0EFECF1E080818823ECF30E948F
:10272000ED4ECE01A0E0B0E089309105A105B105E4
:1027300008F459C088E090E0A0E0B0E054C082E026
:1027400090E052D8B9D8EC0180E092E057DDE0E6A5
:10275000F6E0808581FD2D9680910B2090910C20D4
:10276000A0E0B0E08C0F9D1FA11DB11DB695A795EF
:1027700097958795AC0180930B2090930C20413E58
:1027800085E0580788F0EDE8F3E281E090E02191E0
:1027900031914217530728F0019688309105B9F717
:1027A00005C080FD06C002C080E090E080930A2052
:1027B00017C020910A20482F552747FD5095421BEE
:1027C000510927FD53959A01552324F422273327D5
:1027D000241B350B223031051CF08E7F80930A209C
:1027E00080910A2090E0DF91CF910895E0E6F6E035
:1027F000908590FD22C0882319F0109271270895CA
:1028000080917127811119C0EFECF1E0808188235C
:10281000ECF36ADFBC0188E092E00E94EB5EEFEC33
:10282000F1E080818823ECF30E94ED4E8AE092E093
:102830000E94EB5E81E0809371270895FC01808106
:1028400090ED980F9A3028F4992787FD9095C097BE
:1028500013C09FEB980F963028F4992787FD909529
:10286000C7970AC09FE9980F963008F084C099274F
:1028700087FD90958755910982959295907F98272D
:10288000807F9827218130ED320F3A3040F4332792
:1028900027FD309520533109820F931F18C03FEB5D
:1028A000320F363040F4332727FD30952753310956
:1028B000820F931F0CC03FE9320F363008F05EC024
:1028C000332727FD309527553109820F931F8295B5
:1028D0009295907F9827807F9827228130ED320F44
:1028E0003A3040F4332727FD309520533109820FC9
:1028F000931F17C03FEB320F363040F4332727FDCC
:10290000309527533109820F931F0BC03FE9320FD7
:102910003630B8F5332727FD309527553109820F1A
:10292000931F9C0122953295307F3227207F3227DA
:10293000838190ED980F9A3038F4992787FD909510
:10294000C097820F931F08959FEB980F963038F42D
:10295000992787FD9095C797820F931F08959FE948
:10296000980F963088F4992787FD9095875591099F
:10297000820F931F089580E090E0089580E090E03A
:10298000089580E090E0089580E090E008955F92DF
:102990006F927F928F929F92AF92BF92CF92DF926F
:1029A000EF92FF920F931F93CF93DF937C01EB0184
:1029B0002196DB018C91823221F4FE0120E030E08F
:1029C0000CC0609372277093732780E090E0F9C089
:1029D0008C3511F0319601C032968081823239F007
:1029E000882329F02F5F3F4F2115310589F7E091AA
:1029F0000F20F0911020C901019609956C010097F4
:102A000009F4B8C08C010F2EFAE05F2EF02D0F2EC6
:102A1000F9E06F2EF02D0F2EFDE07F2EF02D689443
:102A2000882483F80F2EFCE09F2EF02D8AC08C3571
:102A300031F02196F80180830F5F1F4F82C09E0105
:102A40002F5F3F4F89818E36C1F02CF4823659F0CA
:102A5000863671F070C08437D1F08537E9F082375F
:102A600009F069C00FC0D8018C920F5F1F4F67C07B
:102A7000F80190820F5F1F4F62C0D8015C920F5F18
:102A80001F4F5DC0F80170820F5F1F4F58C0D80103
:102A90006C920F5F1F4F53C0CE010296CFDE5C01D8
:102AA0009E012B5F3F4F9C5D8115B4E09B0708F4AE
:102AB00046C0A114B10409F442C09C5F8115944042
:102AC000C0F48E818C35D9F58F818537C1F5CE0163
:102AD0000896B4DE9E01255F3F4FAC015C5D411559
:102AE000544068F5BA2CAA24BB0CBB0C9370A82ADE
:102AF000B92A40E8A416B10408F43FC0A11468E064
:102B0000B60608F457C040C06A2D6F7360686293C0
:102B10000024AA0CBB1C001CAA0CBB1C001CAB2C68
:102B2000B02CDC01A953BC4D8C91A82AA2928F0134
:102B3000040F151F04C0D8018C930F5F1F4FE901CC
:102B400021968881823221F0811171CFFE0101C06E
:102B5000FE01D8011C928081823211F4EF0121968E
:102B6000F701C086D18684E090E0868397838C2F1E
:102B70009D2F27C080E090E024C0F801319641E00D
:102B800050E081E090E0CDCFF80132968A2D8F732E
:102B90008068D80112968C930024AA0CBB1C001CE0
:102BA000AA0CBB1C001CAB2CB02C43E050E083E013
:102BB00090E0AACFF801329642E050E082E090E047
:102BC000A3CFDF91CF911F910F91FF90EF90DF90F6
:102BD000CF90BF90AF909F908F907F906F905F90BD
:102BE0000895FC01009789F080818150803268F45B
:102BF0009F012F5F3F4FF9012115310531F02F5F04
:102C00003F4F808181508032B0F3CF010895E09131
:102C10000F20F091102082E190E00995009729F0B3
:102C200022E1FC0111922A95E9F708952F923F9233
:102C30004F925F926F927F928F929F92AF92BF92CC
:102C4000CF92DF92EF92FF920F931F93CF93DF9378
:102C500000D000D0CDB7DEB78C016B837C83672BAF
:102C600009F476C244E050E06BE973E28B819C8109
:102C70000E94EC5B892B49F482E090E0F8018683A6
:102C800097838B819C81049665C245E050E060EAA1
:102C900073E28B819C810E94EC5B892B39F4F801F3
:102CA000168217828B819C81059654C244E050E0C5
:102CB00066EA73E28B819C810E94EC5B892B59F45C
:102CC00081E090E0F80186839783828793878B81E8
:102CD0009C8104963FC2EB81FC818081823221F489
:102CE000BF01C80154DE36C28D3231F090ED980F2D
:102CF0009A3008F03BC10EC08B819C8101968B837A
:102D00009C830F2E412C512CF0E86F2EFFEB7F2E71
:102D1000F02D08C00F2E412C512CF0E86F2EFFE350
:102D20007F2EF02DEB81FC818081803319F4319668
:102D3000EB83FC83EB81FC8180818153893080F5BA
:102D40005F01C12CD12C760120E030E040E251E45B
:102D5000C701B6010E948F586B017C014501FFEF4E
:102D60008F1A9F0A8B829C82F5016081772767FD0D
:102D7000709560537109882777FD8095982F0E9480
:102D800093579B01AC01C701B6010E9490566B019D
:102D90007C01F501818180538A3028F45401D4CF1D
:102DA000C12CD12C7601EB81FC8180818E3209F01F
:102DB00043C0818180538A3008F08BC01F01FFEF30
:102DC0002F1A3F0A812C912C540120E030E040E280
:102DD00051E4C701B6010E948F586B017C01C1010B
:102DE000019689839A838B839C83F1016081772785
:102DF00067FD709560537109882777FD8095982F3E
:102E00000E9493579B01AC01C701B6010E949056E6
:102E10006B017C0120E030E040E85FE3C501B401D4
:102E20000E948F564B015C01F101818180538A30F1
:102E300030F429803A80C9CF812C912C5401EB8148
:102E4000FC8180818F7D853409F04DC081818B327A
:102E500041F43296EB83FC8381E090E089839A838E
:102E600015C08D3251F0EB81FC813196EB83FC83F0
:102E700081E090E089839A8309C0EB81FC813296DE
:102E8000EB83FC838FEF9FEF89839A83EB81FC8137
:102E9000808190ED980F9A3068F53196212C312C75
:102EA0009101220F331F220C331C220C331C220CE5
:102EB000331C220E331EEB83FC83992787FD9095EC
:102EC000C097280E391E819190ED980F9A3040F3EB
:102ED00013C0812C912C540181E090E089839A8366
:102EE000212C312C09C0E1E0F0E0E983FA83212CA8
:102EF000312C02C0212C312CA7019601C301B20153
:102F00000E948F586B017C0189819A81289EB001B3
:102F1000299E700D389E700D1124882777FD8095AD
:102F2000982F0E949357A50194010E9490569B01EF
:102F3000AC0160E070E080E291E40E94F2589B01F5
:102F4000AC01C701B6010E948F58F80164877587EC
:102F5000868797870E946057F8016287738783E0AE
:102F600090E0868397838B819C81F4C08B3509F038
:102F700053C085E090E0F801868397838B819C8124
:102F800001962FDE6C01FC0180818D3519F4C6019C
:102F90000196E0C03CDE7C01F801848395830097B4
:102FA00079F1C6011EDEBC01C70140DE1ADE8C01CC
:102FB0000097B1F428C02BDE6C01009739F1F701BE
:102FC00080839183FC01E282F382C801019609DECD
:102FD000BC01C6012BDE05DE8C010097D1F0760125
:102FE000F80180818C3239F38D3519F4C8010196CE
:102FF000B1C0009372271093732780E090E0AAC0BD
:1030000080E090E0A7C080E090E0A4C080E090E085
:10301000A1C080E090E09EC08B3709F090C086E0B0
:1030200090E0F801868397838B819C810196D9DD9E
:103030006C01FC0180818D3719F4C60101968AC0AC
:10304000E6DD7C01F80184839583009709F465C06F
:10305000C601C7DDBC01C7019ADCC3DD009709F4D6
:103060005FC0F70120853185208B318B108611865A
:10307000FC0120812A3339F08093722790937327C3
:1030800080E090E067C00196ACDDBC01C701CEDDF9
:10309000A8DD8C01009789F546C0B9DD6C01009769
:1030A00009F444C0F70180839183FC01E282F3823A
:1030B000C801019696DDBC01C60169DC92DD00976E
:1030C000C1F1F60120853185208B318B1086118668
:1030D000FC0120812A3339F0809372279093732763
:1030E00080E090E037C001967CDDBC01C6019EDD2A
:1030F00078DD8C01009701F17601F80180818C3236
:1031000061F28D3719F4C801019624C0009372272B
:103110001093732780E090E01DC080E090E01AC01B
:1031200080E090E017C080E090E014C080E090E084
:1031300011C080E090E00EC080E090E00BC08B8179
:103140009C81809372279093732780E090E002C067
:1031500080E090E02496CDBFDEBFDF91CF911F913C
:103160000F91FF90EF90DF90CF90BF90AF909F9026
:103170008F907F906F905F904F903F902F90089529
:103180009F92AF92BF92CF92DF92EF92FF920F93F6
:103190001F93CF93DF93009741F431E020E0672B3A
:1031A00009F430E0832F922F32C06115710551F17F
:1031B0008C01EB0102C0992041F17E01F801919050
:1031C0008F01892D992787FD90950E94AD5B6C0139
:1031D0002196F7018081992787FD90950E94AD5B2C
:1031E000C816D90641F3892D90E00E94AD5BEC0131
:1031F000F701808190E00E94AD5B9E01281B390B96
:10320000C90105C081E090E002C080E090E0DF915C
:10321000CF911F910F91FF90EF90DF90CF90BF90D3
:10322000AF909F9008950F931F93CF93DF93EC017E
:10323000009761F1088119818E819F8190FD12C0F4
:103240008C819D81009729F0EEDF8E819F8190FD1A
:1032500009C088859985009729F0E0910D20F091AB
:103260000E20099588899989009729F0E0910D2011
:10327000F0910E200995E0910D20F0910E20CE01E5
:1032800009950115110511F0E801D4CFDF91CF9117
:103290001F910F910895CF92DF92EF92FF920F93BB
:1032A0001F93CF93DF938C017B016A01B0DCEC01AB
:1032B0001092722710927327009739F1C80191DCA0
:1032C000BC01CE01B3DC8C01009729F4CE01ABDF49
:1032D00080E090E01FC0CD2879F083DC8C01FC01F8
:1032E0008081882349F0CE019EDF009372271093DE
:1032F000732780E090E00EC0E114F10449F0F7017B
:10330000008311838C2F9D2F05C080E090E002C0C8
:103310008C2F9D2FDF91CF911F910F91FF90EF90F8
:10332000DF90CF90089540E050E060E070E0B3CFD0
:103330000895DC011496ED91FC911597309749F0B2
:1033400080E090E001960190F081E02D3097D1F778
:10335000089580E090E00895DC011496ED91FC91D1
:103360001597309769F01616170654F461507109D5
:103370000190F081E02D309719F061157105B1F7DA
:10338000CF0108950F931F93CF93DF938B01FC011F
:10339000C481D581209731F40BC00990D881C02D0C
:1033A000209731F0B80188899989EADE892BA9F73D
:1033B000CE01DF91CF911F910F910895E0E8F6E0E3
:1033C00080898863808B81898863818B80911120BB
:1033D00090911220A0911320B09114209C01AD0176
:1033E000220F331F441F551F60E078E488EE91E000
:1033F0000E941856DA01C9010597A109B109809305
:10340000152090931620A0931720B093182060E405
:1034100085E090E00E94B44E61E170E280EA94E0C1
:10342000E3C808955F926F927F928F929F92AF92BE
:10343000BF92CF92DF92EF92FF920F931F93CF93A1
:10344000DF93CDB7DEB72C97CDBFDEBF6983912C5C
:103450000F2EFBE08F2EF02D6E0192E0C90ED11CD5
:103460000F2EF9E1AF2EF0E2BF2EF02DEE24E39403
:10347000F12C8E010F5F1F4F0F2EF0E76F2EF02DF6
:103480000F2EF2EA7F2EF02D0F2EFCE75F2EF02D8F
:10349000F601982D11929A95E9F7F50190819A839A
:1034A0008B83EE82FF8208871987EA86FB8640E0DD
:1034B000B60180EA94E0B0D880935B2B90935C2BAC
:1034C000892B49F0F501608279829394F2E09F168E
:1034D00029F0852DDDCF892D90E002C0892D90E067
:1034E0002C96CDBFDEBFDF91CF911F910F91FF9042
:1034F000EF90DF90CF90BF90AF909F908F907F9094
:103500006F905F900895CF93DF93CDB7DEB72C9780
:10351000CDBFDEBF6983FE0132969BE0DF011D92C5
:103520009A95E9F7909119209A838B8381E090E036
:103530008E839F839E012F5F3F4F288739878A871D
:103540009B8740E0BE016E5F7F4F80EA94E064D8C5
:10355000892BB9F72C96CDBFDEBFDF91CF910895AF
:10356000EF92FF920F931F93CF93DF93CDB7DEB708
:103570006197CDBFDEBF7C018B01DC018C91209176
:103580001C2030911D202115310521F46230710578
:103590000CF08068FE0137969BE0DF011D929A9542
:1035A000E9F7909119209F83888781E090E021308E
:1035B000310511F480E090E08B879C87CE01019665
:1035C0008D879E870F87188B41E0BE01695F7F4F13
:1035D00080EA94E021D8892B39F4A801BE016F5FFD
:1035E0007F4FC7010E94B55B6196CDBFDEBFDF9103
:1035F000CF911F910F91FF90EF90089580911C2023
:1036000090911D20892B19F463E081E27CDF809189
:103610001C2090911D20019719F462EA8CE773CF6A
:10362000089561E880E26FDF60E881E26CDF64ECBE
:1036300082E269CF0895CF93DF9300D0CDB7DEB794
:1036400019821A8287E2898361E070E0CE010196D7
:1036500087DF89810F900F90DF91CF9108952F928E
:103660003F924F925F926F927F928F929F92AF9212
:10367000BF92CF92DF92EF92FF920F931F93CF935F
:10368000DF9300D000D0CDB7DEB70F2EF3E1EF2EE1
:10369000FBE2FF2EF02D86E3D7018C9362E070E011
:1036A000C7015EDF04E11BE2F801808190E0982F02
:1036B0008827D7012C91822BAA2797FDA095BA2F96
:1036C0008093162B9093172BA093182BB093192B44
:1036D0008AE3F701808362E070E0C70141DFD8012F
:1036E0008C9190E0982F8827F7012081822BAA27C0
:1036F00097FDA095BA2F8093222B9093232BA09314
:10370000242BB093252B80E3808362E070E0C70117
:1037100027DFD7018C918093542BF801008100930F
:10372000322B10E0282E312C8090222B9090232BCE
:10373000A090242BB090252B4090162B5090172B47
:103740006090182B7090192BD501C401841995092C
:10375000A609B70989839A83AB83BC83BC01CD01D9
:103760000E9493576B017C01B80162197309882785
:1037700077FD8095982F0E949357A70196010E948C
:10378000F85660932E2B70932F2B8093302B9093B1
:10379000312BC501B4010E9493574B015C01B1016B
:1037A000882777FD8095982F0E9493579B01AC0145
:1037B000C501B4010E948F584B015C010E94605703
:1037C00060931E2B70931F2B8093202B9093212BA3
:1037D000C301B2010E9493572B013C01B801882715
:1037E00077FD8095982F0E9493579B01AC01C301F0
:1037F000B2010E948F582B013C010E9460576093D8
:103800003B2B70933C2B80933D2B90933E2B8981D7
:103810009A81AB81BC818093262B9093272BA09318
:10382000282BB093292BA3019201C501B4010E945A
:103830008F56A70196010E94F8566093462B70930D
:10384000472B8093482B9093492B0F2EFAE4EF2EB1
:10385000FBE2FF2EF02D8CE3D7018C9362E070E049
:10386000C7017EDE0BE41BE2F801808190E0982F17
:103870008827D7012C91822BAA2797FDA095BA2FD4
:103880008093422B9093432BA093442BB093452BD2
:103890008EE3F701808362E070E0C70161DED8014A
:1038A0008C9190E0982F8827F7012081822BAA27FE
:1038B00097FDA095BA2F8093552B9093562BA093EC
:1038C000572BB093582B82E3808361E070E0C701EF
:1038D00047DED7018C9190E08093402B9093412B51
:1038E00015E31C9361E070E0C7013ADEF7018081C7
:1038F000837090E080935F2B9093602B982F8827A4
:103900002091402B3091412B822B932B8093042BC1
:103910009093052B83E3808361E070E0C70120DE94
:10392000D7018C9190E08093FC2A9093FD2A1C9300
:1039300061E070E0C70114DEF70180818C7090E0D7
:10394000969587959695879580932A2B90932B2B08
:10395000382E22248091FC2A9091FD2A282A392A87
:103960002092FE2A3092FF2A0091042B1091052B01
:103970004090552B5090562B6090572B7090582BA1
:103980008090422B9090432BA090442BB090452BDD
:10399000C301B201681979098A099B090E949357EA
:1039A0006B017C01B101601B710B80E090E00E9413
:1039B0009157A70196010E94F8566093372B709398
:1039C000382B8093392B90933A2BD801A301920185
:1039D0000E945C560E9493572B013C01D101A50126
:1039E00094010E945C560E9493579B01AC01C30155
:1039F000B2010E948F56A70196010E94F85660936B
:103A0000332B7093342B8093352B9093362B249645
:103A1000CDBFDEBFDF91CF911F910F91FF90EF904F
:103A2000DF90CF90BF90AF909F908F907F906F90DE
:103A30005F904F903F902F90089580911C2090911F
:103A40001D20892BB1F4F7DD837099F060E081E2ED
:103A50005ADD8AE28093742762E070E084E797E29F
:103A60007FDD88E28093762762E070E086E797E268
:103A700077DD80911C2090911D20019741F466E034
:103A800070E088E797E26CDD6DE580E83CCD089555
:103A900080917E2790917F27009781F001978093F6
:103AA0007E2790937F27892B81F4C7DFE0E0F8E041
:103AB00086818C7F86838681868307C0E0E0F8E07C
:103AC00086818C7F868386818683E0E4F8E0848526
:103AD00081608487089572DC80E498E00E94C65378
:103AE00066EB7EE180E498E00E940B54E0E4F8E0AD
:103AF0008181887F818380E89CE086A397A386816B
:103B00008C7F868386818160868380E098E00E9436
:103B1000C65368E47DE180E098E00E940B54E0E049
:103B2000F8E08181887F818380E491E086A397A378
:103B300086818C7F868386818160868378940895D0
:103B4000CF92DF92EF92FF92CF936B017C010E94A4
:103B50006057C62F772767FD7095872F972F0E9494
:103B600093579B01AC01C701B6010E948F5620E01C
:103B700030E040E05FE30E948B5818161CF481E0AF
:103B80008C0F01C08C2FCF91FF90EF90DF90CF90E2
:103B9000089580911C2090911D200097C9F5609197
:103BA000752770E0762F662780917427682B6093C5
:103BB000592B70935A2B882777FD8095982F0E9458
:103BC00093572091372B3091382B4091392B5091BE
:103BD0003A2B0E948F582091332B3091342B4091F7
:103BE000352B5091362B0E9490560E94605760935F
:103BF0002C2B70932D2B9B01772314F4295F3F4FBF
:103C0000359527953595279535952795822F0895D4
:103C1000019711F56091782770E0762F66278091E3
:103C20007927682B882777FD8095982F0E949357D6
:103C300020E03FEF4FE757E40E94F85620E030E0E5
:103C40004FE253E40E948F5820E030E044E352E416
:103C50000E948F5675CF0895089580911C209091F1
:103C60001D20009739F56091772770E0762F662741
:103C700080917627682B882777FD8095982F0E9462
:103C8000935720912E2B30912F2B4091302B509118
:103C9000312B0E948F582091462B3091472B409119
:103CA000482B5091492B0E9490560E946557862FB1
:103CB000869508950197D1F460917B2770E0762F67
:103CC000662780917C27682B80E090E00E949157C6
:103CD00020E03FEF4FE757E40E94F85620E030E045
:103CE00048EC52E40E948F582BCF0895089580919C
:103CF0001C2090911D20892B29F4E0E4F8E08081BC
:103D0000807F808380911C2090911D20019751F429
:103D1000E0E0F8E08081807F8083E0E4F8E080816B
:103D2000807F8083089580911C2090911D20892B95
:103D300021F080918127811106C0E0E4F8E08081C4
:103D4000807F8760808380911C2090911D20019747
:103D500061F4E0E0F8E08081807F81608083E0E4CE
:103D6000F8E08081807F876080830895809181273B
:103D700081112EC081E08093812761E880E252DBCF
:103D800080931C2090931D20009719F0019719F043
:103D90001FC065DC1DC080E098E00E94C65368E447
:103DA0007DE180E098E00E940B54E0E0F8E0818142
:103DB000887F818380E491E086A397A386818C7FAE
:103DC00086838681816086838081807F8160808315
:103DD00080911A2090911B20009799F10197809370
:103DE0001A2090931B20892B61F580911C209091C3
:103DF0001D20892B59F480918027811106C011DC88
:103E000092DF81E08093802701C017DE80911C2023
:103E100090911D20019749F4F1DBE0E0F8E0868104
:103E20008C7F868386818160868380E496E08093A0
:103E30007E2790937F278AE090E080931A209093CA
:103E40001B20089554CF08956ECF08951F920F92AE
:103E50000FB60F9211240BB60F922F933F934F93EF
:103E60005F936F937F938F939F93AF93BF93EF93E2
:103E7000FF93E3DDFF91EF91BF91AF919F918F9100
:103E80007F916F915F914F913F912F910F900BBE5A
:103E90000F900FBE0F901F901895EF92FF920F9307
:103EA0001F93CF93DF93CDB7DEB72B97CDBFDEBF88
:103EB000E82EF92E8E010F5F1F4F8BE0F801119253
:103EC0008A95E9F7C8010E94B211F801AE2DBF2D05
:103ED000CE010C9621912D93E817F907D9F72B966F
:103EE000CDBFDEBFDF91CF911F910F91FF90EF907B
:103EF000089580918E2790918F27A0919027B0915F
:103F00009127892B8A2B8B2BA1F010928E27109250
:103F10008F271092902710929127EFECF1E080818B
:103F20008823ECF34FEF5FEFBA0180E292E00C944C
:103F3000E65E08954F925F926F927F928F929F926A
:103F4000AF92BF92CF92DF92EF92FF921F93CF93E7
:103F5000DF93CDB7DEB72C97CDBFDEBF80E2E0E0C8
:103F6000F6E0828385E090E00E94F40B1AE0A12C39
:103F7000B12CC12CD12C76010E945C0C8E3F2FEF0E
:103F8000920764F03FEFA31AB30A0396AA2797FD9E
:103F9000A095BA2FC80ED91EEA1EFB1E115061F75C
:103FA00080E092E00E94FE101A141B0454F4950164
:103FB000442737FD4095542FC701B6010E943A5659
:103FC00003C020E030E0A901C0908A27D0908B2761
:103FD000E0908C27F0908D27DA01C901880F991F96
:103FE000AA1FBB1F880F991FAA1FBB1F880F991FED
:103FF000AA1FBB1F880F991FAA1FBB1FBC01CD01A1
:104000006C197D098E099F090E94935720E030E0CA
:1040100040E05FE30E948F584B015C01C701B6018D
:104020000E9493579B01AC01C501B4010E949056B8
:104030000E9460576D837E838F83988760938A2761
:1040400070938B2780938C2790938D278090862761
:1040500090908727A0908827B090892768197909C0
:104060008A099B090E9493572DEC3CEC4CEC5DE3D4
:104070000E948F582B013C01C501B4010E94935747
:104080009B01AC01C301B2010E9490560E9460578F
:104090006B017C0160938627709387278093882724
:1040A00090938927CB014D815E81841B950B4C0138
:1040B00022F488249924881A990AAA2497FCA094A7
:1040C000BA2C54E6C516D104E104F1044CF0C70142
:1040D000B6012AE030E040E050E00E943A5604C0C9
:1040E0002AE030E040E050E082169306A406B506D0
:1040F000F4F48091822790918327A0918427B09136
:1041000085278D379105A105B10524F40196A11DE0
:10411000B11D04C08EE790E0A0E0B0E0809382275C
:1041200090938327A0938427B09385271CC0809108
:10413000822790918327A0918427B091852786308C
:104140009105A105B10524F00597A109B10903C0A6
:1041500080E090E0DC018093822790938327A093F6
:104160008427B0938527EFECF1E080818823ECF37E
:1041700084E292E00E94B95E6F3FAFEF7A078A0750
:104180009A0721F460EC78E080E090E0809082274C
:1041900090908327A0908427B0908527BEE18B164E
:1041A0009104A104B10484F06C157D058E059F0572
:1041B00058F0EFECF1E080818823ECF3B701A60121
:1041C00084E292E00E94E65E80910A2B8E3441F4F4
:1041D000B701A60186E09BE20E94D54D10920A2B02
:1041E000EFECF1E080818823ECF384E292E00E941E
:1041F000B95E0E9491572B013C01EFECF1E0808108
:104200008823ECF388E192E00E94B95E69877A879F
:104210008B879C87EFECF1E080818823ECF38CE1C5
:1042200092E00E94B95E0E9491574B015C0120E030
:1042300030E040E85FE4C301B2010E94F45681110E
:1042400008C00F2E412C512CFCE06F2EF5E47F2E80
:10425000F02D20E030E040E85FE4C501B4010E94A9
:10426000F4568823A1F069857A858B859C850E9408
:10427000915769877A878B879C8720E030E040E8F8
:104280005FE40E94F456882309F474C010C00F2E16
:10429000812C912CF8E4AF2EF5E4BF2EF02D20E018
:1042A00030E04AEF53E429873A874B875C87A301C4
:1042B0009201C501B4010E948F562B013C0120E000
:1042C00030E0A9010E94F456882311F120E030E08B
:1042D00040EA50E469857A858B859C850E948F56DB
:1042E000A30192010E94F8562B013C0120E030E02E
:1042F00040E05FE30E948B58181694F020E030E015
:10430000A901C301B2010E94F4568823C4F410C06D
:104310000F2E412C512C612CFFE37F2EF02D0FC06E
:104320000F2E412C512C612CFFE37F2EF02D07C066
:104330000F2E412C512C612CFFE37F2EF02D6D812F
:104340007E818F8198850E949357A50194010E94D8
:104350008F56A30192010E948F5829853A854B857B
:104360005C850E9490560E946057262F372F482F59
:10437000592F48C086E090E00E94F40B0E945C0C2C
:10438000982E192F87E090E00E94F40B0E945C0C9D
:104390005C01992314F4A12CB12C80E092E00E94DE
:1043A000FE10292D312F332314F420E030E088E073
:1043B00097E0AC01421B530BCA0199230CF40F96F2
:1043C00095958795959587959595879595958795D5
:1043D00053EFA51A5DEFB50A0D96AA2797FDA09594
:1043E000BA2F2D813E814F815885281B390B4A0BEE
:1043F0005B0BD5010E94665620EE35E140E050E0AF
:104400000E943A56622F732F842F952F99231CF404
:1044100060E070E0CB016F317105810591056CF5AD
:104420001C141D041E041F048CF40E94935720E0EA
:1044300030E040EC5FE30E948F5820E030E040E83D
:104440005FE30E9490560E94605704C060E070E0F5
:1044500080E090E0C62ED72EE82EF92E80E1C81617
:10446000D104E104F1040CF404C10F2EFFE0CF2EBF
:10447000D12CE12CF12CF02DFCC00E9493576B0144
:104480007C0119821A821B821C8220E030E048E401
:1044900053E40E94F45618160CF4D1C020E030E02A
:1044A00040E051E4C701B6010E94F25829E530E32B
:1044B00048E056E20E948F5869837A838B839C83FD
:1044C00020E030E040EE50E4C701B6010E94F2580F
:1044D00089809A80AB80BC8027EB32E342E15BEAC3
:1044E0000E948F58A50194010E94905669837A8397
:1044F0008B839C8320E030E040EC50E4C701B601A0
:104500000E94F25889809A80AB80BC8023E73DEA04
:1045100046E65FE20E948F58A50194010E949056E2
:1045200069837A838B839C8320E030E040EA50E407
:10453000C701B6010E94F25889809A80AB80BC8086
:104540002DE736E341E153EB0E948F58A50194011A
:104550000E94905669837A838B839C8320E030E0AD
:1045600040E850E4C701B6010E94F25889809A8061
:10457000AB80BC8022EA33E84DEC53EB0E948F58AD
:10458000A50194010E94905669837A838B839C8352
:1045900020E030E040E450E4C701B6010E94F25848
:1045A00089809A80AB80BC8028E839E448E35AE3EC
:1045B0000E948F58A50194010E94905669837A83C6
:1045C0008B839C8389809A80AB80BC80A7019601F5
:1045D000C701B6010E948F5827E039E944EA5DE33C
:1045E0000E948F589B01AC01C501B4010E948F56F7
:1045F00069837A838B839C8389809A80AB80BC801B
:1046000023E738E649E650E4C701B6010E948F5817
:10461000A50194010E94905669837A838B839C83C1
:1046200069817A818B819C8123E333E341E252E407
:104630000E948F5669837A838B839C8312C020E00B
:1046400030E042E053E4C701B6010E948F5820E0F9
:1046500030E048E453E40E94F85669837A838B8300
:104660009C8369817A818B819C810E9460576B0158
:104670007C0180919327882369F010929327EFECB7
:10468000F1E080818823ECF3B701A60180E292E09B
:104690000E94E65EEFECF1E080818823ECF380E29B
:1046A00092E00E94B95E6F3FAFEF7A078A079A07E0
:1046B00049F060938E2770938F2780939027909373
:1046C000912708C010928E2710928F271092902762
:1046D0001092912780918E2790918F27A0919027FB
:1046E000B0919127C816D906EA06FB0659F0B70122
:1046F000A601481B590B6A0B7B0B141615061606F0
:1047000017069CF4A7019601281B390B4A0B5B0B7B
:10471000CA01B9016D3D35E073078105910544F08B
:104720006CED75E080E090E003C060E070E0CB01EC
:104730002C96CDBFDEBFDF91CF911F91FF90EF9000
:10474000DF90CF90BF90AF909F908F907F906F90B1
:104750005F904F9008950F931F93CF93DF938091B5
:10476000642B2091632B9091662B821B892309F483
:1047700043C04091612B5091622B2091632B969501
:10478000692F70E02923FA01E20FF11D20812D30FD
:1047900021F12091632B9223FA01E90FF11D908101
:1047A0009A3009F51CC0A081E90189010A0F111D89
:1047B000D801A623B723A40FB51FAC91AD3081F06B
:1047C000A0812F5F3F4FCA0FD11DC623D723C40F2F
:1047D000D51FA881AA3061F403C090E001C090E029
:1047E00081E0890F09C021E030E090E0E3E6FBE2E0
:1047F0009F5F9813D8CF80E0DF91CF911F910F91E9
:1048000008959091642B2091632B8091662B921BCD
:10481000982381F0E091642B869590E0F0E0319749
:10482000E823F9238091612B9091622BE80FF91F07
:104830008081089580E00895CF93DF93EB010E947B
:1048400036548883DF91CF9108950C942E540895A7
:10485000FF920F931F93CF93DF93EC018B01F42E04
:104860006EEC73E20E94FA5BFC010097B1F0838169
:104870008D3309F455C0882349F00FC04F2D50E007
:10488000BF016C5F7F4FC8010E94D85B81E090E060
:104890008093702B9093712B4CC062ED73E2CE012C
:1048A0000E94FA5B0097B1F0FC0123812D33E9F1FE
:1048B000222349F00FC04F2D50E0BC016C5F7F4FA9
:1048C000C8010E94D85B81E090E08093702B9093A8
:1048D000712B2FC066ED73E2CE010E94FA5B009748
:1048E000B1F0FC012781211115C006960E94905B52
:1048F0009FEF980F953088F421E030E02093702BE3
:104900003093712B992787FD9095019612C080E016
:1049100090E00FC080E090E00CC080E090E009C023
:104920000115110509F0AACFB1CF0115110519F62E
:10493000CACFDF91CF911F910F91FF9008951F93E0
:10494000CF93DF93662319F140E0A4E6BBE2E3E6F0
:10495000FBE226E63BE27C9150817517C9F070813D
:10496000E9015881152F16951723C091612BD0911D
:10497000622BC10FD11D18817F5F57235083EC013B
:10498000C40FD11D18834F5F6413E5CF01C040E011
:10499000842FDF91CF911F910895AF92BF92CF9254
:1049A000DF92EF92FF920F931F93CF93DF93CDB7D8
:1049B000DEB7C158D109CDBFDEBF8A01A22EC62EF7
:1049C000D72EE82EF92E19C00115110511F0F801A6
:1049D0001082C1DEB82E8823C1F0682FCE01019667
:1049E000AEDFFE01EB0DF11D10824A2DB801CE01A4
:1049F00001962EDF009769F30EC0C114D104E104C3
:104A0000F10411F780E090E006C0F1E0CF1AD10880
:104A1000E108F108F2CFCF57DF4FCDBFDEBFDF9106
:104A2000CF911F910F91FF90EF90DF90CF90BF90AB
:104A3000AF9008950F931F93CF93DF931F92CDB73D
:104A4000DEB71092642B1092632B8DED93E29F934F
:104A50008F930E94665C0F900F9000E117E2D1DE09
:104A600089838981882309F43FC089818136A9F42B
:104A700081E690E00E94775C20E040E050E060EA50
:104A800076E881E090E089DF892B31F181E090E0E8
:104A90008093702B9093712B3AC089818B32E1F413
:104AA00081EE93E20E947C5C80E090E00196853587
:104AB00020ED9207D9F720E040E050E060EA76E888
:104AC00081E090E06ADF892B39F081E090E080930B
:104AD000702B9093712B1BC082E090E08093702B21
:104AE0009093712B80E013C080E090E001968533B5
:104AF0009105E1F7015011090115110509F0AFCF3A
:104B000082E090E08093702B9093712B80E00F9067
:104B1000DF91CF911F910F910895CF92DF92EF9285
:104B2000FF926B017C0108C085DF91E0C91AD108B2
:104B3000E108F108811106C0C114D104E104F104B7
:104B400099F780E0FF90EF90DF90CF900895EF927B
:104B5000FF920F931F93CF93DF93182F092FEB0131
:104B60002091702B3091712B2230310571F420E0AF
:104B700040E050E065E070E080E090E00EDF892BDF
:104B800021F458DF882309F442C01092642B10925C
:104B9000632B22E030E02093702B3093712B0F9326
:104BA0001F9388EE93E29F938F930E94665C8E0121
:104BB0000E5F1F4F888199810F900F900F900F907B
:104BC000009701F12EEF34E2CEEED3E20F2EF3EF99
:104BD000EF2EF3E2FF2EF02D9F938F933F932F93B1
:104BE000DF93CF930E94665CF801819191918F01D0
:104BF0000F900F900F900F900F900F90009711F063
:104C00009701EACF8AE090E00E94775C81E0DF9133
:104C1000CF911F910F91FF90EF900895CF93DF9365
:104C2000CDB7DEB7FE01359681919191BF018FDF3F
:104C3000DF91CF910895CF92DF92EF92FF920F9381
:104C40001F93CF93DF93CDB7DEB70F851889CB8441
:104C5000DC84ED84FE8416C0BE016F5E7F4FC80108
:104C600076DF882351F020E040E050E060E271EA16
:104C700087E090E092DE019761F081E0C81AD108E8
:104C8000E108F108C114D104E104F10429F780E03E
:104C900001C081E0DF91CF911F910F91FF90EF90C4
:104CA000DF90CF9008951F920F920FB60F921124AC
:104CB0000BB60F922F933F934F935F936F937F9316
:104CC0008F939F93AF93BF93EF93FF938091C727E9
:104CD0009091C8270E9436543091642B2091632B09
:104CE0009091662B321B39232091652B32130CC017
:104CF0003091642B2091632B321731F02091632B7C
:104D00002F5F92239093632B3091642B2091632B20
:104D10009091662B321B39232091652B321789F035
:104D20002091642B96959223E091612BF091622B58
:104D3000E90FF11D80832F5F8091662B282320933C
:104D4000642BFF91EF91BF91AF919F918F917F91D4
:104D50006F915F914F913F912F910F900BBE0F90EC
:104D60000FBE0F901F9018950F931F93CF93DF9353
:104D7000CDB7DEB72997CDBFDEBF8C0140E864ED2B
:104D800077E281E69BE20E94C94E0093FA2A1093D3
:104D9000FB2A85E294E28093F82A9093F92A8CE129
:104DA00094E28093F62A9093F72A83E090E08D8333
:104DB0009E831F821886198640ED59EC61E070E0F1
:104DC00049835A836B837C83003A28E0120731F4CD
:104DD00060E183E090E00E94B44EF0C0003AE9E068
:104DE0001E0709F0EBC060E184E090E00E94B44E41
:104DF000BE016F5F7F4FC8010E9442556BE970E1B1
:104E000084EB90E10E941C5CF80183818F7C8062BE
:104E100083830093C7271093C827E0E6F6E088E075
:104E2000818384E0828362E370E080E090E075DE5D
:104E30001F921F9285EF93E29F938F938BEF93E2E4
:104E40009F938F931F921F921F9213E01F93F3DE85
:104E50001F921F9281E094E29F938F938FE094E2E0
:104E60009F938F9385E496E29F938F931F921F9257
:104E70001F921F93E0DE80916A2B8F938091692BA4
:104E80008F938091682B8F938091672B8F938DE107
:104E900094E29F938F930E94665CCDBFDEBF8AEA47
:104EA00091E1A4E0B0E00197A109B1090097A10543
:104EB000B105C9F780916F2B8F9380916E2B8F93E3
:104EC00080916D2B8F9380916C2B8F938AE394E26A
:104ED0009F938F930E94665C0F900F900F900F909E
:104EE0000F900F908AEA91E1A4E0B0E00197A10948
:104EF000B1090097A105B105C9F71F921F9284E57A
:104F000094E29F938F9383E396E29F938F931F92F4
:104F10001F921F9213E01F938EDE1F921F9287E550
:104F200094E29F938F9386E694E29F938F931F92D0
:104F30001F921F921F937FDE1F921F928DE694E2B5
:104F40009F938F9388E794E29F938F938CE794E2EB
:104F50009F938F9384E894E29F938F931F921F9265
:104F60001F921F9368DECDBFDEBF1F921F928AE89B
:104F700094E29F938F938DE396E29F938F931F927A
:104F80001F921F921F9357DE1F921F9282E994E295
:104F90009F938F9343DECDBFDEBF8AEA90EBA8E2FA
:104FA000B0E00197A109B1090097A105B105C9F7C2
:104FB00068EC70E080E090E0B0DD16C0BE016F5F8D
:104FC0007F4FC8010E9442556BE970E184EB90E18C
:104FD0000E941C5CF80183818F7C80628383009334
:104FE000C7271093C8271FCF2996CDBFDEBFDF91FB
:104FF000CF911F910F910895EF92FF920F931F93FE
:10500000CF93DF93CDB7DEB72A97CDBFDEBFF82EA3
:10501000E92E7F936F9329EB33E23F932F938E0119
:105020000F5F1F4F1F930F930E94A95C1F921F9247
:105030001F930F93EF92FF9284E994E29F938F93D3
:105040001F921F921F9213E01F93F5DD1F921F9274
:105050008CE994E29F938F9381EA94E29F938F93DC
:105060001F921F921F921F93E6DD1F921F9288EAE4
:1050700094E29F938F9383EB94E29F938F931F927D
:105080001F921F921F93D7DDCDBFDEBF2A96CDBFE3
:10509000DEBFDF91CF911F910F91FF90EF900895A8
:1050A00042E350E0BC0185E997E20C94D85B089597
:1050B000CF93DF93C82FD92F2091702B3091712B74
:1050C0002230310569F420E040E050E065E070E016
:1050D00080E090E062DC892B19F4ACDC882321F1BC
:1050E0001092642B1092632B22E030E02093702BFF
:1050F0003093712BDF93CF9385E997E29F938F9342
:105100008AEB94E29F938F930E94665C20E040E0DC
:1051100050E060EA76E881E090E03FDC0F900F908D
:105120000F900F900F900F90DF91CF910895CF9334
:10513000882349F18091702B9091712B029769F42B
:1051400020E040E050E065E070E080E090E025DCA9
:10515000892B19F46FDC8823F9F01092642B1092DC
:10516000632B82E090E08093702B9093712B85EFFE
:1051700094E29F938F930E94665C81E080939427D2
:105180000F900F9009C0C0919427109294278AE045
:1051900090E00E94775C8C2FCF9108959F92AF9200
:1051A000BF92CF92DF92EF92FF920F931F93CF9314
:1051B000DF93CDB7DEB7C158D109CDBFDEBF7C01CB
:1051C000962E6A015901C7DA182F811104C0F70120
:1051D000108280E04FC0682FCE010196B0DBFE0147
:1051E000E10FF11D108264EE73E2CE0101960E9480
:1051F000FA5B892B21F0F701108280E03BC0B601F9
:10520000CE0101960E94FA5B8C01009751F1F501E5
:10521000808181110AC0B501C8010E94FA5B009724
:1052200061F0801B910B8F5F09C0F8010190002095
:10523000E9F731978E2F801B01C081E090E0292D86
:1052400030E08217930724F0F701108281E012C04A
:10525000AC014F5F5F4FB801C7010E94D85B81E08E
:1052600009C0492DB701CE010196F2DA892B09F464
:10527000AACF81E0CF57DF4FCDBFDEBFDF91CF9107
:105280001F910F91FF90EF90DF90CF90BF90AF9064
:105290009F90089582DB21E0019709F020E0822FA2
:1052A00008953F924F925F926F927F928F929F925A
:1052B000AF92BF92CF92DF92EF92FF920F931F9324
:1052C000CF93DF937C0189EC97E20E944D1F89EC1C
:1052D00097E20E944D1F3090CF27C090D027D12C4D
:1052E0000091D22710E0A32DB0E020E432E44FE09B
:1052F00050E00E945C5628EE33E0C29E2001C39E1F
:10530000500CD29E500C1124662457FC6094762CCD
:10531000460E571E681E791E4091D127429FC0013C
:10532000439F900D1124AA2797FDA095BA2F480EF0
:10533000591E6A1E7B1E9801220F331FC801880F59
:10534000991F880F991F880F991F820F931FAA27F3
:1053500097FDA095BA2F480E591E6A1E7B1E80919C
:10536000D327480E511C611C711C4092672B509230
:10537000682B6092692B70926A2B8AE04816510460
:1053800061047104E8F1A3019201C1E0D0E00F2EA5
:10539000FAE08F2E912CA12CB12CF02D2196CA0170
:1053A000B901A50194010E9418562A303105410522
:1053B0005105A0F7C830D10589F4C301B2012AE034
:1053C00030E040E050E00E9418562093672B309365
:1053D000682B4093692B50936A2B12C0299781F454
:1053E000C301B20124E630E040E050E00E941856CC
:1053F0002093672B3093682B4093692B50936A2B33
:1054000080E29EE4389EA001399E500D112466274B
:1054100057FD6095762F405E554C6A4E7B4F20EAD3
:105420003FE0C29EC001C39E900DD29E900D1124FC
:10543000AA2797FDA095BA2F480F591F6A1F7B1FF7
:10544000C801880F991F800F911FAA2797FDA0956B
:10545000BA2F8A019B01080F191F2A1F3B1F0093B7
:105460006C2B10936D2B20936E2B30936F2B8091B0
:10547000672B9091682BA091692BB0916A2BF70153
:1054800086879787A08BB18B028B138B248B358BF0
:10549000DF91CF911F910F91FF90EF90DF90CF9010
:1054A000BF90AF909F908F907F906F905F904F9044
:1054B0003F900895E0EAF0E087E082838281826095
:1054C0008283789480EA99E04FDC60E570E080E0C8
:1054D00095E292DD82EB93E2E3DD89E195E2E8CDAE
:1054E0000895CF93DF93EC0165E070E080E090E0F9
:1054F00014DB81E01CDE882359F18F818F938E812C
:105500008F938D818F938C818F9388851F928F933A
:1055100089851F928F938B818F938A818F93898145
:105520008F9388818F9389898F9388898F938F85B3
:105530008F938E858F938BE895E29F938F930E9434
:10554000665C80E0F4DD8DB79EB742968DBF9EBF4E
:10555000DF91CF910895FF920F931F93CF93DF9325
:10556000EC018881882309F457C064EE75E2CE010E
:105570000E94C55B892B79F4DF93CF9381EF95E28D
:105580009F938F930E94665C10921E200F900F9045
:105590000F900F9041C0CE010E949319EC0100972B
:1055A000D9F16DEF75E20E94C2190097D9F064E05D
:1055B00076E20E94C2190097A9F0FC0182859385CA
:1055C00080931F2099279F938F9383E196E29F9367
:1055D0008F930E94665C83E080931E200F900F9053
:1055E0000F900F90CE010E94131963E276E2CE0174
:1055F0000E94C2198C01009779F0F12C05C0BE0100
:10560000C8010E94AC19F394CF2DD0E0C8010E94CC
:105610009919C817D9079CF3DF91CF911F910F916A
:10562000FF90089562E370E080E090E076DA1F92E8
:105630001F9287EF93E29F938F938BEF93E29F9359
:105640008F931F921F921F9283E08F93F4DA1F9221
:105650001F9282E994E29F938F93E0DA8DB79EB711
:105660000E968DBF9EBF80E091E7A2E0B0E001976B
:10567000A109B1090097A105B105C9F7089562E331
:1056800070E080E090E049DA1F921F9285EF93E28C
:105690009F938F938BEF93E29F938F931F921F9211
:1056A0001F9283E08F93C7DA1F921F9282E994E2E0
:1056B0009F938F93B3DA8DB79EB70E968DBF9EBF23
:1056C000089564E670E080E090E027CA08950F93A3
:1056D0001F93CF93DF93CDB7DEB7C456D109CDBFAB
:1056E000DEBF62E370E080E090E017DA80E396E2EC
:1056F0000E947C5C8AEA91E1A4E0B0E00197A109F4
:10570000B1090097A105B105C9F78E010F5F1F4FC1
:1057100084E1F80111928A95E9F72FE0A80160E28F
:1057200071EA87E090E039D964E574E2C8010E942B
:10573000FA5B892B09F499C08AE396E20E947C5CAB
:105740008AEA91E1A4E0B0E00197A109B1090097CC
:10575000A105B105C9F78E010B5E1F4F84E1F80169
:1057600011928A95E9F72FE0A80160E271EA87E0DB
:1057700090E013D96AE874E2C8010E94FA5B892BB1
:1057800009F475C082E496E20E947C5C8AEA91E1A9
:10579000A4E0B0E00197A109B1090097A105B10506
:1057A000C9F78E01075D1F4F84E1F80111928A95B8
:1057B000E9F72FE0A80160E271EA87E090E0EDD818
:1057C0006FE074E2C8010E94FA5B892B09F451C0B2
:1057D0008AE496E20E947C5C8AEA91E1A4E0B0E06F
:1057E0000197A109B1090097A105B105C9F78E017B
:1057F000035C1F4F84E1F80111928A95E9F72FE0CD
:10580000A80160E271EA87E090E0C7D861E576E23E
:10581000C8010E94FA5B892B71F187E596E20E942C
:105820007C5C8AEA91E1A4E0B0E00197A109B109AA
:105830000097A105B105C9F78E010F5A1F4F84E1EA
:10584000F80111928A95E9F72FE0A80160E271EA68
:1058500087E090E0A2D86CE774E2C8010E94FA5B8E
:1058600021E0892B49F420E007C020E005C020E0BA
:1058700003C020E001C020E0822FCC59DF4FCDBF14
:10588000DEBFDF91CF911F910F910895AB01BC0155
:10589000EFECF1E080818823ECF384E092E00C945B
:1058A000E65E0895EFECF1E080818823ECF384E07C
:1058B00092E00C94B95E0895E9DF0E94ED4E665FB8
:1058C0007F4F8F4F9F4F0E94184F81E00C94F6132B
:1058D0000895CF92DF92EF92FF92CF93DF939B01D7
:1058E000AC01253D8BE1380741055105B8F517C0DE
:1058F00081919191A0E0B0E0281739074A075B0732
:1059000090F0281B390B4A0B5B0B89919991C80EBB
:10591000D91EE11CF11C6F5F643151F704C060E0D7
:10592000C12CD12C7601E62FF0E0EE0FFF1FDF0136
:10593000AB56B94D0D90BC91A02D0E945C56E55917
:10594000F94D2081318140E050E00E941856CA0193
:10595000B9016C0D7D1D8E1D9F1D12C0255D3B4143
:1059600041095109EDE6F6E2C7E9D6E261E00F2E02
:10597000FCE6CF2EF7E0DF2EE12CF12CF02DB8CF96
:10598000DF91CF91FF90EF90DF90CF9008952F920D
:105990003F924F925F926F927F928F929F92AF92BF
:1059A000BF92CF92DF92EF92FF920F931F93CF930C
:1059B000DF9300D000D0CDB7DEB71C01862FD10118
:1059C00016964D915D916D917C9119971E96CD9093
:1059D000DD90ED90FC9051974C195D096E097F099F
:1059E0008A019B013695279517950795369527953A
:1059F0001795079509831A832B833C83882309F421
:105A0000B1C0C0905828D0905928E0905A28F09002
:105A10005B28C901B8016C197D098E099F090E9494
:105A200093572AE939E949E95EE30E948F584B010F
:105A30005C01C701B6010E9493579B01AC01C501EF
:105A4000B4010E9490560E9460576B017C016093E4
:105A500058287093592880935A2890935B28CB013B
:105A600029813A81821B930B4C0122F488249924CA
:105A7000881A990AAA2497FCA094BA2C34EDC3166C
:105A800030E3D306E104F1044CF0C701B60125E090
:105A900030E040E050E00E943A5604C024EC39E087
:105AA00040E050E082169306A406B506FCF440914F
:105AB00054285091552860915628709157284D3799
:105AC0005105610571052CF44F5F5F4F6F4F7F4F9C
:105AD00004C04EE750E060E070E0409354285093DB
