:10000000E9C5000005C6000003C6000001C60000E7
:10001000FFC50000FDC50000FBC50000F9C50000DC
:10002000F7C50000F5C500000C946F1E0C948C1EE3
:10003000EFC50000EDC500000C94FC1E0C94291FB8
:100040000C94561F0C94831F0C94B01F0C94DD1F4E
:100050000C940A200C9437200C9464200C9491206A
:10006000D7C50000D5C50000D3C50000D1C500002C
:10007000CFC50000CDC50000CBC50000C9C500003C
:10008000C7C50000C5C50000C3C50000C1C500004C
:10009000BFC50000BDC50000BBC50000B9C500005C
:1000A000B7C50000B5C50000B3C500000C948A0DAB
:1000B000AFC50000ADC50000ABC500000C94CC215D
:1000C0000C94F9210C9426220C9453220C94802237
:1000D0000C94AD229DC500009BC5000099C5000091
:1000E00097C5000095C5000093C5000091C50000AC
:1000F0008FC500008DC500008BC5000089C50000BC
:100100000C94AE0D85C5000083C5000081C50000BC
:100110007FC500007DC500007BC5000079C50000DB
:1001200077C5000075C5000073C5000071C50000EB
:100130006FC500000C94BE200C94EB200C94182189
:100140000C9445210C9472210C949F2161C50000F0
:100150005FC500005DC500005BC5000059C500001B
:100160000C94C70D55C5000053C5000002000008DF
:100170000840010001000008084801007FFE7C08DB
:1001800008447FFC4002440848440100888445FE3E
:1001900028400280048044082FFE04400480440864
:1001A00008400A2010807C080840311808804488E4
:1001B0001840C0060880444828A00100FFFE4448BB
:1001C000C8A00888014044080890488402207C08A0
:1001D0000910481204104408090848121808002899
:1001E0000A0487F0600400100C02810316820203E7
:1001F0000415161783020405141517840205061347
:10020000141785020613178E02178F030405169024
:10021000041591051415169214179313179C0613C1
:1002200014179D051415179E041516179F0316A085
:10023000FF81031782020304178302040517840257
:1002400005061785020613178E02178F030405167D
:1002500090041591030405141516920205141793C2
:10026000020613179C0205061314179D02040514B9
:1002700015179E0203041516179F0316A0FF81028F
:10028000168203168304168405168512168D13161E
:100290008E14158F9014159113169212169D131625
:1002A0009E14169F1516A0FF8103168202030415E3
:1002B000830204051484020506138502068E0214C7
:1002C0008F03040515900415910304051415169267
:1002D0000205141793020613179C02050613141740
:1002E0009D0204051415179E0203041516179F039B
:1002F00016A0FF810316820203041583020405146D
:100300008402138502068E02148F030405159004DF
:100310001591051415169214179313179C061314B0
:10032000179D051415179E041516179F0316A0FF99
:100330008102038202041617830205151784020640
:10034000141785020613178E02178F0304051690E3
:10035000041591051415169214179313179D14176D
:100360009E15179F1617A0FF8102158203141516FC
:10037000830413141684051213168512168E0412A4
:1003800013168F041314159004149104121415926B
:1003900013169312169C051213169D041314169E21
:1003A000031415169F0215A0FF810316820415166B
:1003B0001783051415178406178513178E05178FD5
:1003C0000516900515910304051492020593020683
:1003D0009C020506139D020405149E020304159F4A
:1003E0000316A0FF81070882060883050884040815
:1003F0008E05088F0607909106079205089304085A
:100400009D05089E06089F0708A0FF810217850228
:100410000613178D020513178E030415168F90030C
:10042000041516910205141792020613179C020573
:10043000061314179D0204051415179E02030415D4
:1004400016179F0316A0FF00000010000020807FF9
:10045000FC00F823F8108002403F00100003F01267
:10046000480100100040900A50FFFE800021100259
:1004700040010047FE09123FFE1FF040801212208B
:100480000011101080640E20001FF01100290020C0
:1004900000111021F8010020001FF0E008FFFE20ED
:1004A0000001002008054020003FF82008092040F6
:1004B000000100200831184000FFFE2050C10680D6
:1004C000000000002001001001000000208000F862
:1004D000008023F810803F003FFE100003F0010071
:1004E000222010004090FFFE2220800021100100F9
:1004F0003FFC47FE09121FF022204080121211100B
:1005000022201080640E1FF023E01100290011103A
:10051000200021F801001FF02FF0E008FFFE01008D
:100520002410200805403FF842202008092001003F
:1005300041C020083118FFFE86302050C10600005F
:10054000380E0020010100010000002080010000A1
:100550008023F8108001003FFE100003F00100220C
:1005600020100040903FF822208000211021083FF9
:10057000FC47FE0912210822204080121221082285
:10058000201080640E210823E0110029002108209A
:100590000021F801003FF82FF0E008FFFE210824B9
:1005A00010200805400100422020080920010041D8
:1005B000C020083118010086302050C106010038E3
:1005C0000E002001200001000000208021FC00809E
:1005D00023F8108020083FFE100003F0FC102220BA
:1005E00010004090403022208000211050483FFCF5
:1005F00047FE09129084222040801212FF0222201E
:100600001080640E100023E01100290011FC20006E
:1006100021F801001C202FF0E008FFFEF02024103C
:10062000200805405020422020080920102041C009
:100630002008311813FE86302050C1061000380EF5
:10064000002001020001003FF0201020103FF020A8
:100650001020103FF02208211020A0204024202844
:10066000183006089008880888108017FE30A030DF
:10067000A050A090A010A01120112211221222122D
:100680001E1400100013FC208420884888F8901065
:100690009C20844144F944412801281A10E228444E
:1006A00044018202000100008000800000FFFE0083
:1006B000000000044004200810080810082004402E
:1006C0000400007FFC02000200020002003FF00470
:1006D00010041004100410081008100810FFFE0089
:1006E0000000007FFC44444444444444444444489F
:1006F00044483C5004600440047FFC400400000077
:10070000007FFC00000000000000003FF800000037
:1007100000000000000000FFFE00000000000000DC
:10072000003FF80000000000000000000000000092
:10073000000000FFFE0000000000000000000000BC
:10074000000000FFFE020040000787FC10000010C0
:100750000001004001F8048413F0FC10007FFC7FCE
:10076000F10804442110841000444480010807FC6F
:10077000491084900048253FC1FFC0007920FC90BB
:100780000010100001081FFF11402090000000FF22
:10079000C108044421782090C01FF000417F87FCED
:1007A0004109FE90C0010000414084447908229034
:1007B00000010000414887FC0190229000010000E8
:1007C0004148804001504210C001000052160FFE07
:1007D0001A204210C0010000322180406250821075
:1007E000007FFC0014C05FFF048D0C70000100202E
:1007F000000300100002002048E2771049264970EB
:10080000492449004924490078EC49004028000067
:1008100041C000000000300000100048000010003F
:10082000080000200010423A25CE084246263148F2
:10083000424244213042424421004242442100428B
:100840004244210066468421005A3A842100400235
:100850000000004042000000403C78C04703E30035
:1008600044E0C882030044A0C082000044B1408339
:10087000C0004C9141006000789A43002000408AFB
:1008800046002000408E441A630040844F99C37F85
:10089000C7878F8003FC0030638710C003FC0030E3
:1008A0003387206002000030338730600200303030
:1008B00032CB30600200303032CB006002000030BA
:1008C00032CB00C002F0003062CB00C00318003F02
:1008D000C2D30180020C003002730200000C003011
:1008E00002730400000C003002730820060C003074
:1008F00002731020060C003002232023041800305D
:1009000002233FE3021830780727BFE301F0307875
:10091000C0460E1844E0CE0B1844A0C2110044B1EA
:100920004211004C91421100789A421100408A42D3
:100930001100408E421A1840844F8E1800000100AA
:1009400000000000003FFE010020003FF0002000FA
:10095000010011F800100020803FF810080010007E
:100960002080210800081FF00020802108000800D6
:1009700010002FFC2108F00800101820843FF81107
:10098000F8FFFE182084210811080100002104014D
:100990000011002108002104110011001190002213
:1009A0000409001100056000220406001502092058
:1009B000184404058019023118184828187010FED0
:1009C000C506009010E00E00000200001010081094
:1009D0000820FFFE00003E08224822483E482248E8
:1009E00022483E48220822082A28241000001FF826
:1009F0001008100810081FF81008100810081FF839
:100A000010081008200820084028801000003FF837
:100A10000100010001000100FFFE010002800280D0
:100A200004400440082010102008C00601000008FF
:100A30000100000801007C0801004408010045FE97
:100A4000111044081108440811047C08210444884A
:100A500021024448410244488102440801007C08C4
:100A6000010044080500002802000010004010208A
:100A70000440102004203C2008202020101041FCBD
:100A80002008BD24400411249FE211240420FD24E9
:100A9000042011FC04201124082010200820142018
:100AA00010201820214010204080002008201C2009
:100AB000F02010A810A4FCA2112231203A245424C2
:100AC000542890081010102010C0130000000000DF
:100AD00000000000000003FFFFFFFFE00000000433
:100AE000000000001000000008739C707C080000EB
:100AF00000082122202208000000082141202108AE
:100B000000000008214120210800000008214120A8
:100B10002108000000083F412021080000000821B2
:100B20004120210800000008214120210800000088
:100B3000082141202108000000082122212208006C
:100B4000000008739C7F7C08000000040000000087
:100B50001000000003FFFFFFFFE000001FFFC010B8
:100B6000004076DB4046DB4046DB4076DB40100051
:100B7000401FFFC01FFFC010004070DB4040DB4043
:100B800040DB4070DB401000401FFFC01FFFC01063
:100B90000040701B40401B40401B40701B40100039
:100BA000401FFFC01FFFC0100040700340400340C3
:100BB0004003407003401000401FFFC01FFFC010E3
:100BC0000040700040400040400040700040100075
:100BD000401FFFC011241FBECFEFCDBFDFE2DEBF3D
:100BE00011E2A0E0B0E2E8E8F2E500E00BBF02C0ED
:100BF00007900D92A034B107D9F724E2A0E4B1E246
:100C000001C01D92AF39B207E1F7FAD70C9442291F
:100C1000F7C980E090E0019685339105E1F70895EA
:100C20000F931F93CF93DF93CDB7DEB72A97CDBF36
:100C3000DEBF8C0180E092E07AD4882321F080E04E
:100C400092E062D4E6DFAE01495F5F4F61E080E091
:100C500092E0F6D4BE016F5F7F4F80E092E0B4D4A3
:100C600099818A81997E906199838F7802301105EC
:100C700021F48A8387E08C830EC080628A8382E0BD
:100C80008C830031110538F01F820051000F000FD6
:100C9000000F088706C081E08F83000F000F000F50
:100CA0000887BE016F5F7F4F80E092E04AD4AE01BB
:100CB000495F5F4F61E080E092E0A6D4AADF2A9608
:100CC000CDBFDEBFDF91CF911F910F91089580E0DE
:100CD00092E02DD4811104C080E092E0FED399DF30
:100CE0009FB7F894809100028460809300029FBFB8
:100CF00080910602982F917080FFFACF90930602A0
:100D00002FB7F89480912402909125022FBF97FD70
:100D100008C02FB7F89480912402909125022FBF2C
:100D2000089580E090E0089580E090E0019685339A
:100D30009105E1F7089540E464EB71E284EB93E2FE
:100D40000E94E91D40E464EB72E28AEB93E20C94AA
:100D5000E91DCF92DF92EF92FF92CF93DF9383E072
:100D600090E05EDF80E092E0B8D3DEDFC0E0D0E468
:100D7000C12CD12C7601ABDFC80ED91EE11CF11CB1
:100D800021972097C1F780E092E0BED3CDDF8EE0BF
:100D9000F694E794D794C7948A95D1F78AE0C80E61
:100DA000D11CE11CF11CC0920620D0920720E092D9
:100DB0000820F0920920DF91CF91FF90EF90DF9013
:100DC000CF9008952F923F924F925F926F927F92B1
:100DD0008F929F92AF92BF92CF92DF92EF92FF924B
:100DE0000F931F93CF93DF93CDB7DEB72F97CDBF70
:100DF000DEBF6C016C834D8341119AC16090062067
:100E000070900720FC0180E090E0462E512C841564
:100E1000950538F412861386148615860196789601
:100E2000F6CF80E092E083D3882321F080E092E047
:100E30006BD37ADF83E090E0F3DE80E092E04DD385
:100E400073DF9FB7F8948091000284608093000262
:100E50009FBFA301212C78E0372EE12CF12C00E07C
:100E600010E01E821F8220E030E080910602982F61
:100E7000917080FFFACF909306026FB7F89480913B
:100E80002402909125026FBF97FD08C08FB7F89498
:100E9000E0912402F09125028FBF02C0E0E0F0E073
:100EA0009FB7F894809100028460809300029FBFF6
:100EB0002115310559F4425E5F4F4E175F070CF064
:100EC000AAC06E167F060CF447C0A5C021303105BC
:100ED00009F063C04F01AA2497FCA094BA2C80911A
:100EE000062090910720A0910820B0910920881633
:100EF0009906AA06BB0620F16E817F816E0F7F1FC7
:100F000064177507ECF0BF0168517C4F64177507D3
:100F1000BCF0E615F705B4F04115510571F0380144
:100F200063E0769467946A95E1F7B80166197709EA
:100F30003A01E617F70720F005C0612C712C02C0BA
:100F400023E030E04E815F81460D571D4E175F074D
:100F50001CF02230310561F4CF01861997098E8388
:100F60009F8321E030E000E010E0E12CF12C53C041
:100F700021303105A9F4AC01BD01400F511F611DA5
:100F8000711D481559056A057B0518F48F01081B6A
:100F9000190B9FEFE91AF90A3EC022303105E1F240
:100FA00023303105C1F59801D7010E94C9249B0166
:100FB000AC01D8010E94D8242CE0969587957795AE
:100FC00067952A95D1F7D60140E050E044155505C4
:100FD00000F52C9130E0E216F306B8F011962C9152
:100FE000119730E0E216F30680F41A968D909D90EA
:100FF000AD90BC901D97860E971EA81EB91E1A961E
:101000008D929D92AD92BC921D974F5F5F4F589607
:10101000DDCF20E030E0A1E02A1A310821143104AC
:1010200019F0A3013F0121CF80910602982F917002
:1010300080FFFACF909306022FB7F8948091240294
:10104000909125022FBF97FD07C02FB7F89480918C
:101050002402909125022FBF80E092E055D264DEF9
:1010600084E090E0DDDD80E092E037D25DDE20E8D4
:1010700030E080E090E0DC015FB7F894409100023E
:101080004460409300025FBF40910602542F5170AC
:1010900040FFFACF509306026FB7F89440912402B4
:1010A000509125026FBF57FD0CC06FB7F894409167
:1010B0002402509125026FBF662757FD6095762F59
:1010C00003C040E050E0BA01840F951FA61FB71F70
:1010D000215031092115310579F607E0B595A7951D
:1010E000979587950A95D1F782579640A109B1093E
:1010F00020E030E024153505C0F4181619061A064C
:101100001B0644F41BE0880F991FAA1FBB1F1A95EA
:10111000D1F703C080E090E0DC01F6018687978775
:10112000A08BB18B2F5F3F4FE5CF80E092E0ECD1F9
:10113000CE86DF8604EB13E2F4EB2F2EF1E23F2E96
:101140001A821B82198269807C80671409F463C14A
:101150006D80662061F0AE85BF8516961D921D924A
:101160001D921C921997F8011382128242C1D80174
:1011700013968C91139712964C9112972A813B816A
:101180002C543C4DF9019581841B8923448184139F
:101190000FC013964C91139712968C911297481783
:1011A00039F012968C918F5F8923D80112968C9317
:1011B000EE85FF8542855385648575858684978491
:1011C000A088B188D80113969C91139712968C91A0
:1011D0001297F901F580981B9F2184819817F1F0EF
:1011E0001396EC901397F694FE20ED91FC9184E019
:1011F000F89EE00DF11D1124D501C401840F951F47
:10120000A61FB71F80839183A283B38381E08E0DD5
:10121000D90115969C918923F801838340E050E021
:1012200060E070E0CB01F101E40FF51FC080D180D8
:10123000E280F3806C0D7D1D8E1D9F1D4C5F5F4F06
:101240004115F1E05F0779F7D8011396CC90139719
:1012500012964C91C41AF9012581C2222C2D30E03E
:1012600040E050E00E948B2429013A01AE85BF8501
:101270001A962D933D934D935C931D9716968D90E2
:101280009D90AD90BC90199782169306A406B50662
:1012900094F412968D919C91139701968F3FBFEF16
:1012A0009B0710F08EEF9FEFEE85FF85828393837F
:1012B0001482158213C0AE85BF8514968D919C91C2
:1012C000159701968F3FBFEF9B0710F08EEF9FEFB2
:1012D000EE85FF85848395831282138273016201F8
:1012E000C818D908EA08FB08F7FE08C0F094E09493
:1012F000D094C094C11CD11CE11CF11CC701B601E3
:101300000E94EC252CEA35EC47EA56E30E94BF2602
:101310006E837F8388879987AE85BF8512962D91CE
:101320003C91139714968D919C9115978217930772
:101330000CF4C901BC01660F771F660F771F6F5F42
:101340007F4F882777FD8095982F0E94EC259B0181
:10135000AC016E817F81888599850E94BF269B01A3
:10136000AC01C701B6016F5F7F4F8F4F9F4F9595BF
:101370008795779567952A873B874C875D870E947D
:10138000EC252A853B854C855D850E9427266B01CF
:101390007C01C501B40184149504A604B7047CF44F
:1013A0000E94EC25A70196010E94E9240E94B9251C
:1013B000EE85FF85668377838087918710C00E94C2
:1013C000EC25A70196010E94E8240E94B925AE856C
:1013D000BF8516966D937D938D939C931997C70146
:1013E000B6010E94B925EE85FF85628773878487E1
:1013F0009587F981FF5FF9836E857F85685E7F4FF2
:101400006E877F870A5F1F4F8A819B8106968A833A
:101410009B83339498CE2F96CDBFDEBFDF91CF91C3
:101420001F910F91FF90EF90DF90CF90BF90AF9002
:101430009F908F907F906F905F904F903F902F90F4
:101440000895CF93DF931F92CDB7DEB78091C42369
:101450009091C523E091C023F091C123BE016F5F3D
:101460007F4F09958981992787FD90950F90DF918E
:10147000CF910895682F8091C4239091C523E09166
:10148000C223F091C323099597FF03C08FEF9FEF0D
:10149000089581E090E008958115924069F480916B
:1014A000402191E0980F90934021811105C062E0A6
:1014B00081E090E00C94D41D08958115924061F470
:1014C00080914021815080934021811105C062E0CC
:1014D00081E090E00C94DF1D08951F93CF93DF937C
:1014E000EC011FB7F894D8DF8881816088831FBF23
:1014F0009FB7F894E8E8F4E280818F5F80839FBF14
:10150000DF91CF911F910895CF93CFB7F894FC014D
:1015100020812E7F2083D1DFCFBF9FB7F894E8E8EA
:10152000F4E28081815080839FBFCF91089581151F
:10153000924029F481E090914021911101C080E016
:101540000895FF920F931F93CF93DF93EB018115C3
:101550009240A1F561E270E082E08ED0082F10E0A9
:1015600060E270E082E088D0102F0027082BFFB6E1
:10157000F89480E092E090DF20910002217082E0F8
:101580008093000200930C0210930D028C819D81C8
:1015900080931802909319028981809302028B81B3
:1015A000809304028A8180930302888180930102E0
:1015B0002093000280E092E080DFFFBEDF91CF91B8
:1015C0001F910F91FF900895FF920F931F93CF9358
:1015D000DF93EC018B01FFB6F8945EDF888D998D67
:1015E000F801848395838A8181838C8183838B81B5
:1015F000828389818083CE0160DFFFBEDF91CF913E
:101600001F910F91FF900895FF920F931F93CF9317
:10161000DF93EC018A01FFB6F8943EDFF801808188
:1016200088A382818AA3818189A383818EA3CE012D
:1016300044DFFFBEDF91CF911F910F91FF9008957E
:10164000FF920F931F93CF93DF93EC018A01FFB6B4
:10165000F89422DF88A1F80180838AA1828389A17E
:1016600081838EA18383CE0128DFFFBEDF91CF91DE
:101670001F910F91FF9008954091CA01E62FF72F17
:101680008093CA0184914093CA010895CF92DF925A
:10169000EF92FF92CF93DF938091680680FF2CC07A
:1016A0008091CF0187FDFCCF88E092E00E94E9287D
:1016B000EC018930910510F0C1E0D0E08091CF01BC
:1016C00087FDFCCF0E940D1E6B017C018AE092E039
:1016D0000E94E9289601281B390BC901892F9927F7
:1016E0008695869586958C0F9D1F8930910508F407
:1016F00052C088E090E04FC082E090E091DAE7DAF3
:101700007C0180E092E000DF8091680681FF03C0E9
:101710003DE0E30EF11C20910B2030910C20AFE155
:10172000B0E00E94C9246E0D7F1D811D911D25E032
:1017300096958795779567952A95D1F79B01609344
:101740000B2070930C20EFEBF0E280E090E04191F1
:1017500051912417350720F0019688309105B9F78B
:1017600080FF13C0282F332727FD309540910A2092
:10177000241B310947FD339537FF03C0319521956F
:101780003109223031051CF08E7F80930A20C090F1
:101790000A208C2D90E0DF91CF91FF90EF90DF90A9
:1017A000CF9008959091680690FD20C0882319F08D
:1017B00010924121089580914121811117C080919B
:1017C000CF0187FDFCCF62DFBC0188E092E00E9480
:1017D00015298091CF0187FDFCCF0E940D1E8AE064
:1017E00092E00E94152981E0809341210895FF92A3
:1017F0000F931F93CF93DF93EC016111109242215D
:10180000F09042218091CF0187FDFCCF80E092E0F3
:101810000E94E928282F291B2F77F21648F52091DE
:10182000CF0127FDFCCF8C0111270F1911090150A1
:1018300011090F73112783E0000F111F8A95E1F73B
:10184000C8010E94E328688379838A839B838091FF
:10185000CF0187FDFCCFC80104960E94E3286C836A
:101860007D838E839F83F394F092422181E003C0B5
:10187000F110C4CF80E0DF91CF911F910F91FF90C5
:101880000895EF92FF920F931F93CF93DF937C0104
:101890008091CF0187FDFCCF80E092E00E94E92893
:1018A000EC01891B8F77803458F08091CF0187FD40
:1018B000FCCF6D2F6F5F6F7781E092E00E94ED2883
:1018C0008091CF0187FDFCCF8E010F73112793E02C
:1018D000000F111F9A95E1F7F70140815181628154
:1018E0007381C8010E9410298091CF0187FDFCCF30
:1018F000F7014481558166817781C80104960E9471
:1019000010298091CF0187FDFCCF6C2F6F5F6F771F
:1019100080E092E0DF91CF911F910F91FF90EF90C7
:101920000C94ED28AB01BC018091CF0187FDFCCF69
:1019300084E092E00C9410298091CF0187FDFCCFC8
:1019400084E092E00C94E328CF93DF93EB010E94B4
:1019500080238883DF91CF9108950C947823CF92D0
:10196000DF92EF92FF92CF93DF93EC01CE80DF8086
:10197000E884F9848E859F85A889B989C81AD90A0F
:10198000EA0AFB0A72E0F694E794D794C7947A9532
:10199000D1F7662331F047E751E2C701B6010E9453
:1019A0001C1CC701B6010E94D31C9B01AC018E8593
:1019B0009F85A889B98962E0B595A7959795879580
:1019C0006A95D1F7280F391F4A1F5B1FE8EFF0E235
:1019D000C2EDD0E2C12CD12C760160E081919191D1
:1019E000A0E0B0E0281739074A075B0768F0281B1A
:1019F000390B4A0B5B0B89919991C80ED91EE11CDA
:101A0000F11C6F5F623151F7E62FF0E0EE0FFF1F20
:101A1000DF01AE52BF4D0D90BC91A02D0E94D82485
:101A2000E850FF4D2081318140E050E00E948B243E
:101A30002C0D3D1D4E1D5F1D203A86E8380781E0C4
:101A40004807510520F02FE936E841E050E0CA018F
:101A5000B901DF91CF91FF90EF90DF90CF90089583
:101A600080E090E001968A3224E09207D9F7089549
:101A700059DF0E940D1E665F7F4F8F4F9F4F0E9460
:101A8000351E81E08FCECF92DF92EF92FF92CF93FF
:101A9000DF939B01AC01E2EDF0E2C8EFD0E260E041
:101AA000C12CD12C760181919191A0E0B0E0281752
:101AB00039074A075B0768F0281B390B4A0B5B0B99
:101AC00089919991C80ED91EE11CF11C6F5F62319A
:101AD00051F7E62FF0E0EE0FFF1FDF01A850BF4DDA
:101AE0000D90BC91A02D0E94D824EE52FF4D208174
:101AF000318140E050E00E948B242C0D3D1D4E1D95
:101B00005F1DCA01B901DF91CF91FF90EF90DF9087
:101B1000CF9008951F920F920FB60F9211240BB61B
:101B20000F928F93EF93FF93E8E4F0E080818E7F34
:101B30008083E0917921F0917A211082E0917921DE
:101B4000F0917A2183E08183FF91EF918F910F9043
:101B50000BBE0F900FBE0F901F9018951F920F9203
:101B60000FB60F9211240BB60F928F93EF93FF9342
:101B7000E8E4F0E080818E7F8083FF91EF918F9188
:101B80000F900BBE0F900FBE0F901F9018951F92D5
:101B90000F920FB60F9211240BB60F922F933F9313
:101BA0004F935F936F937F938F939F93AF93BF9365
:101BB000EF93FF93CF93DF931F92CDB7DEB7BE01B4
:101BC0006F5F7F4F8091482090914920BDDE8981D1
:101BD0000E94581B0F90DF91CF91FF91EF91BF9121
:101BE000AF919F918F917F916F915F914F913F91B5
:101BF0002F910F900BBE0F900FBE0F901F90189556
:101C0000CF93DF93CDB7DEB76097CDBFDEBF0E9425
:101C1000AF1D0E94541E90DE0E94FB1D88E39DE0D4
:101C20000E944F1E0E940D1E665F7F4F8F4F9F4F79
:101C30000E94351E8091A20081608093A20080E006
:101C400099E00E94DA2280910109887F809301093E
:101C500080ED97E0809326099093270980910009F1
:101C6000807F86608093000964E0E62EE092820621
:101C700078E0F72EF092820680E88093620601E019
:101C80000093E1070093E60712E0109361061093BA
:101C9000660680E2809361068093660680E4809306
:101CA000610680936606BE016F5F7F4F80E092E021
:101CB0008BDC0093020689819A819F7890629A83D7
:101CC000817E806189831B821C8382E090E00E9478
:101CD0001006BE016F5F7F4F80E092E032DCE09241
:101CE0006206F09262068091A20082608093A20058
:101CF000789400914820109149200093C4231093B8
:101D0000C5238DEA9CE08093C2239093C32384EA89
:101D10009CE08093C0239093C123809143209091B5
:101D200044208D839E8380914520909146208F830F
:101D3000988780914720898740913F20509140208B
:101D4000609141207091422049835A836B837C8348
:101D5000003A28E0120731F460E183E090E00E944D
:101D6000D41D09C0003A39E0130729F460E184E08A
:101D700090E00E94D41DBE016F5F7F4FC8010E949A
:101D80005F2461E27AE08AE39AE00E949928E09178
:101D90004820F091492083818F7C806283830E9458
:101DA0000A1780E28093650682E08093E5077894C5
:101DB00081E080936A0683E08093690694E09093C3
:101DC0008A068093890682E080939206809148007B
:101DD000817F8660809348000E949B0601E010E0AE
:101DE0002224239454E6C52ED12CE12CF12C809191
:101DF0000C0980FFFCCF80910C09816080930C0955
:101E00008091780081FF0CC06FE780E092E00E9433
:101E1000ED2842E0409378000093772110937821D9
:101E20008091732190917421A0917521B0917621B8
:101E30000196A11DB11D8093732190937421A093ED
:101E40007521B093762183E491E280937921909378
:101E50007A212FEC30E284E491E2A3E4B1E245E49C
:101E6000A42E41E2B42EF90141919F01642F6695A1
:101E700066956695F0E26F9FB00111247A5FFB01D1
:101E800060854770380102C0660C771C4A95E2F7FE
:101E90006621F50140816623B1F0411106C04C91E5
:101EA000433018F02082FC011082FC016081462F33
:101EB00050E04F3E51051CF441E0460F01C040EF99
:101EC000FC01408314C0442339F0FC0140814330BD
:101ED00018F0F50110821C926C91462F50E04F3E95
:101EE00051051CF441E0460F01C040EF4C930396AE
:101EF0001396F3E0AF0EB11C40E2223D340709F027
:101F0000B2CF809177219091782120914321009741
:101F100081F4243689F58091452181112DC080916D
:101F20000D2090910E20809377219093782161E08D
:101F300024C0243621F430914521332399F03CEF1D
:101F4000320F303648F4209145212223A9F0209108
:101F50004421233089F406C0293C70F020914521AA
:101F600021110AC080930D2090930E2010927721AA
:101F70001092782161E001C060E08091772190911A
:101F80007821009711F120914921223321F43091D9
:101F90004B21332359F024502E32B8F420914B2199
:101FA000222399F020914A21233079F4833091053E
:101FB00039F00196809377219093782161E005C0F4
:101FC000009377211093782161E08091772190919F
:101FD0007821009719F120914621223321F4309184
:101FE00048213323C1F03CEF320F3E3248F4809158
:101FF0004821882399F080914721833079F40BC0E0
:10200000223360F020914821211108C0BB24B394F1
:10201000039721F404C0BB24B39401C0B12C86EC17
:1020200093E26C870E940C1C6C858D3461F4809166
:10203000772190917821892B09F0DBC200937721D9
:1020400010937821D6C2611102C08B2D01C081E0AE
:102050008170A82E30906806532D5170352EE09176
:102060007721F0917821309711F4552331F070E207
:102070007093650682E08093E507611110927221EA
:102080008091732190917421A0917521B091762156
:10209000AA20F9F02C013D0121E0421A5108610803
:1020A0007108E89457F86624772440926E21509284
:1020B0006F216092702170927121482F4F7340936D
:1020C0006D218093692190936A21A0936B21B09335
:1020D0006C21E230F10541F16090692170906A2134
:1020E00080906B2190906C219C01AD0126193709DD
:1020F000480959092D3A3A484105510588F1EF2B15
:1021000079F1311008C010927721109278218F73E5
:1021100080936D2125C08093692190936A21A093BB
:102120006B21B0936C211CC040906E2150906F21A8
:1021300060907021709071219C01AD013F77442720
:102140005527241535054605570551F48093692117
:1021500090936A21A0936B21B0936C21109272210D
:102160006C8794DA8B8780E01DDB6C856B84611053
:1021700019C0311018C08091682181110EC0809162
:10218000772190917821892B41F086E9809368210D
:10219000809173218F7380936D211092772110921B
:1021A000782103C031101092682190907221BB20D9
:1021B00021F0892D82258093722120917721309101
:1021C000782121303105D1F48091732190917421CF
:1021D000A0917521B09176214090692150906A219B
:1021E00060906B2170906C2184199509A609B7093C
:1021F00087359544A105B105F0F46DC02230310555
:1022000081F58091732190917421A0917521B091F5
:1022100076214090692150906A2160906B217090E6
:102220006C2184199509A609B709893E9340A10537
:10223000B10508F450C0311004C071E070937221F0
:1022400010C08091732190917421A0917521B0915B
:1022500076218093692190936A21A0936B21B0939A
:102260006C2123303105B9F5AA20B1F080E691E266
:10227000BEDAA82EA2248091642190916521A091BC
:102280006621B09167218093502190935121A093B2
:102290005221B093532101C0A12C0E940D1E4090E9
:1022A00060215090612160906221709063216419D7
:1022B0007509860997096093592170935A21809373
:1022C0005B2190935C21AA2031F000937721109339
:1022D0007821109272218091772190917821019735
:1022E000029740F580914C21882341F010924C21B7
:1022F00041E062E08FE090E20E94E206809172216C
:102300008823D1F091101BC0BB20E1F00E940D1E6C
:1023100069837A838B839C8360E08FE090E21FDB8C
:102320006D837E838F839887CE010196AADA81E040
:102330008A870AC01A8608C091E09A8705C0E1E042
:10234000EA8702C0F1E0FA8780916821882351F082
:10235000815080936821811105C0809173218F7312
:1023600080936D214091732150917421609175216A
:102370007091762180916D2190E0A0E0B0E04A015B
:102380005B012FE382229924AA24BB248816990694
:10239000AA06BB0609F0BEC030925E21809168217A
:1023A000882329F031E030935F211B8602C0109210
:1023B0005F218091772190917821039789F4809112
:1023C000642190916521A0916621B091672180934D
:1023D000502190935121A0935221B09353215FC07B
:1023E00061E08FE090E2BBDA4B015C016093502129
:1023F00070935121809352219093532160E087E2A2
:1024000090E2ADDA2B013C01C501B4010E94EA253E
:1024100026E636E646EA5FE30E94BF264B015C01F2
:10242000C301B2010E94EA259B01AC01C501B401C0
:102430000E94E92420E83FE443EC57E40E94BB26D5
:1024400018160CF160915021709151218091522108
:10245000909153210E94EA2526E636E646EA5FE39C
:102460000E94BF264B015C0160E087E290E277DAD0
:102470000E94EA259B01AC01C501B4010E94E92438
:102480000E94BE2504C06FE976E881E090E0609389
:102490005421709355218093562190935721609138
:1024A0005021709151218091522190915321A70187
:1024B00096010E948B242432310570F02C343105B2
:1024C00068F02F36310560F02739310558F02B3F81
:1024D000310550F484E009C080E007C081E005C008
:1024E00082E003C083E001C085E080935D216B84BE
:1024F00060924F21809172218093582180917721A1
:102500009091782180934D2190934E218DE491E21A
:10251000DBD430C04F5F5F4F6F4F7F4F4F735527F6
:1025200066277727481759076A077B0759F4809170
:10253000772190917821892BE9F02092E6070E947B
:10254000A90618C080917221811114C07A84772065
:1025500089F080E480936506B2E08B2E8092650658
:102560002092E5077DDA40914C2162E08FE090E215
:102570000E94E20680917221811103C09A84911019
:1025800008C022E0209366062092E60780E480934C
:1025900066068091772190917821892B09F027CCCC
:1025A00031E030934C21311022CC8091682181118F
:1025B0001ECC40E24093660652E05093E6078091BD
:1025C000880682FF14CC80918C06817080938C06E3
:1025D0008091A20084608093A20080914800816075
:1025E0008093480088958091A2008B7F8093A20001
:1025F000FECB61E081E02CCDEF92FF920F931F9311
:10260000CF93DF931F92CDB7DEB77C018C01169577
:10261000079580EB6983AAD78FE36981861BA6D7CC
:10262000802F8F70A3D7C70125E0969587952A95AF
:10263000E1F7877080610F90DF91CF911F910F912B
:10264000FF90EF9093C7DF92EF92FF920F931F934B
:10265000CF93DF93EC01D62E00E010E02B8130E029
:1026600002171307B8F48981B801680F711D8881BA
:1026700090E0C2DFE12CF12C2A8130E0E216F30673
:1026800030F48D2DF3D782E0E80EF11CF5CF0F5F0B
:102690001F4FE4CFDF91CF911F910F91FF90EF90EB
:1026A000DF90089524EBEBECF3E2DF011D922A9515
:1026B000E9F7462F50E0653B10F044EB50E0ABECFF
:1026C000B3E220E030E02417350741F0FC01E20FCF
:1026D000F31FE491ED932F5F3F4FF5CF08952F92B5
:1026E0003F924F925F926F927F928F929F92AF92A2
:1026F000BF92CF92DF92EF92FF920F931F93CF93EF
:10270000DF93CDB7DEB76497CDBFDEBF2C016B83FF
:102710007C8349015A01ED86FE860F87188BFB01E9
:102720000281069510E0C8010E946B273C018CECE9
:10273000898383E38A83A80160E070E0C3010E947B
:10274000922800E010E0C12CD12CEB81FC81838128
:1027500090E0C816D90608F0C8C0F201E00FF11FDA
:102760008F0104191509819187FFFACF682F6F77C0
:1027700070E080E090E00E94EC252D853E854F853D
:1027800058890E94BF260E9422270E94BE25E62E5D
:10279000F12CEC14FD0418F4F1E0CF1AD108EB8110
:1027A000FC818181B601680F711D808190E024DF7A
:1027B000CE14DF0411F0730184C00F5F1F4F6D82D0
:1027C0007E82E12C8D819E8186199709EB81FC81A7
:1027D0002281269530E08217930708F082C09C0181
:1027E000220F331F2B873C87F12C212C312CF20137
:1027F000E00FF11F608167FD4AC070E080E090E06B
:102800000E94EC25A50194010E94BF260E94222768
:102810000E94BE252B853C85220D331D29873A87D2
:1028200070E02617370799F5C80101968F839887BE
:10283000FC01E40DF51D608167FD25C070E080E0BE
:1028400090E00E94EC25A50194010E94BF260E9401
:1028500022279B01AC01E985FA85BF01882777FD16
:102860008095982F298B3A8B4B8B5C8B0E94EC25A3
:1028700029893A894B895C890E944D25811103C0C1
:102880000E5F1F4F04C0F1E0EF260F811885EE2088
:1028900041F0E1E0F0E0EC0FFD1FE20DF31D80815F
:1028A000F82A2FEF221A320A32E02316310409F0F7
:1028B0009ECFED81FE81F192ED83FE838F2DD6D6E2
:1028C00081CFEB81FC818281869590E0970126196A
:1028D00037092817390728F4F70181917F01C6D6F7
:1028E000F0CFFFEFCF1ADF0A30CFC3016496CDBF20
:1028F000DEBFDF91CF911F910F91FF90EF90DF909E
:10290000CF90BF90AF909F908F907F906F905F908F
:102910004F903F902F900C9403282F923F924F920C
:102920005F926F927F928F929F92AF92BF92CF925F
:10293000DF92EF92FF920F931F93CF93DF9300D01C
:102940001F92CDB7DEB78B01622F4983ABDEF80152
:10295000C080D12C2180312C4981A42EBB24A7FC1E
:10296000B0948281282F30E021503109287F285FE0
:102970003F4F02C0359527954A95E2F72A833B835E
:10298000E12CF12C60E8862E912CF801838190E0F7
:10299000E816F90608F056C0B701620D731DC601AE
:1029A0002BDEC7010A2C02C0969587950A94E2F7A0
:1029B0004A815B81849F3001859F700C949F700CCD
:1029C000112490E0412C512CF801228130E0421674
:1029D0005306A0F592010A2C02C0369527950A9459
:1029E000E2F7F901E60DF71D53E0F695E7955A95E4
:1029F000E1F7E553FC4D27703327A40102C055953C
:102A000047952A95E2F79A013081322381E009F453
:102A100080E092012C0D3D1D20FF07C081119363C2
:102A2000892F998323D6998105C0882311F09CECC6
:102A300001C090E05FEF451A550AC6CFFFEFEF1ACD
:102A4000FF0AA3CF2396CDBFDEBFDF91CF911F91A9
:102A50000F91FF90EF90DF90CF90BF90AF909F903D
:102A60008F907F906F905F904F903F902F90089540
:102A7000CF93DF93CDB7DEB72A97CDBFDEBF9AE005
:102A8000EAE6F0E2DE01119601900D929A95E1F7E7
:102A9000982F9695611111C0E92F80FF0BC081E03E
:102AA00020917D21211180E080937D21882311F0E8
:102AB000E1E0E90F10927C2110C080917C218530EB
:102AC00010F010927C2180917C21E92F981708F456
:102AD000E82F81E08E0F80937C21F0E0EE0FFF1F46
:102AE00081E090E08C0F9D1FE80FF91F28E144233F
:102AF00021F042E066E570E203C040E06AE570E282
:102B0000808191812A96CDBFDEBFDF91CF9105CF25
:102B1000FF920F931F93CF93DF93CDB7DEB76097EC
:102B2000CDBFDEBFF82E8B018CE0E4E7F0E2DE01E2
:102B3000119601900D928A95E1F7FB014081518138
:102B4000628173814D875E876F87788BF1E0FF1517
:102B500058F08F85869586958F878695982F990F43
:102B6000980F8D85890F8D8780917B218F1541F07E
:102B7000F0927B2120E040E0B80180E090E0CDDEE3
:102B8000FE013196EF0DF11DEF0DF11D2FE740E035
:102B9000BE01635F7F4F80819181BFDE6096CDBFB4
:102BA000DEBFDF91CF911F910F91FF90089580E0DC
:102BB00090E001968A369105E1F708952F923F92B1
:102BC0004F925F926F927F928F929F92AF92BF923D
:102BD000CF92DF92EF92FF920F931F93CF93DF93E9
:102BE000CDB7DEB7AB97CDBFDEBF6FA378A789A700
:102BF0009AA74BA728013901CBA2DCA2EDA2FEA225
:102C0000282C6E0185E1C80ED11C85E0F6011192D9
:102C10008A95E9F78FEF8AA384E1E0E8F0E2DE012C
:102C2000119601900D928A95E1F72296EEADFFADD7
:102C3000229781818F8F828188A3838189A33A2CF7
:102C4000F5E0FA1510F4F5E03F2E01E311E276010C
:102C5000EAE08E2E912CA12CB12CF801219131911A
:102C60008F0140E050E06FA178A589A59AA50E9448
:102C70008B24CA01B901A50194010E948B24F7019C
:102C800061937F01F1E20B331F0739F74601C12C35
:102C9000AA24A394D12CB12C2296EEADFFAD22979D
:102CA00080818C0D8E8FB21431F0AA2021F0F401B6
:102CB00080818823F1F0F4018081FE013196E80FD4
:102CC000F11DE80FF11D64EB80819181EBDCEBA03D
:102CD000FCA00DA11EA1A3019201BE01625E7F4F67
:102CE0008BEC93E2FCDCD39418A1C10ED31014C07A
:102CF00063C0FBA5F1115DC0EBA0FCA00DA11EA15E
:102D0000A3019201BE01625E7F4FCE018296E7DC95
:102D1000D39488A1C80E4DC0B2102CC02296EEAD3F
:102D2000FFAD229701812396FFAD2397FF2389F002
:102D300020E030E040E850E4C301B2010E94BF2629
:102D40000E94BE256C8F6D8F015F0B8F86E0C80ED1
:102D500007C094E09C8F9D8F085E0B8FE8E0CE0E3D
:102D60008E8D810F8E5F8A8F6FEFCE014A966BDC5E
:102D7000A12C01C0A12CB394FFEF8F1A9F0A85E00C
:102D8000B8128ACFAA20C1F064EB89819A818ADCCB
:102D9000EBA0FCA00DA11EA1A3019201BE01625EE9
:102DA0007F4F8BEC93E29BDCD11006C0DD24D394E3
:102DB00003C0D310E0CFE8CF8D2DAB96CDBFDEBFE3
:102DC000DF91CF911F910F91FF90EF90DF90CF9007
:102DD000BF90AF909F908F907F906F905F904F903B
:102DE0003F902F900895CF93DF9300D000D0CDB7C0
:102DF000DEB780E189831A8280EF8B8380E48C8345
:102E000060E0CE0101961FDC2496CDBFDEBFDF91CE
:102E1000CF910895EF92FF920F931F93CF93DF937B
:102E2000CDB7DEB76997CDBFDEBF8FEF8093410688
:102E30008093210610E81093010682E08093E10759
:102E400089E1E4E9F0E2DE01119601900D928A95A4
:102E5000E1F71093060608E000932606A8DE00932B
:102E60002506A5DE109305068E010F5F1F4F7E011C
:102E70008AE1E80EF11CF80181918F0177D30E15DC
:102E80001F05C9F76996CDBFDEBFDF91CF911F91B6
:102E90000F91FF90EF90A7CFCF93DF9300D000D09A
:102EA000CDB7DEB782E2898388E18A8386E48B83AB
:102EB0008EE18C8360E0CE010196C5DB2496CDBF08
:102EC000DEBFDF91CF9108952F923F924F925F9294
:102ED0006F927F928F929F92AF92BF92CF92DF922A
:102EE000EF92FF920F931F93CF93DF93CDB7DEB78F
:102EF000C054D109CDBFDEBF3C01FC0140805180F0
:102F000080917E2190917F218415950529F06BDFBA
:102F100040927E2150927F21F1E04F16510469F0DA
:102F200008F47DC232E04316510409F44FC083E037
:102F30004816510409F435C180C2F3018385882302
:102F400041F020E940E062E670E28CEC9AE0E5DCDA
:102F500007C02EE740E066E670E28CE691E0DDDC3B
:102F600020E840E06EE570E28FE898E0D6DC28E4E7
:102F700040E062E570E282E198E0CFDCF30163813A
:102F80007481858196811F922BE331E23F932F93C9
:102F900042E0842E55E0A52EE6E6CE2EDC2CEC2C6D
:102FA000EFE3FE2E00E010E020E43FE340E006DE29
:102FB00040E0F301618982815BDD6AE470E2F30144
:102FC0008089A6DD0F900F900F9037C280E28BAF03
:102FD00016E01CAF9CE29DAF39E03EAF9CE49FAB96
:102FE0009AE098AF0CE009AF24E12AAF44E24BAB82
:102FF0002CAB8DAB9EAB46E94FA718AB48E249AB73
:103000003AAB3EEB3BA79CA70DA72EA73AE93FA3FF
:1030100028A789A79AA78BA399E29CA390E69DA3D2
:103020009EE09EA38F8F88A390EE99A3BB24B394B8
:10303000BAA294E99B8F1C8EBD8E8E8F6FEFCE014E
:103040004F9601DB6CECCE014B96FDDA25E340E0B8
:10305000BE01655C7F4F8AE598E05FDC26E240E0D8
:10306000BE016D5C7F4F8CEE97E057DC26E240E0BE
:10307000BE01695D7F4F8CEE97E04FDC2DE240E0B2
:10308000BE01615D7F4F8FE099E047DC27EA40E0B9
:10309000BE016D5D7F4F85E497E03FDCF301208941
:1030A000EDEAF0E2DE01119601900D920A95E1F74A
:1030B000E9EBF0E2DE011D9601900D921A95E1F721
:1030C00080912D2190912E21A0912F21B09130211E
:1030D0008F8B988FA98FBA8F8B8B9C8BAD8BBE8B70
:1030E000E22FF0E0DE01AE0FBF1FEE0FFF1F21E069
:1030F00030E02C0F3D1FE20FF31F1D962C9140E096
:10310000BE01695E7F4F8081918107DC8B899D893B
:10311000890F8B8B20E240E0BE016D5E7F4F83E81C
:1031200096E0FBDB6EE470E2F3018089F1DCF301F1
:103130006381748185819681BF929E01295C3F4F96
:103140003F932F9302E0802E25E0A22E31E7C32E7D
:103150003DE3D32E3AE0E32E3FE3F32E00E010E010
:1031600020E03FE340E02ADDF3016781708581853F
:103170009285BF929E01255D3F4F3F932F9300E0C4
:1031800010E020E03FE340E019DD40E0F301618919
:1031900082816EDC0F900F900F900F900F900F9028
:1031A0004CC188E28B8B1C8A88E48D8B80E18E8BEE
:1031B00090E79D871E869CE09F87888B20E940E0F2
:1031C000BE016D5E7F4F8CE399E0A7DB40E0F30129
:1031D000618982814DDC20E840E06EE570E28FE895
:1031E00098E09BDB28E440E062E570E282E198E051
:1031F00094DBF30163817481858196811F922BE3B7
:1032000031E23F932F93E2E08E2EF5E0AF2EA6E65B
:10321000CA2EDC2CEC2CAFE3FA2E00E010E020E408
:103220003FE340E0CBDCF3016485758586859785B7
:10323000BCE34B2E512C612C712CA30192010E94F6
:103240008B240F900F900F902C33310541055105C1
:1032500028F41B01982EB92EE0E023C0CA01B90161
:10326000A30192010E948B242831310541055105AB
:1032700028F41B01982EB92EE1E013C0CA01B90150
:1032800028E130E040E050E00E948B241B01982EA2
:10329000B92E2E3131054105510510F4E2E001C08F
:1032A000E3E0CA01B901243631054105510520F09A
:1032B00063E670E080E090E09E012F5F3F4F3901B0
:1032C0004E2E512C611571058105910509F43FC001
:1032D00019821A8220E12B832C835F851F929E0125
:1032E000235F3F4F3F932F932AE0822E32E0A32E9D
:1032F0004EEAC42E47E4D42E41EEE42E4EE3F42EE3
:103300009701860141E021965FAF219757DC219616
:103310005FAD2197859F002D11249D85900F998386
:10332000F2013196DF01A85DBE4D1C911B83EE0FAB
:10333000FF1FE25EFE4D20E440E0B30180819181F9
:10334000ECDA502F510F0F900F900F9001C050E00A
:103350008D859E85AF85B88989839A83AB83BC832D
:103360008D85850F89833F853FAF1F927F926F9236
:10337000AAE08A2EB2E0AB2E1EEAC12E17E4D12EAF
:1033800011EEE12E1EE3F12E9701860141E0B1011D
:10339000892D9B2D21965FAF219710DC21965FAD83
:1033A0002197B52E9FAD899FB00C11241A8200E1A0
:1033B0000C838D858B0D8983F201E85DFE4D1081B4
:1033C0001B83F201EE0FFF1FE25EFE4D20E440E0A2
:1033D000B30180819181A1DA1B0D0F900F900F90A6
:1033E000103768F41A820B830C838D85810F8983D3
:1033F00020E240E0B3018CEC99E08FDA105F1437E3
:10340000E0F48D853E8598893A839C83810F89837A
:1034100084E7811B8B8360E0C30115D90EC0F301E3
:103420008289811103C08189882331F041E0F30151
:10343000618982811DDB01C0D6DCC05CDF4FCDBF5E
:10344000DEBFDF91CF911F910F91FF90EF90DF9042
:10345000CF90BF90AF909F908F907F906F905F9034
:103460004F903F902F900895AF92BF92CF92DF92EE
:10347000EF92FF920F931F93CF93DF9300E216E03A
:1034800084E0F82EF801F58290E4E92E96E0F92E1A
:10349000DD24DA94F701D282D5821682DD24D3941A
:1034A000F801D682C12C26E0D22E30E8B32EF601E8
:1034B000B68242E0A42EF801A682F701F084F8015A
:1034C000A582F601B5821F2D111F1127111F12951C
:1034D000110F110F107CFF2DF170CF2F80E0D82F2E
:1034E000CC0FDD1F1C2BF1FAAA27A0F9B0E063E096
:1034F000AA0FBB1F6A95E1F71A2BF2FAEE27E0F943
:10350000F0E075E0EE0FFF1F7A95E1F71E2BF3FA5E
:10351000662760F970E07695762F66277795679530
:10352000162BF4FA442740F950E0440F551F142B92
:10353000F5FA222720F930E0220F331F220F331F24
:10354000122BF6FA882780F990E0B4E0880F991FD3
:10355000BA95E1F7812BDF91CF911F910F91FF90E9
:10356000EF90DF90CF90BF90AF9008956F927F92D1
:103570008F929F92AF92BF92CF92DF92EF92FF9283
:103580000F931F93CF93DF93782E5BE0652E6CDF54
:1035900087FF03C06A94D9F75AC08FEF8093410622
:1035A00081E08093260680E88093060624E020933D
:1035B000260671FA992790F970FA882480F8912CE0
:1035C000C4E0880C991CCA95E1F7892A972D991FA8
:1035D0009927991F990F990F990F982972FAAA2480
:1035E000A0F8B12CD5E0AA0CBB1CDA95E1F79A291A
:1035F00073FACC24C0F8D12CCC0CDD1C9C2974FAB5
:10360000EE24E0F8F12C06E0EE0CFF1C0A95E1F741
:103610009E2975FA002700F910E0000F111F000F16
:10362000111F902B76FA772470F8C72D30E0D32F36
:10363000D695DC2FCC27D795C7959C2B9093450624
:103640009095909346062093250680930506DF917A
:10365000CF911F910F91FF90EF90DF90CF90BF908F
:10366000AF909F908F907F906F900895CF93DF934E
:10367000D82FCBE0F9DE87FF03C0C150D9F715C0C2
:103680008FEF8093410681E08093250680E8809348
:10369000060694E090932606D0934506D095D093E5
:1036A00046069093250680930506DF91CF910895F5
:1036B000909182249330D1F058F4992371F0913095
:1036C00069F580937F2483E08093822480E00895CD
:1036D0009430E9F0953031F121C0833519F510921D
:1036E000812481E08093822480E008959091812458
:1036F000E92FF0E0E158FB4D848381E0890F80934E
:103700008124843079F48093822480E00895853484
:1037100029F485E08093822481E008951092822428
:1037200080E0089580E00895CF92DF92EF92FF92BB
:103730006A017B01FC0124812D3411F52081318146
:1037400042815381AAE0B0E00E94D8240E94430D38
:10375000AB01BC018091CF0187FDFCCF80E392E0FB
:103760000E9410298091CF0187FDFCCFB701A601EF
:1037700084E392E0FF90EF90DF90CF900C941029BB
:10378000FF90EF90DF90CF9008954F925F926F92ED
:103790007F928F929F92AF92BF92CF92DF92EF92E1
:1037A000FF92CF93DF93EC012A013B01E7E8F4E2BB
:1037B000C12CD12C7601812C912C54018394A2919F
:1037C000B0E0D097A50194010E94E224C60ED71E56
:1037D000E81EF91EAAE0B0E00E94D8244B015C016B
:1037E00084E2E338F80759F7C882D982EA82FB827B
:1037F000B301A201CE0198DF81E0DF91CF91FF906C
:10380000EF90DF90CF90BF90AF909F908F907F9080
:103810006F905F904F90089520918224253051F44D
:103820001092822420917F24FC01248335DB809137
:103830007F24089580E008954F925F926F927F9267
:103840008F929F92AF92BF92CF92DF92EF92FF92B0
:10385000CF93DF934B015C01EA01C0908421D090AB
:103860008521E0908621F09087216C197D098E09D1
:103870009F090E94EC252AE939E949E95EE30E94A3
:10388000BF262B013C01C701B6010E94EC259B011C
:10389000AC01C301B2010E94E9240E94B9256B0169
:1038A0007C0160938421709385218093862190937D
:1038B0008721CB01881999094C0197FF03C0919486
:1038C00081949108AA2497FCA094BA2C94EDC9166F
:1038D00090E3D906E104F1044CF0C701B60125E0FC
:1038E00030E040E050E00E94AD2404C024EC39E018
:1038F00040E050E08091802190918121A09182212F
:10390000B091832182169306A406B50674F48D3710
:103910009105A105B10524F40196A11DB11D11C0A9
:103920008EE790E0A0E0B0E00CC083309105A105E7
:10393000B10524F00297A109B10903C080E090E02D
:10394000DC018093802190938121A0938221B09308
:1039500083218091CA238D34B9F480918021909184
:103960008121A0918221B09183210697A105B10503
:103970005CF088819981019729F4B701A60186EC52
:1039800093E203DF1092CA23DF91CF91FF90EF9073
:10399000DF90CF90BF90AF909F908F907F906F906F
:1039A0005F904F9008954F925F926F927F928F92A7
:1039B0009F92AF92BF92CF92DF92EF92FF920F93BE
:1039C0001F93CF93DF93162FD72FC82F092F8091E6
:1039D000CF0187FDFCCF80E392E00E94E3282B011A
:1039E0003C018091CF0187FDFCCF84E392E00E94EF
:1039F000E3284B015C01C301B2010E94EA256B017F
:103A00007C01C501B4010E94EA259B01AC01C701FC
:103A1000B6010E9451256B017C012AE939E949E987
:103A20005EE30E944D2587FD72C020E030E040E05B
:103A300050E4C701B6010E94BB2618160CF46CC0F6
:103A4000472046204520409409F46BC08FEF88162C
:103A50009806A806B80609F464C060E375E780E03C
:103A600090E00E94430D86169706A806B90640F41A
:103A700060E375E780E090E00E94430D4B015C013C
:103A8000612F7D2F8C2F902F0E94EA252B013C0166
:103A9000C501B4010E94EA254B015C019B01AC0108
:103AA000C301B2010E94BB26181644F5A50194017A
:103AB000C301B2018DD72B013C0120E030E040E88A
:103AC0005FE3C701B60185D720E030E040E05FE367
:103AD0000E94BF269B01AC01C301B2010E94BF2618
:103AE0002B013C01A7019601C501B4010E94BF262C
:103AF0009B01AC01C301B2016CD706C0A7019601BE
:103B0000C301B2010E94BF260E94BE250EC064E11F
:103B100070E080E090E009C06AE070E080E090E052
:103B200004C0612F7D2F8C2F902FDF91CF911F919B
:103B30000F91FF90EF90DF90CF90BF90AF909F904C
:103B40008F907F906F905F904F9008959FB7F894FB
:103B5000E0E5F0E02081822B80839FBF08958FEF06
:103B60008093700080937100809372008093730043
:103B700080937400809375008093760082E0E6DF86
:103B80008091510081FFFCCF61E080E490E02DD076
:103B90009FB7F894809150008E7F809350009FBF14
:103BA00081E08093430008952FB7F894FC01E05919
:103BB000FF4F60958081862380832FBF08952FB7A4
:103BC000F894FC01E059FF4F8081862B80832FBF42
:103BD0000895FC01128213824483440F41504583AF
:103BE0006083718380E090E008951BBEFC0128EDA6
:103BF00024BF60830895109200042091010420FDE9
:103C0000FCCF609308047093090480938D249093F3
:103C10008E2487E08093000408950F931F93809172
:103C2000010480FDFCCF8FB7F89460918D247091D2
:103C30008E2400910804109109040115110531F436
:103C40009091030490FF02C06F5F7F4F8FBFCB0145
:103C5000A0E0B0E07727662720E030E0602B712BF2
:103C6000822B932B1F910F91089521E02093020442
:103C700060930C0470930D046093912470939224CC
:103C800080938F24909390248091010480FDFCCF39
:103C900082E08093030485E080930204089580937A
:103CA000932490939424089564E080E090E07CDF76
:103CB000E0E0F4E08FEF9FEF828793871086118614
:103CC0009FB7F894EAE8F4E280818F5F80839FBF1A
:103CD000E0E0F4E081E0828387E0808308951F9232
:103CE0000F920FB60F9211240BB60F928F939F93E2
:103CF000EF93FF93EDE8F4E2808191810196808358
:103D00009183FF91EF919F918F910F900BBE0F9038
:103D10000FBE0F901F9018951F920F920FB60F9223
:103D200011240BB60F92CF92DF92EF92FF920F9376
:103D30001F932F933F934F935F936F937F938F9333
:103D40009F93AF93BF93EF93FF9360918D247091F6
:103D50008E2400918F24109190246017710798F1A0
:103D600081E080930204E0919324F09194243097B1
:103D700051F1C0900804D0900904CB01A0E0B0E05C
:103D800077276627E12CF12C6C297D298E299F2924
:103D900020E030E0980111270027C0909124D090B6
:103DA0009224E12CF12C0C291D292E293F290617DC
:103DB00017072807390730F0C901B8016F5F7F4F37
:103DC0008F4F9F4F0995FF91EF91BF91AF919F91B9
:103DD0008F917F916F915F914F913F912F911F91A3
:103DE0000F91FF90EF90DF90CF900F900BBE0F9050
:103DF0000FBE0F901F9018951F920F920FB60F9243
:103E000011240BB60F922F933F934F935F936F93B1
:103E10007F938F939F93AF93BF93EF93FF93E09123
:103E2000B221F091B321309709F00995FF91EF91FC
:103E3000BF91AF919F918F917F916F915F914F91C2
:103E40003F912F910F900BBE0F900FBE0F901F90C0
:103E500018951F920F920FB60F9211240BB60F9266
:103E60002F933F934F935F936F937F938F939F9382
:103E7000AF93BF93EF93FF93E091B021F091B12105
:103E8000309709F00995FF91EF91BF91AF919F9104
:103E90008F917F916F915F914F913F912F910F90F3
:103EA0000BBE0F900FBE0F901F9018951F920F9290
:103EB0000FB60F9211240BB60F922F933F934F938F
:103EC0005F936F937F938F939F93AF93BF93EF9382
:103ED000FF93E091AE21F091AF21309709F0099561
:103EE000FF91EF91BF91AF919F918F917F916F91D2
:103EF0005F914F913F912F910F900BBE0F900FBE8E
:103F00000F901F9018951F920F920FB60F921124C9
:103F10000BB60F922F933F934F935F936F937F93C3
:103F20008F939F93AF93BF93EF93FF93E091AC2157
:103F3000F091AD21309709F00995FF91EF91BF9174
:103F4000AF919F918F917F916F915F914F913F9131
:103F50002F910F900BBE0F900FBE0F901F901895D2
:103F60001F920F920FB60F9211240BB60F922F9340
:103F70003F934F935F936F937F938F939F93AF93F1
:103F8000BF93EF93FF93E091AA21F091AB2130977B
:103F900009F00995FF91EF91BF91AF919F918F919A
:103FA0007F916F915F914F913F912F910F900BBE39
:103FB0000F900FBE0F901F9018951F920F920FB683
:103FC0000F9211240BB60F922F933F934F935F9351
:103FD0006F937F938F939F93AF93BF93EF93FF93D1
:103FE000E091A821F091A921309709F00995FF915E
:103FF000EF91BF91AF919F918F917F916F915F9161
:104000004F913F912F910F900BBE0F900FBE0F90CD
:104010001F9018951F920F920FB60F9211240BB696
:104020000F922F933F934F935F936F937F938F9351
:104030009F93AF93BF93EF93FF93E091A621F091ED
:10404000A721309709F00995FF91EF91BF91AF91AA
:104050009F918F917F916F915F914F913F912F91A0
:104060000F900BBE0F900FBE0F901F9018951F92D0
:104070000F920FB60F9211240BB60F922F933F930E
:104080004F935F936F937F938F939F93AF93BF9360
:10409000EF93FF93E091A421F091A521309709F0CF
:1040A0000995FF91EF91BF91AF919F918F917F9172
:1040B0006F915F914F913F912F910F900BBE0F9099
:1040C0000FBE0F901F9018951F920F920FB60F9270
:1040D00011240BB60F922F933F934F935F936F93DF
:1040E0007F938F939F93AF93BF93EF93FF93E09151
:1040F000A221F091A321309709F00995FF91EF914A
:10410000BF91AF919F918F917F916F915F914F91EF
:104110003F912F910F900BBE0F900FBE0F901F90ED
:1041200018951F920F920FB60F9211240BB60F9293
:104130002F933F934F935F936F937F938F939F93AF
:10414000AF93BF93EF93FF93E091A021F091A12152
:10415000309709F00995FF91EF91BF91AF919F9131
:104160008F917F916F915F914F913F912F910F9020
:104170000BBE0F900FBE0F901F9018951F920F92BD
:104180000FB60F9211240BB60F922F933F934F93BC
:104190005F936F937F938F939F93AF93BF93EF93AF
:1041A000FF93E0919E21F0919F21309709F00995AE
:1041B000FF91EF91BF91AF919F918F917F916F91FF
:1041C0005F914F913F912F910F900BBE0F900FBEBB
:1041D0000F901F9018951F920F920FB60F921124F7
:1041E0000BB60F922F933F934F935F936F937F93F1
:1041F0008F939F93AF93BF93EF93FF93E0919C2195
:10420000F0919D21309709F00995FF91EF91BF91B1
:10421000AF919F918F917F916F915F914F913F915E
:104220002F910F900BBE0F900FBE0F901F901895FF
:104230001F920F920FB60F9211240BB60F922F936D
:104240003F934F935F936F937F938F939F93AF931E
:10425000BF93EF93FF93E0919A21F0919B213097C8
:1042600009F00995FF91EF91BF91AF919F918F91C7
:104270007F916F915F914F913F912F910F900BBE66
:104280000F900FBE0F901F9018951F920F920FB6B0
:104290000F9211240BB60F922F933F934F935F937E
:1042A0006F937F938F939F93AF93BF93EF93FF93FE
:1042B000E0919821F0919921309709F00995FF91AB
:1042C000EF91BF91AF919F918F917F916F915F918E
:1042D0004F913F912F910F900BBE0F900FBE0F90FB
:1042E0001F9018951F920F920FB60F9211240BB6C4
:1042F0000F922F933F934F935F936F937F938F937F
:104300009F93AF93BF93EF93FF93E0919621F0912A
:104310009721309709F00995FF91EF91BF91AF91E7
:104320009F918F917F916F915F914F913F912F91CD
:104330000F900BBE0F900FBE0F901F9018951F92FD
:104340000F920FB60F9211240BB60F922F933F933B
:104350004F935F936F937F938F939F93AF93BF938D
:10436000EF93FF93E0919421F0919521309709F01C
:104370000995FF91EF91BF91AF919F918F917F919F
:104380006F915F914F913F912F910F900BBE0F90C6
:104390000FBE0F901F9018951F920F920FB60F929D
:1043A00011240BB60F922F933F934F935F936F930C
:1043B0007F938F939F93AF93BF93EF93FF93E0917E
:1043C0009221F0919321309709F00995FF91EF9197
:1043D000BF91AF919F918F917F916F915F914F911D
:1043E0003F912F910F900BBE0F900FBE0F901F901B
:1043F00018951F920F920FB60F9211240BB60F92C1
:104400002F933F934F935F936F937F938F939F93DC
:10441000AF93BF93EF93FF93E0919021F09191219F
:10442000309709F00995FF91EF91BF91AF919F915E
:104430008F917F916F915F914F913F912F910F904D
:104440000BBE0F900FBE0F901F9018951F920F92EA
:104450000FB60F9211240BB60F922F933F934F93E9
:104460005F936F937F938F939F93AF93BF93EF93DC
:10447000FF93E0918E21F0918F21309709F00995FB
:10448000FF91EF91BF91AF919F918F917F916F912C
:104490005F914F913F912F910F900BBE0F900FBEE8
:1044A0000F901F9018951F920F920FB60F92112424
:1044B0000BB60F922F933F934F935F936F937F931E
:1044C0008F939F93AF93BF93EF93FF93E0918C21D2
:1044D000F0918D21309709F00995FF91EF91BF91EF
:1044E000AF919F918F917F916F915F914F913F918C
:1044F0002F910F900BBE0F900FBE0F901F9018952D
:104500001F920F920FB60F9211240BB60F922F939A
:104510003F934F935F936F937F938F939F93AF934B
:10452000BF93EF93FF93E0918A21F0918B21309715
:1045300009F00995FF91EF91BF91AF919F918F91F4
:104540007F916F915F914F913F912F910F900BBE93
:104550000F900FBE0F901F9018951F920F920FB6DD
:104560000F9211240BB60F922F933F934F935F93AB
:104570006F937F938F939F93AF93BF93EF93FF932B
:10458000E0918821F0918921309709F00995FF91F8
:10459000EF91BF91AF919F918F917F916F915F91BB
:1045A0004F913F912F910F900BBE0F900FBE0F9028
:1045B0001F901895CF93CFB7F894811528E09207F4
:1045C00011F461E005C0803428E0920741F462E014
:1045D00083E090E0E9DA64E083E090E016C08115C2
:1045E00029E0920741F461E084E090E0DDDA64E0E4
:1045F00084E090E00AC081159A4081F461E085E092
:1046000090E0D2DA64E085E090E0CEDA9FB7F894EB
:10461000809188248F5F809388249FBFCFBFCF91E4
:104620000895009709F463C0811524E0920711F4FE
:1046300064E005C0803821E0920721F462E080E068
:1046400090E054C0803823E0920711F461E005C087
:10465000811522E0920721F462E081E090E046C0FB
:10466000811528E0920711F461E037C0811529E037
:10467000920711F461E029C081152AE0920711F434
:1046800061E032C0803428E0920711F462E025C076
:10469000803928E0920711F464E01FC0803C28E0D4
:1046A000920711F468E019C0803C29E0920711F4E8
:1046B00068E00BC0803A28E0920711F460E10DC079
:1046C000803A29E0920721F460E184E090E00EC096
:1046D000803824E0920721F460E483E090E006C093
:1046E000803A944021F460E485E090E05DCA08954A
:1046F000FC01218125FFFCCF608380E090E00895DC
:10470000FC01218127FFFCCF808108958F929F9229
:10471000AF92BF92CF92DF92EF92FF920F931F93CF
:10472000CF93DF93EC016A017B0148015901B90184
:10473000A801A3E07695679557954795AA95D1F777
:10474000D901C80116E1B695A795979587951A9551
:10475000D1F72C8122FD08C076956795579547952E
:10476000B695A795979587954C155D056E057F05C0
:1047700008F497C0C816D906EA06FB0608F491C0EB
:104780008C8182FD04C0CC0CDD1CEE1CFF1CC5011D
:10479000B401A7019601BFD08FEF90E0A0E0B0E098
:1047A00019EF281739074A075B0758F0880F991F38
:1047B000AA1FBB1F1D3F0CF481601F5F173089F7D4
:1047C0004BC017FF49C0D701C60103E0880F991FEE
:1047D000AA1FBB1F0A95D1F7881A990AAA0ABB0A11
:1047E000812F992787FD90951E3FE4F46DEF7FEFB1
:1047F000681B790BA501940104C0220F331F441FCD
:10480000551F6A95D2F7CA01B90146015701B694FE
:10481000A79497948794680D791D8A1D9B1DA70105
:10482000960118C09C012D5F3F4FD701C60104C0FF
:10483000880F991FAA1FBB1F2A95D2F79C01AD01B3
:10484000BC01CD019695879577956795680D791D83
:104850008A1D9B1D60D01CC023E0210FD701C6011B
:1048600004C0880F991FAA1FBB1F2A95D2F79C016D
:10487000AD01BC01CD019695879577956795680D3B
:10488000791D8A1D9B1D47D02150310941095109CD
:10489000832F8F701295107F812B8F832E8381E061
:1048A00001C080E0DF91CF911F910F91FF90EF90B9
:1048B000DF90CF90BF90AF909F908F9008950F930F
:1048C0001F93CF93DF93EC018B01ABDE8D818F7350
:1048D0008D83F80186819481892B9085992311F02D
:1048E00098E001C090E0892B8D83F80140815181CF
:1048F0006281738100E018E428EE31E0CE0106DF2A
:104900009C8198609C839C8190619C83DF91CF9176
:104910001F910F910895A1E21A2EAA1BBB1BFD0146
:104920000DC0AA1FBB1FEE1FFF1FA217B307E4078E
:10493000F50720F0A21BB30BE40BF50B661F771FE6
:10494000881F991F1A9469F76095709580959095C6
:104950009B01AC01BD01CF010895052E97FB16F414
:1049600000940FD057FD05D0D6DF07FC02D046F4E7
:1049700008C050954095309521953F4F4F4F5F4F60
:10498000089590958095709561957F4F8F4F9F4FBB
:104990000895A29FB001B39FC001A39F700D811D18
:1049A0001124911DB29F700D811D1124911D089538
:1049B000F0DFA59F900DB49F900DA49F800D911DD9
:1049C00011240895B7FFF4CFF3DF821B930B0895F2
:1049D0005058BB27AA270ED094C185D130F08AD178
:1049E00020F031F49F3F11F41EF47AC10EF4E095EB
:1049F000E7FB70C1E92F96D180F3BA1762077307FE
:104A00008407950718F071F49EF5AEC10EF4E09599
:104A10000B2EBA2FA02D0B01B90190010C01CA0178
:104A2000A0011124FF27591B99F0593F50F4503E23
:104A300068F11A16F040A22F232F342F4427585F15
:104A4000F3CF469537952795A795F0405395C9F72D
:104A50007EF41F16BA0B620B730B840BBAF09150E5
:104A6000A1F0FF0FBB1F661F771F881FC2F70EC084
:104A7000BA0F621F731F841F48F487957795679557
:104A8000B795F7959E3F08F0B3CF9395880F08F040
:104A90009927EE0F979587950895F8D008F481E04F
:104AA00008950CD02EC126D140F01DD130F021F454
:104AB0005F3F19F00FC1511158C112C133D198F3A2
:104AC0009923C9F35523B1F3951B550BBB27AA278F
:104AD00062177307840738F09F5F5F4F220F331F01
:104AE000441FAA1FA9F333D00E2E3AF0E0E830D0CD
:104AF00091505040E695001CCAF729D0FE2F27D0D0
:104B0000660F771F881FBB1F261737074807AB079D
:104B1000B0E809F0BB0B802DBF01FF2793585F4F12
:104B20002AF09E3F510568F0D5C01FC15F3FECF3EE
:104B3000983EDCF3869577956795B795F7959F5FD7
:104B4000C9F7880F911D9695879597F90895E1E02B
:104B5000660F771F881FBB1F621773078407BA078A
:104B600020F0621B730B840BBA0BEE1F88F7E095E5
:104B7000089504D06894B111F8C00895DBD088F08E
:104B80009F5790F0B92F9927B751A0F0D1F0660F39
:104B9000771F881F991F1AF0BA95C9F712C0B13054
:104BA00081F0E2D0B1E00895DFC0672F782F882729
:104BB000B85F39F0B93FCCF3869577956795B39593
:104BC000D9F73EF490958095709561957F4F8F4F02
:104BD0009F4F0895E89409C097FB3EF49095809507
:104BE000709561957F4F8F4F9F4F9923A9F0F92FB3
:104BF00096E9BB279395F695879577956795B79531
:104C0000F111F8CFFAF4BB0F11F460FF1BC06F5F16
:104C10007F4F8F4F9F4F16C0882311F096E911C028
:104C2000772321F09EE8872F762F05C0662371F049
:104C300096E8862F70E060E02AF09A95660F771F5D
:104C4000881FDAF7880F9695879597F90895990F39
:104C5000BB0B550FAA0BE0E8FEEF16161706E80788
:104C6000F90770F012161306E407F50760F0BA179B
:104C700054F031F42617370748075907A7951BF456
:104C8000B901CA01BA2FB69597950895990F0008F2
:104C9000550FAA0BE0E8FEEF16161706E807F9070E
:104CA000C0F012161306E407F50798F0621B730BA9
:104CB000840B950B39F40A2661F0232B242B252B2A
:104CC00021F408950A2609F4A140A6958FEF811DCD
:104CD000811D089597F99F6780E870E060E008956E
:104CE0009FEF80EC089500240A9416161706180604
:104CF0000906089500240A941216130614060506E0
:104D00000895092E0394000C11F4882352F0BB0F70
:104D100040F4BF2B11F460FF04C06F5F7F4F8F4FD3
:104D20009F4F089557FD9058440F551F59F05F3F0E
:104D300071F04795880F97FB991F61F09F3F79F0BD
:104D400087950895121613061406551FF2CF46953F
:104D5000F1DF08C0161617061806991FF1CF8695C1
:104D60007105610508940895E894BB2766277727A5
:104D7000CB0197F908958ADF08F48FEF08950BD0DF
:104D8000C0CFB1DF28F0B6DF18F0952309F0A2CF2D
:104D9000A7CF1124EACFC6DFA0F3959FD1F3950FDB
:104DA00050E0551F629FF001729FBB27F00DB11DAF
:104DB000639FAA27F00DB11DAA1F649F6627B00D3F
:104DC000A11D661F829F2227B00DA11D621F739F28
:104DD000B00DA11D621F839FA00D611D221F749F36
:104DE0003327A00D611D231F849F600D211D822F7D
:104DF000762F6A2F11249F5750408AF0E1F08823C4
:104E00004AF0EE0FFF1FBB1F661F771F881F9150D0
:104E10005040A9F79E3F510570F05CCFA6CF5F3F91
:104E2000ECF3983EDCF3869577956795B795F79503
:104E3000E7959F5FC1F7FE2B880F911D969587958B
:104E400097F9089577DFE0F09E37D8F09639B8F4F7
:104E50009E3848F4672F782F8827985FF9CF86957A
:104E60007795679593959539D0F3B62FB1706B0F01
:104E7000711D811D20F4879577956795939502C0E4
:104E80001CC073CF882371F4772321F09850872BAF
:104E9000762F07C0662311F499270DC09051862BF9
:104EA00070E060E02AF09A95660F771F881FDAF7A6
:104EB000880F9695879597F908959F3F31F0915007
:104EC00020F4879577956795B795880F911D9695EE
:104ED000879597F90895CF93DF938230910510F469
:104EE00082E090E0E0919724F091982420E030E077
:104EF000A0E0B0E0309739F140815181481759075F
:104F0000B8F04817590771F482819381109729F0FE
:104F100012968D939C9313972CC080939724909313
:104F2000982427C02115310531F04217530718F096
:104F3000A901DB0101C0EF019A01BD01DF0102807F
:104F4000F381E02DD7CF21153105F9F0281B390B5E
:104F50002430310580F48A819B816115710521F02F
:104F6000FB018283938304C08093972490939824B9
:104F7000FE01329644C0FE01E20FF31F819391932C
:104F800022503109288339833AC0209195243091E9
:104F90009624232B41F4209102203091032020936A
:104FA00095243093962420910020309101202115E2
:104FB000310541F42DB73EB74091042050910520B2
:104FC000241B350BE0919524F0919624E217F3070A
:104FD000A0F42E1B3F0B2817390778F0AC014E5F69
:104FE0005F4F2417350748F04E0F5F1F40939524FD
:104FF000509396248193919302C0E0E0F0E0CF01BA
:10500000DF91CF910895CF93DF93009709F487C084
:10501000FC01329712821382C0919724D091982478
:10502000209781F420813181280F391F80919524A8
:10503000909196248217930779F5E0939524F09345
:1050400096246DC0DE0120E030E0AE17BF0750F4BB
:1050500012964D915C9113979D014115510509F1EF
:10506000DA01F3CFA283B38340815181840F951F6E
:105070008A179B0771F48D919C911197840F951F4E
:1050800002968083918312968D919C9113978283CF
:1050900093832115310529F4E0939724F093982404
:1050A0003EC0D9011296ED93FC9313974D915D91FB
:1050B000A40FB51FEA17FB0779F480819181840F53
:1050C000951F0296D9018D939C93119782819381AC
:1050D00012968D939C931397E0E0F0E08A819B8178
:1050E000009719F0FE01EC01F9CFCE01029628815C
:1050F0003981820F931F209195243091962428178F
:10510000390769F4309729F4109297241092982463
:1051100002C012821382C0939524D0939624DF910B
:10512000CF910895DC0101C06D9341505040E0F7EC
:1051300008950F931F93CF93DF93EC018B0100979A
:1051400031F46115710519F480E090E037C06EE02C
:1051500070E081E090E06CD0FC010097A9F380E85A
:1051600083830115110571F00287138781E883831A
:105170008091992490919A24892B21F4E093992489
:10518000F0939A242097C9F0C087D18783818260E9
:10519000838380919B2490919C24892B71F4E093CC
:1051A0009B24F0939C2480919D2490919E24892B94
:1051B00021F4E0939D24F0939E24CF01DF91CF91C1
:1051C0001F910F91089552D06081718182819381E6
:1051D00008954CD0808191810895262FE0ECF1E074
:1051E000378537FDFDCF3485377F3487378531FFED
:1051F00009C036E3328738ED34BF31E03387378575
:1052000037FDFDCF33E3328780839183128224837D
:1052100025E3228728ED31E024BF338701960895E6
:10522000242FDCDF252FDADF00C0D7DF272FD6CFF2
:105230000F931F93CF93DF93869F8001879F100D5D
:10524000969F100D1124C80146DEEC01009721F055
:10525000A80160E070E066DFCE01DF91CF911F9181
:105260000F91089503D0808199270895E0ECF1E033
:10527000378537FDFDCF348538603487FC01E05039
:10528000F04F0895F894FFCF00009F242000C8003D
:1052900000000310060100001800000000000000DC
:1052A00000000000000000000000000000000008F6
:1052B00030000000000000000000000000000000BE
:1052C0000000000000000000C20100030000000018
:1052D000A00978004010BA284010D626260F6C107E
:1052E0006020E80018082A254010280044102800F3
:1052F0004010BC0BA40B8C0B740B5C0B63064306B9
:10530000C4054505C60447040B04E403A903680368
:105310003003F302A8027E023102EA01001040814C
:1053200020A0A4A6A83FAD8AAEC8D300D520DA122B
:10533000DB00D922AF35071907FD06DF06C106A33A
:1053400006101C1C1E1E1EB605D405F20510062EE6
:10535000064C066A06880622231FF102F70174072D
:10536000C4057D05E20A8D06840B190B87074E10D4
:10537000D008360C250F8A08170C5411132BD06B4C
:105380005A00AA0043014D01B80169031101FC0351
:105390009702E5038707ED05A60964141D13DF1DB9
:1053A00049280E38A354AC0A6C0A2C0A0C0AEC09E2
:1053B0001020201010862810101027E80364000A1F
:1053C0000001006E1A121E00FFFFFFFFFFFFFFFF2C
:1053D000FFFFFFFFFFFFFFFFFFFFFFFFFFFFFFFFDD
:1053E000FFFFFFFFFFFFFFFFFFFFFFFFFFFFFFFFCD
:1053F000FFFFFFFFFFFFFFFFFFFFFFFFFFFFFFFFBD
:10540000FFFFFFFFFFFFFFFFFFFFFFFFFFFFFFFFAC
:020000021000EC
:00000001FF
