:10000000E9C5000006C6000004C6000002C60000E4
:1000100000C60000FEC50000FCC50000FAC50000D7
:10002000F8C50000F6C500000C9436200C9453204F
:10003000F0C50000EEC500000C94C3200C94F02025
:100040000C941D210C944A210C9477210C94A4212A
:100050000C94D1210C94FE210C942B220C94582248
:10006000D8C50000D6C50000D4C50000D2C5000028
:10007000D0C50000CEC50000CCC50000CAC5000038
:10008000C8C50000C6C50000C4C50000C2C5000048
:10009000C0C50000BEC50000BCC50000BAC5000058
:1000A000B8C50000B6C50000B4C500000C94970D9B
:1000B000B0C50000AEC50000ACC500000C94932391
:1000C0000C94C0230C94ED230C941A240C94472414
:1000D0000C9474249EC500009CC500009AC50000C5
:1000E00098C5000096C5000094C5000092C50000A8
:1000F00090C500008EC500008CC500008AC50000B8
:100100000C94BB0D86C5000084C5000082C50000AC
:1001100080C500007EC500007CC500007AC50000D7
:1001200078C5000076C5000074C5000072C50000E7
:1001300070C500000C9485220C94B2220C94DF222E
:100140000C940C230C9439230C94662362C5000094
:1001500060C500005EC500005CC500005AC5000017
:100160000C94D40D56C5000054C5000002000008D0
:100170000840010001000008084801007FFE7C08DB
:1001800008447FFC4002440848440100888445FE3E
:1001900028400280048044082FFE04400480440864
:1001A00008400A2010807C080840311808804488E4
:1001B0001840C0060880444828A00100FFFE4448BB
:1001C000C8A00888014044080890488402207C08A0
:1001D0000910481204104408090848121808002899
:1001E0000A0487F0600400100C02810316820203E7
:1001F0000415161783020405141517840205061347
:10020000141785020613178E02178F030405169024
:10021000041591051415169214179313179C0613C1
:1002200014179D051415179E041516179F0316A085
:10023000FF81031782020304178302040517840257
:1002400005061785020613178E02178F030405167D
:1002500090041591030405141516920205141793C2
:10026000020613179C0205061314179D02040514B9
:1002700015179E0203041516179F0316A0FF81028F
:10028000168203168304168405168512168D13161E
:100290008E14158F9014159113169212169D131625
:1002A0009E14169F1516A0FF8103168202030415E3
:1002B000830204051484020506138502068E0214C7
:1002C0008F03040515900415910304051415169267
:1002D0000205141793020613179C02050613141740
:1002E0009D0204051415179E0203041516179F039B
:1002F00016A0FF810316820203041583020405146D
:100300008402138502068E02148F030405159004DF
:100310001591051415169214179313179C061314B0
:10032000179D051415179E041516179F0316A0FF99
:100330008102038202041617830205151784020640
:10034000141785020613178E02178F0304051690E3
:10035000041591051415169214179313179D14176D
:100360009E15179F1617A0FF8102158203141516FC
:10037000830413141684051213168512168E0412A4
:1003800013168F041314159004149104121415926B
:1003900013169312169C051213169D041314169E21
:1003A000031415169F0215A0FF810316820415166B
:1003B0001783051415178406178513178E05178FD5
:1003C0000516900515910304051492020593020683
:1003D0009C020506139D020405149E020304159F4A
:1003E0000316A0FF81070882060883050884040815
:1003F0008E05088F0607909106079205089304085A
:100400009D05089E06089F0708A0FF810217850228
:100410000613178D020513178E030415168F90030C
:10042000041516910205141792020613179C020573
:10043000061314179D0204051415179E02030415D4
:1004400016179F0316A0FF00000010000020807FF9
:10045000FC00F823F8108002403F00100003F01267
:10046000480100100040900A50FFFE800021100259
:1004700040010047FE09123FFE1FF040801212208B
:100480000011101080640E20001FF01100290020C0
:1004900000111021F8010020001FF0E008FFFE20ED
:1004A0000001002008054020003FF82008092040F6
:1004B000000100200831184000FFFE2050C10680D6
:1004C000000000002001001001000000208000F862
:1004D000008023F810803F003FFE100003F0010071
:1004E000222010004090FFFE2220800021100100F9
:1004F0003FFC47FE09121FF022204080121211100B
:1005000022201080640E1FF023E01100290011103A
:10051000200021F801001FF02FF0E008FFFE01008D
:100520002410200805403FF842202008092001003F
:1005300041C020083118FFFE86302050C10600005F
:10054000380E0020010100010000002080010000A1
:100550008023F8108001003FFE100003F00100220C
:1005600020100040903FF822208000211021083FF9
:10057000FC47FE0912210822204080121221082285
:10058000201080640E210823E0110029002108209A
:100590000021F801003FF82FF0E008FFFE210824B9
:1005A00010200805400100422020080920010041D8
:1005B000C020083118010086302050C106010038E3
:1005C0000E002001200001000000208021FC00809E
:1005D00023F8108020083FFE100003F0FC102220BA
:1005E00010004090403022208000211050483FFCF5
:1005F00047FE09129084222040801212FF0222201E
:100600001080640E100023E01100290011FC20006E
:1006100021F801001C202FF0E008FFFEF02024103C
:10062000200805405020422020080920102041C009
:100630002008311813FE86302050C1061000380EF5
:10064000002001020001003FF0201020103FF020A8
:100650001020103FF02208211020A0204024202844
:10066000183006089008880888108017FE30A030DF
:10067000A050A090A010A01120112211221222122D
:100680001E1400100013FC208420884888F8901065
:100690009C20844144F944412801281A10E228444E
:1006A00044018202000100008000800000FFFE0083
:1006B000000000044004200810080810082004402E
:1006C0000400007FFC02000200020002003FF00470
:1006D00010041004100410081008100810FFFE0089
:1006E0000000007FFC44444444444444444444489F
:1006F00044483C5004600440047FFC400400000077
:10070000007FFC00000000000000003FF800000037
:1007100000000000000000FFFE00000000000000DC
:10072000003FF80000000000000000000000000092
:10073000000000FFFE0000000000000000000000BC
:10074000000000FFFE020040000787FC10000010C0
:100750000001004001F8048413F0FC10007FFC7FCE
:10076000F10804442110841000444480010807FC6F
:10077000491084900048253FC1FFC0007920FC90BB
:100780000010100001081FFF11402090000000FF22
:10079000C108044421782090C01FF000417F87FCED
:1007A0004109FE90C0010000414084447908229034
:1007B00000010000414887FC0190229000010000E8
:1007C0004148804001504210C001000052160FFE07
:1007D0001A204210C0010000322180406250821075
:1007E000007FFC0014C05FFF048D0C70000100202E
:1007F000000300100002002048E2771049264970EB
:10080000492449004924490078EC49004028000067
:1008100041C000000000300000100048000010003F
:10082000080000200010423A25CE084246263148F2
:10083000424244213042424421004242442100428B
:100840004244210066468421005A3A842100400235
:100850000000004042000000403C78C04703E30035
:1008600044E0C882030044A0C082000044B1408339
:10087000C0004C9141006000789A43002000408AFB
:1008800046002000408E441A630040844F99C37F85
:10089000C7878F8003FC0030638710C003FC0030E3
:1008A0003387206002000030338730600200303030
:1008B00032CB30600200303032CB006002000030BA
:1008C00032CB00C002F0003062CB00C00318003F02
:1008D000C2D30180020C003002730200000C003011
:1008E00002730400000C003002730820060C003074
:1008F00002731020060C003002232023041800305D
:1009000002233FE3021830780727BFE301F0307875
:10091000C0460E1844E0CE0B1844A0C2110044B1EA
:100920004211004C91421100789A421100408A42D3
:100930001100408E421A1840844F8E1800000100AA
:1009400000000000003FFE010020003FF0002000FA
:10095000010011F800100020803FF810080010007E
:100960002080210800081FF00020802108000800D6
:1009700010002FFC2108F00800101820843FF81107
:10098000F8FFFE182084210811080100002104014D
:100990000011002108002104110011001190002213
:1009A0000409001100056000220406001502092058
:1009B000184404058019023118184828187010FED0
:1009C000C506009010E00E00000200001010081094
:1009D0000820FFFE00003E08224822483E482248E8
:1009E00022483E48220822082A28241000001FF826
:1009F0001008100810081FF81008100810081FF839
:100A000010081008200820084028801000003FF837
:100A10000100010001000100FFFE010002800280D0
:100A200004400440082010102008C00601000008FF
:100A30000100000801007C0801004408010045FE97
:100A4000111044081108440811047C08210444884A
:100A500021024448410244488102440801007C08C4
:100A6000010044080500002802000010004010208A
:100A70000440102004203C2008202020101041FCBD
:100A80002008BD24400411249FE211240420FD24E9
:100A9000042011FC04201124082010200820142018
:100AA00010201820214010204080002008201C2009
:100AB000F02010A810A4FCA2112231203A245424C2
:100AC000542890081010102010C0130000000000DF
:100AD00000000000000003FFFFFFFFE00000000433
:100AE000000000001000000008739C707C080000EB
:100AF00000082122202208000000082141202108AE
:100B000000000008214120210800000008214120A8
:100B10002108000000083F412021080000000821B2
:100B20004120210800000008214120210800000088
:100B3000082141202108000000082122212208006C
:100B4000000008739C7F7C08000000040000000087
:100B50001000000003FFFFFFFFE000001FFFC010B8
:100B6000004076DB4046DB4046DB4076DB40100051
:100B7000401FFFC01FFFC010004070DB4040DB4043
:100B800040DB4070DB401000401FFFC01FFFC01063
:100B90000040701B40401B40401B40701B40100039
:100BA000401FFFC01FFFC0100040700340400340C3
:100BB0004003407003401000401FFFC01FFFC010E3
:100BC0000040700040400040400040700040100075
:100BD000401FFFC011241FBECFEFCDBFDFE2DEBF3D
:100BE00010E2A0E0B0E2E6E1F6E500E00BBF02C0F3
:100BF00007900D92AC3FB107D9F724E2ACEFB0E219
:100C000001C01D92AF35B207E1F70E940D0E0C94A2
:100C1000092BF6C980E090E0019685339105E1F754
:100C200008950F931F93CF93DF93CDB7DEB72A9725
:100C3000CDBFDEBF8C0180E092E09CD4882321F000
:100C400080E092E084D4E6DFAE01495F5F4F61E06F
:100C500080E092E018D5BE016F5F7F4F80E092E0A8
:100C6000D6D499818A81997E906199838F78023058
:100C7000110521F48A8387E08C830EC080628A8309
:100C800082E08C830031110538F01F820051000F83
:100C9000000F000F088706C081E08F83000F000F50
:100CA000000F0887BE016F5F7F4F80E092E06CD439
:100CB000AE01495F5F4F61E080E092E0C8D4AADFF7
:100CC0002A96CDBFDEBFDF91CF911F910F9108957E
:100CD00080E092E04FD4811104C080E092E020D403
:100CE00099DF9FB7F894809100028460809300029E
:100CF0009FBF80910602982F917080FFFACF90934A
:100D000006022FB7F89480912402909125022FBFFC
:100D100097FD08C02FB7F894809124029091250286
:100D20002FBF089580E090E0089580E090E0019664
:100D300085339105E1F7089540E464E771E284E7C3
:100D400093E20E94B01F40E464E772E28AE793E214
:100D50000C94B01FCF92DF92EF92FF92CF93DF936C
:100D600083E090E05EDF80E092E0DAD3DEDFC0E097
:100D7000D0E4C12CD12C7601ABDFC80ED91EE11C0A
:100D8000F11C21972097C1F780E092E0E0D3CDDFFE
:100D90008EE0F694E794D794C7948A95D1F78AE0C9
:100DA000C80ED11CE11CF11CC0920620D092072075
:100DB000E0920820F0920920DF91CF91FF90EF9010
:100DC000DF90CF9008952F923F924F925F926F9253
:100DD0007F928F929F92AF92BF92CF92DF92EF92CB
:100DE000FF920F931F93CF93DF93CDB7DEB7669734
:100DF000CDBFDEBFD82EC92E6F8348874111BAC13F
:100E0000209006203090072029863A86E82FF92F77
:100E100080E090E0462E512C498A5A8A29883A88E7
:100E20008215930538F4128613861486158601966A
:100E30007896F4CF80E092E09DD3882321F080E083
:100E400092E085D372DF83E090E0EBDE80E092E019
:100E500067D36BDF9FB7F894809100028460809322
:100E600000029FBF29853A85E0E0F8E0E983FA8334
:100E7000E12CF12C00E010E0612C712C40E050E0FE
:100E800080910602982F917080FFFACF909306020E
:100E90006FB7F89480912402909125026FBF97FD5F
:100EA00008C08FB7F894E0912402F09125028FBF1B
:100EB00002C0E0E0F0E09FB7F89480910002846007
:100EC000809300029FBF4115510569F4225E3F4F98
:100ED0002E173F070CF0B9C029843A842E163F061E
:100EE0000CF44DC0B2C04130510509F06DC04F0146
:100EF000AA2497FCA094BA2C8091062090910720F8
:100F0000A0910820B09109208B8B9C8BAD8BBE8B60
:100F100088169906AA06BB0630F1BF01660D771D3B
:100F20006217730704F1BF0168517C4F62177307A2
:100F3000D4F029843A84E215F305BCF0211531057B
:100F400079F0B801A3E076956795AA95E1F72801B5
:100F5000461A570A29873A87E415F50520F005C097
:100F600019861A8602C043E050E029853A85260D8D
:100F7000371D2E173F071CF04230510561F43F0129
:100F800029843A846218730841E050E000E010E0E0
:100F9000E12CF12C5AC041305105C9F48B899C8950
:100FA000AD89BE89800F911FA11DB11D88159905BE
:100FB000AA05BB0528F48F01AB89BC890A1B1B0B52
:100FC000BFEFEB1AFB0A41C042305105C1F243307A
:100FD0005105D9F59801D7010E9490269B01AC01DB
:100FE000D8010E949F262CE0969587957795679566
:100FF0002A95D1F7AD2DBC2D40E050E029883A88E4
:101000004215530500F52C9130E0E216F306B8F0D6
:1010100011962C91119730E0E216F30680F41A969F
:101020008D909D90AD90BC901D97860E971EA81E2A
:10103000B91E1A968D929D92AD92BC921D974F5FEC
:101040005F4F5896DBCF40E050E029813A81215034
:10105000310929833A83232B29F029853A85E987A9
:10106000FA870ECF80910602982F917080FFFACFF9
:10107000909306022FB7F894809124029091250254
:101080002FBF97FD07C02FB7F8948091240290914D
:1010900025022FBF80E092E05AD247DE84E090E044
:1010A000C0DD80E092E03CD240DE20E830E080E02D
:1010B00090E0DC015FB7F8944091000244604093F7
:1010C00000025FBF40910602542F517040FFFACFDB
:1010D000509306026FB7F894409124025091250274
:1010E0006FBF57FD0CC06FB7F89440912402509128
:1010F00025026FBF662757FD6095762F03C040E03D
:1011000050E0BA01840F951FA61FB71F2150310967
:101110002115310579F607E0B595A795979587953F
:101120000A95D1F782579640A109B109ED2DFC2D02
:1011300020E030E029883A8822153305C0F41816DB
:1011400019061A061B0644F41BE0880F991FAA1FF4
:10115000BB1F1A95D1F703C080E090E0DC018687C1
:101160009787A08BB18B2F5F3F4F7896E3CF80E0BE
:1011700092E0EDD1D98ACA8A04E713E2F4E72F2E70
:10118000F1E23F2E1B821C82198249805F80451448
:1011900009F464C14884442061F0A989BA8916968B
:1011A0001D921D921D921C921997F80113821282B2
:1011B00042C1D80113968C91139712964C911297B5
:1011C0002B813C812C583C4DF9019581841B89234E
:1011D000448184130FC013964C91139712968C91EF
:1011E0001297481739F012968C918F5F8923D80196
:1011F00012968C93E989FA894285538564857585B1
:1012000086849784A088B188D80113969C911397FF
:1012100012968C911297F901F580981B9F21848179
:101220009817F1F01396EC901397F694FE20ED9139
:10123000FC9184E0F89EE00DF11D1124D501C4015C
:10124000840F951FA61FB71F80839183A283B3834A
:1012500081E08E0DD90115969C918923F801838335
:1012600040E050E060E070E0CB01F101E40FF51FD9
:10127000C080D180E280F3806C0D7D1D8E1D9F1D8E
:101280004C5F5F4F4115F1E05F0779F7D801139686
:10129000CC90139712964C91C41AF9012581C22261
:1012A0002C2D30E040E050E00E94522649015A01C6
:1012B000A989BA891A962D933D934D935C931D97F6
:1012C0001696CD90DD90ED90FC901997C216D3063E
:1012D000E406F50694F412968D919C91139701966D
:1012E0008F3FBFEF9B0710F08EEF9FEFE989FA89E0
:1012F000828393831482158213C0A989BA891496B4
:101300008D919C91159701968F3FBFEF9B0710F031
:101310008EEF9FEFE989FA89848395831282138285
:10132000240135014C185D086E087F0877FE08C05F
:101330007094609450944094411C511C611C711C29
:10134000C301B2010E94B3272CEA35EC47EA56E309
:101350000E94862869877A878B879C87A989BA89A2
:1013600012962D913C91139714968D919C911597FF
:10137000821793070CF4C901BC01660F771F660F33
:10138000771F6F5F7F4F882777FD8095982F0E948A
:10139000B3279B01AC0169857A858B859C850E946A
:1013A00086289B01AC01C301B2016F5F7F4F8F4F55
:1013B0009F4F95958795779567952D873E874F87A2
:1013C000588B0E94B3272D853E854F8558890E94F2
:1013D000EE272B013C01C701B601C814D904EA0469
:1013E000FB047CF40E94B327A30192010E94B02663
:1013F0000E948027E989FA896683778380879187AD
:1014000010C00E94B327A30192010E94AF260E9440
:101410008027A989BA8916966D937D938D939C93A5
:101420001997C301B2010E948027E989FA8962876E
:10143000738784879587F981FF5FF98329893A89C2
:10144000285E3F4F298B3A8B0A5F1F4F4B815C818F
:101450004A5F5F4F4B835C83339497CE6696CDBFD4
:10146000DEBFDF91CF911F910F91FF90EF90DF9042
:10147000CF90BF90AF909F908F907F906F905F9034
:101480004F903F902F900895CF93DF931F92CDB749
:10149000DEB78091842390918523E0918023F091A1
:1014A0008123BE016F5F7F4F09958981992787FD51
:1014B00090950F90DF91CF910895682F80918423AC
:1014C00090918523E0918223F0918323099597FFE2
:1014D00003C08FEF9FEF089581E090E0089581159C
:1014E000924069F48091FC2091E0980F9093FC2049
:1014F000811105C062E081E090E00C949B1F08958B
:101500008115924061F48091FC2081508093FC20F1
:10151000811105C062E081E090E00C94A61F08955F
:101520001F93CF93DF93EC011FB7F894D8DF888126
:10153000816088831FBF9FB7F894E8E4F4E280815C
:101540008F5F80839FBFDF91CF911F910895CF93CD
:10155000CFB7F894FC0120812E7F2083D1DFCFBF4D
:101560009FB7F894E8E4F4E28081815080839FBFC4
:10157000CF9108958115924029F481E09091FC204B
:10158000911101C080E00895FF920F931F93CF93B4
:10159000DF93EB0181159240A1F561E270E082E0FA
:1015A0008ED0082F10E060E270E082E088D0102F2B
:1015B0000027082BFFB6F89480E092E090DF20919E
:1015C0000002217082E08093000200930C021093CD
:1015D0000D028C819D81809318029093190289815C
:1015E000809302028B81809304028A81809303029C
:1015F0008881809301022093000280E092E080DFE6
:10160000FFBEDF91CF911F910F91FF900895FF9240
:101610000F931F93CF93DF93EC018B01FFB6F894E8
:101620005EDF888D998DF801848395838A8181831B
:101630008C8183838B81828389818083CE0160DF6B
:10164000FFBEDF91CF911F910F91FF900895FF9200
:101650000F931F93CF93DF93EC018A01FFB6F894A9
:101660003EDFF801808188A382818AA3818189A3DA
:1016700083818EA3CE0144DFFFBEDF91CF911F9106
:101680000F91FF900895FF920F931F93CF93DF93D5
:10169000EC018A01FFB6F89422DF88A1F80180836B
:1016A0008AA1828389A181838EA18383CE0128DFD1
:1016B000FFBEDF91CF911F910F91FF900895409150
:1016C000CA01E62FF72F8093CA0184914093CA0183
:1016D0000895CF92DF92EF92FF92CF93DF938091A4
:1016E000680680FF2CC08091CF0187FDFCCF88E089
:1016F00092E00E94B02AEC018930910510F0C1E01F
:10170000D0E08091CF0187FDFCCF0E94D41F6B01F8
:101710007C018AE092E00E94B02A9601281B390BD6
:10172000C901892F99278695869586958C0F9D1FCF
:101730008930910508F452C088E090E04FC082E003
:1017400090E06FDAC5DA7C0180E092E000DF809102
:10175000680681FF03C03DE0E30EF11C20910B20E1
:1017600030910C20AFE1B0E00E9490266E0D7F1DFD
:10177000811D911D25E096958795779567952A950A
:10178000D1F79B0160930B2070930C20EFEBF0E2FC
:1017900080E090E0419151912417350720F00196A7
:1017A00088309105B9F780FF13C0282F332727FD14
:1017B000309540910A20241B310947FD339537FFAE
:1017C00003C0319521953109223031051CF08E7FFF
:1017D00080930A20C0900A208C2D90E0DF91CF9159
:1017E000FF90EF90DF90CF9008959091680690FD64
:1017F00020C0882319F01092FD2008958091FD20CB
:10180000811117C08091CF0187FDFCCF62DFBC0141
:1018100088E092E00E94DC2A8091CF0187FDFCCF16
:101820000E94D41F8AE092E00E94DC2A81E080932B
:10183000FD200895FF920F931F93CF93DF93EC0148
:1018400061111092FE20F090FE208091CF0187FD63
:10185000FCCF80E092E00E94B02A282F291B2F772E
:10186000F21648F52091CF0127FDFCCF8C011127FE
:101870000F191109015011090F73112783E0000F8F
:10188000111F8A95E1F7C8010E94AA2A688379830B
:101890008A839B838091CF0187FDFCCFC80104968A
:1018A0000E94AA2A6C837D838E839F83F394F09297
:1018B000FE2081E003C0F110C4CF80E0DF91CF9122
:1018C0001F910F91FF900895EF92FF920F931F9336
:1018D000CF93DF937C018091CF0187FDFCCF80E027
:1018E00092E00E94B02AEC01891B8F77803458F077
:1018F0008091CF0187FDFCCF6D2F6F5F6F7781E007
:1019000092E00E94B42A8091CF0187FDFCCF8E0126
:101910000F73112793E0000F111F9A95E1F7F7015C
:101920004081518162817381C8010E94D72A8091D0
:10193000CF0187FDFCCFF701448155816681778116
:10194000C80104960E94D72A8091CF0187FDFCCF61
:101950006C2F6F5F6F7780E092E0DF91CF911F91E6
:101960000F91FF90EF900C94B42AAB01BC018091D1
:10197000CF0187FDFCCF84E092E00C94D72A8091C0
:10198000CF0187FDFCCF84E092E00C94AA2ACF938C
:10199000DF93EB010E9447258883DF91CF91089563
:1019A0000C943F25CF92DF92EF92FF92CF93DF937B
:1019B000EC01CE80DF80E884F9848E859F85A8893C
:1019C000B989C81AD90AEA0AFB0A72E0F694E794C0
:1019D000D794C7947A95D1F7662331F043E351E267
:1019E000C701B6010E94E31DC701B6010E949A1EFD
:1019F0009B01AC018E859F85A889B98962E0B59568
:101A0000A795979587956A95D1F7280F391F4A1F93
:101A10005B1F283E83E038074105510560F0285ED2
:101A200033404109510990EAC92E9FE0D92EE12C9B
:101A3000F12CE1E004C0C12CD12C7601E0E0F0E013
:101A4000EE0FFF1FDF01AE52BF4D0D90BC91A02DD8
:101A50000E949F26EA52FF4D2081318140E050E0F4
:101A60000E9452262C0D3D1D4E1D5F1D203A86E81A
:101A7000380781E04807510520F02FE936E841E0BA
:101A800050E0CA01B901DF91CF91FF90EF90DF9054
:101A9000CF90089580E090E001968A3224E092078A
:101AA000D9F7089562DF0E94D41F665F7F4F8F4F82
:101AB0009F4F0E94FC1F81E098CECF92DF92EF9261
:101AC000FF929B01AC01203A8FE038074105510598
:101AD00060F0205A3F4041095109E1E0B8EECB2EB9
:101AE000B3E0DB2EE12CF12C04C0E0E0C12CD12CC2
:101AF0007601F0E0EE0FFF1FDF01AA52BF4D0D90FF
:101B0000BC91A02D0E949F26EE52FF4D2081318175
:101B100040E050E00E9452262C0D3D1D4E1D5F1DE1
:101B2000CA01B901FF90EF90DF90CF9008951F9206
:101B30000F920FB60F9211240BB60F928F93EF9363
:101B4000FF93E8E4F0E080818E7F8083E09135218F
:101B5000F09136211082E0913521F091362183E019
:101B60008183FF91EF918F910F900BBE0F900FBE6D
:101B70000F901F9018951F920F920FB60F9211247D
:101B80000BB60F928F93EF93FF93E8E4F0E0808120
:101B90008E7F8083FF91EF918F910F900BBE0F90FE
:101BA0000FBE0F901F9018951F920F920FB60F92B5
:101BB00011240BB60F922F933F934F935F936F9324
:101BC0007F938F939F93AF93BF93EF93FF93CF93A5
:101BD000DF931F92CDB7DEB7BE016F5F7F4F80915D
:101BE000482090914920D3DE89810E94FC1B0F90F0
:101BF000DF91CF91FF91EF91BF91AF919F918F9125
:101C00007F916F915F914F913F912F910F900BBEFC
:101C10000F900FBE0F901F901895CF93DF93CDB705
:101C2000DEB72F97CDBFDEBF0E94761F0E941B201C
:101C3000A6DE0E94C21F82E59DE00E9416200E943F
:101C4000D41F665F7F4F8F4F9F4F0E94FC1F809174
:101C5000A20081608093A20080E099E00E94A1240C
:101C600080910109887F8093010980ED97E080933E
:101C700026099093270980910009807F86608093D0
:101C8000000964E0E62EE092820678E0F72EF092FA
:101C9000820680E88093620601E00093E1070093EA
:101CA000E60712E0109361061093660680E28093C7
:101CB00061068093660680E48093610680936606E1
:101CC000BE016F5F7F4F80E092E0A1DC00930206CF
:101CD00089819A819F7890629A83817E80618983CD
:101CE0001B821C8382E090E00E941106BE016F5FA0
:101CF0007F4F80E092E048DCE0926206F09262065C
:101D00008091A20082608093A20078940091482084
:101D100010914920009384231093852380ED9CE04B
:101D2000809382239093832387EC9CE0809380238D
:101D30009093812380914320909144208D839E83B2
:101D400080914520909146208F83988780914720ED
:101D5000898740913F2050914020609141207091AF
:101D6000422049835A836B837C83003A28E0120720
:101D700031F460E183E090E00E949B1F09C0003ACB
:101D800049E0140729F460E184E090E00E949B1F81
:101D9000BE016F5F7F4FC8010E94262664E47AE08F
:101DA0008DE59AE00E94602AE0914820F091492058
:101DB00083818F7C806283830E94671780E2809397
:101DC000650682E08093E507789481E080936A0657
:101DD00083E08093690694E090938A068093890655
:101DE00082E08093920680914800817F8660809394
:101DF00048000E949C0601E010E02224239454E64F
:101E0000C52ED12CE12CF12C80910C0980FFFCCF48
:101E100080910C09816080930C098091780081FF8A
:101E20000CC06FE780E092E00E94B42A52E0509329
:101E30007800009333211093342180912F219091C9
:101E40003021A0913121B09132210196A11DB11D07
:101E500080932F2190933021A0933121B093322190
:101E60006FEF70E260933521709336212FEC30E2F2
:101E700080E091E2DB0141E0A42E41E2B42EF901C1
:101E800041919F01642F669566956695F0E26F9F7C
:101E9000B00111247A5FFB0160854770F80102C030
:101EA000EE0FFF1F4A95E2F76E23F501408166238E
:101EB000B1F0411106C04C91433018F02082FC0172
:101EC0001082FC016081462F50E04F3E51051CF40A
:101ED00041E0460F01C040EFFC01408314C04423A1
:101EE00039F0FC014081433018F0F50110821C925A
:101EF0006C91462F50E04F3E51051CF441E0460FD7
:101F000001C040EF4C9303961396F3E0AF0EB11C63
:101F100040E2223D340709F0B2CF80913321909105
:101F200034212091FF20009789F4243699F580917F
:101F3000012181112FC080910D2090910E2080935E
:101F40003321909334218824839425C0243621F4AE
:101F500030910121332399F03CEF320F303648F4B1
:101F6000209101212223B1F020910021233091F40E
:101F700006C0293C78F02091012121110BC08093EB
:101F80000D2090930E20109233211092342188243A
:101F9000839401C0812C809133219091342100974A
:101FA00021F120910521223321F43091072133239F
:101FB00059F024502E32C8F4209107212223A9F091
:101FC00020910621233089F48330910541F0019658
:101FD00080933321909334218824839406C0009306
:101FE000332110933421882483948091332190915C
:101FF0003421009719F120910221223321F43091EC
:1020000004213323C1F03CEF320F3E3248F480917B
:102010000421882399F080910321833079F40BC047
:10202000223360F020910421211108C0BB24B39415
:10203000039721F404C0BB24B39401C0B12C409198
:102040001F2150912021609121217091222186E849
:1020500093E24C875D876E877F870E94D31D209116
:102060003321309134214C855D856E857F858035A7
:1020700049F018F48D34E1F03EC0873579F08D36A3
:10208000D1F039C0232B29F400933321109334214C
:102090000BC3109233211092342106C32130310535
:1020A00099F762E070E06093332170933421FCC2B1
:1020B000232B51F3F9C2232B71F44C875D876E8774
:1020C0007F870E94591D00933321109334217F850F
:1020D0006E855D854C854C875D876E877F8739D798
:1020E0004C855D856E857F8586E893E20E94381C6D
:1020F00010928A23D9C2811002C08B2D01C081E0C9
:102100008170A82E30906806732D7170372E209143
:102110003321309134212115310511F4772331F029
:1021200080E28093650682E08093E507811010923B
:102130001B2180912F2190913021A0913121B091CC
:102140003221AA20F9F02C013D01E1E04E1A51089C
:1021500061087108E89457F86624772440921721A3
:10216000509218216092192170921A21482F4F73B2
:10217000409316218093122190931321A093142150
:10218000B09315212230310561F140901221509019
:1021900013216090142170901521AC01BD014419E8
:1021A0005509660977092A013B015DEA45165AE897
:1021B00055066104710488F1232B79F1311008C0B0
:1021C00010923321109234218F738093162125C0F1
:1021D0008093122190931321A0931421B093152181
:1021E0001CC04090172150901821609019217090C8
:1021F0001A219C01AD013F77442755272415350549
:102200004605570551F48093122190931321A09312
:102210001421B093152110921B215BDA8B8780E08B
:10222000E4DA6B85611119C0311018C08091112159
:1022300081110EC08091332190913421892B41F07E
:1022400086E98093112180912F218F73809316212D
:10225000109233211092342103C0311010921121B9
:1022600090901B21BB2021F0892D822580931B217A
:10227000209133213091342121303105D1F48091E6
:102280002F2190913021A0913121B09132214090A5
:1022900012215090132160901421709015218419FF
:1022A0009509A609B70987359544A105B105F0F44C
:1022B0006EC02230310581F580912F21909130211F
:1022C000A0913121B09132214090122150901321E0
:1022D000609014217090152184199509A609B709F9
:1022E000893E9340A105B10508F451C0311004C0E6
:1022F000F1E0F0931B2110C080912F2190913021AB
:10230000A0913121B0913221809312219093132119
:10231000A0931421B093152123303105C1F5AA20D3
:10232000B9F0682D89E091E285DAA82EA224809187
:102330000D2190910E21A0910F21B0911021809339
:102340001F2190932021A0932121B093222101C02D
:10235000A12C0E94D41F4090092150900A21609026
:102360000B2170900C2164197509860997096093F7
:1023700028217093292180932A2190932B21AA2030
:1023800031F0009333211093342110921B2180915E
:102390003321909134210197029740F580910821D3
:1023A000882341F01092082141E062E08FE090E242
:1023B0000E94E30680911B218823D1F091101BC05D
:1023C000BB20E1F00E94D41F69837A838B839C83B6
:1023D00060E08FE090E2E6DA6D837E838F839887FA
:1023E000CE01019671DA21E02A870AC01A8608C058
:1023F00041E04A8705C051E05A8702C061E06A8720
:1024000080911121882351F08150809311218111F5
:1024100005C080912F218F738093162140912F2129
:10242000509130216091312170913221809116219B
:1024300090E0A0E0B0E04A015B01EFE38E22992436
:10244000AA24BB2488169906AA06BB0609F0BEC0BA
:1024500030922D2180911121882329F0F1E0F09311
:102460002E211B8602C010922E2180913321909143
:102470003421039789F480910D2190910E21A09130
:102480000F21B091102180931F2190932021A093C0
:102490002121B09322215FC061E08FE090E282DAD7
:1024A0004B015C0160931F217093202180932121B7
:1024B0009093222160E087E290E274DA2B013C01E4
:1024C000C501B4010E94B12726E636E646EA5FE37D
:1024D0000E9486284B015C01C301B2010E94B12712
:1024E0009B01AC01C501B4010E94B02620E83FE485
:1024F00043EC57E40E94822818160CF160911F21CA
:102500007091202180912121909122210E94B12758
:1025100026E636E646EA5FE30E9486284B015C0128
:1025200060E087E290E23EDA0E94B1279B01AC01B5
:10253000C501B4010E94B0260E94852704C06FE93E
:1025400076E881E090E060932321709324218093CA
:1025500025219093262160911F2170912021809147
:10256000212190912221A70196010E945226243216
:10257000310570F02C34310568F02F36310560F0EC
:102580002739310558F02B3F310550F484E009C05C
:1025900080E007C081E005C082E003C083E001C0A5
:1025A00085E080932C212B8520931E2180911B2177
:1025B00080932721809133219091342180931C2195
:1025C00090931D218CE191E223D52FC04F5F5F4F87
:1025D0006F4F7F4F4F735527662777274817590747
:1025E0006A077B0759F48091332190913421892B1C
:1025F000E1F02092E6070E94AA0617C080911B21F5
:10260000811113C04A85442381F080E480936506DC
:1026100052E0509365062092E5073CDA409108218C
:1026200062E08FE090E20E94E30680911B2181111D
:1026300003C06A85611108C072E07093660620923B
:10264000E60780E4809366068091332190913421DF
:10265000892B09F0D9CB81E0809308213110D4CBAC
:10266000809111218111D0CB80E28093660692E0A7
:102670009093E6078091880682FFC6CB80918C06F6
:10268000817080938C068091A20084608093A20068
:102690008091480081608093480088958091A200D5
:1026A0008B7F8093A200B0CB8824839481E028CDD7
:1026B000EF92FF920F931F93CF93DF931F92CDB7AB
:1026C000DEB77C018C011695079580EB6983F2D704
:1026D0008FE36981861BEED7802F8F70EBD7C70100
:1026E00025E0969587952A95E1F7877080610F9090
:1026F000DF91CF911F910F91FF90EF90DBC7DF9299
:10270000EF92FF920F931F93CF93DF93EC01D62E9E
:1027100000E010E02B8130E002171307C0F489813C
:10272000B801680F711D888190E0C2DFE12CF12CA7
:102730002A8130E0E216F30638F48D2D0E94DA1B70
:1027400082E0E80EF11CF4CF0F5F1F4FE3CFDF9163
:10275000CF911F910F91FF90EF90DF90089524EBA0
:10276000EBE8F3E2DF011D922A95E9F7462F50E0EE
:10277000653B10F044EB50E0ABE8B3E220E030E022
:102780002417350741F0FC01E20FF31FE491ED93AC
:102790002F5F3F4FF5CF08952F923F924F925F9258
:1027A0006F927F928F929F92AF92BF92CF92DF9261
:1027B000EF92FF920F931F93CF93DF93CDB7DEB7C6
:1027C0006497CDBFDEBF2C016B837C8349015A0126
:1027D000ED86FE860F87188BFB010281069510E0BF
:1027E000C8010E9432293C018CEC898383E38A83EF
:1027F000A80160E070E0C3010E94592A00E010E0E7
:10280000C12CD12CEB81FC81838190E0C816D906C4
:1028100008F0C8C0F201E00FF11F8F01041915097B
:10282000819187FFFACF682F6F7770E080E090E0AA
:102830000E94B3272D853E854F8558890E948628A2
:102840000E94E9280E948527E62EF12CEC14FD0455
:1028500018F4F1E0CF1AD108EB81FC818181B60137
:10286000680F711D808190E023DFCE14DF0411F02A
:10287000730184C00F5F1F4F6D827E82E12C8D81BA
:102880009E8186199709EB81FC812281269530E093
:102890008217930708F082C09C01220F331F2B87F9
:1028A0003C87F12C212C312CF201E00FF11F6081CB
:1028B00067FD4AC070E080E090E00E94B327A50168
:1028C00094010E9486280E94E9280E9485272B8572
:1028D0003C85220D331D29873A8770E0261737077C
:1028E00099F5C80101968F839887FC01E40DF51DC9
:1028F000608167FD25C070E080E090E00E94B32712
:10290000A50194010E9486280E94E9289B01AC0140
:10291000E985FA85BF01882777FD8095982F298B57
:102920003A8B4B8B5C8B0E94B32729893A894B8960
:102930005C890E941427811103C00E5F1F4F04C0E1
:10294000F1E0EF260F811885EE2041F0E1E0F0E0A4
:10295000EC0FFD1FE20DF31D8081F82A2FEF221AE4
:10296000320A32E02316310409F09ECFED81FE8158
:10297000F192ED83FE838F2D1DD781CFEB81FC81FA
:102980008281869590E09701261937092817390723
:1029900028F4F70181917F010DD7F0CFFFEFCF1A17
:1029A000DF0A30CFC3016496CDBFDEBFDF91CF9188
:1029B0001F910F91FF90EF90DF90CF90BF90AF905D
:1029C0009F908F907F906F905F904F903F902F904F
:1029D0000C94CA292F923F924F925F926F927F92EE
:1029E0008F929F92AF92BF92CF92DF92EF92FF921F
:1029F0000F931F93CF93DF9300D01F92CDB7DEB715
:102A00008B01622F4983ABDEF801C080D12C21807D
:102A1000312C4981A42EBB24A7FCB0948281282F9D
:102A200030E021503109287F285F3F4F02C03595A3
:102A300027954A95E2F72A833B83E12CF12C60E845
:102A4000862E912CF801838190E0E816F90608F0B3
:102A500056C0B701620D731DC6012ADEC7010A2CDC
:102A600002C0969587950A94E2F74A815B81849F1C
:102A70003001859F700C949F700C112490E0412CC4
:102A8000512CF801228130E042165306A0F5920144
:102A90000A2C02C0369527950A94E2F7F901E60D53
:102AA000F71D53E0F695E7955A95E1F7E557FC4D8C
:102AB00027703327A40102C0559547952A95E2F760
:102AC0009A013081322381E009F480E092012C0DDB
:102AD0003D1D20FF07C081119363892F99836AD61A
:102AE000998105C0882311F09CEC01C090E05FEF54
:102AF000451A550AC6CFFFEFEF1AFF0AA3CF239658
:102B0000CDBFDEBFDF91CF911F910F91FF90EF906E
:102B1000DF90CF90BF90AF909F908F907F906F90FD
:102B20005F904F903F902F900895CF93DF93CDB754
:102B3000DEB72A97CDBFDEBF9AE0EAE6F0E2DE011B
:102B4000119601900D929A95E1F7982F9695611143
:102B500011C0E92F80FF0BC081E0209139212111A4
:102B600080E080933921882311F0E1E0E90F109291
:102B7000382110C080913821853010F01092382112
:102B800080913821E92F981708F4E82F81E08E0F03
:102B900080933821F0E0EE0FFF1F81E090E08C0F72
:102BA0009D1FE80FF91F28E1442321F042E066E56C
:102BB00070E203C040E06AE570E2808191812A966C
:102BC000CDBFDEBFDF91CF9105CFFF920F931F9353
:102BD000CF93DF93CDB7DEB76097CDBFDEBFF82EC2
:102BE0008B018CE0E4E7F0E2DE01119601900D929A
:102BF0008A95E1F7FB0140815181628173814D87A4
:102C00005E876F87788BF1E0FF1558F08F8586958A
:102C100086958F878695982F990F980F8D85890FA8
:102C20008D87809137218F1541F0F092372120E078
:102C300040E0B80180E090E0CDDEFE013196EF0D7E
:102C4000F11DEF0DF11D2FE740E0BE01635F7F4FE7
:102C500080819181BFDE6096CDBFDEBFDF91CF91D5
:102C60001F910F91FF90089580E090E001968A36C1
:102C70009105E1F708952F923F924F925F926F92E4
:102C80007F928F929F92AF92BF92CF92DF92EF92FC
:102C9000FF920F931F93CF93DF93CDB7DEB7AB9720
:102CA000CDBFDEBF6FA378A789A79AA74BA728013E
:102CB0003901CBA2DCA2EDA2FEA2282C6E0185E197
:102CC000C80ED11C85E0F60111928A95E9F78FEFC5
:102CD0008AA384E1E0E8F0E2DE01119601900D9212
:102CE0008A95E1F72296EEADFFAD229781818F8F15
:102CF000828188A3838189A33A2CF5E0FA1510F428
:102D0000F5E03F2E0DEE10E27601EAE08E2E912CDA
:102D1000A12CB12CF801219131918F0140E050E0BC
:102D20006FA178A589A59AA50E945226CA01B9016A
:102D3000A50194010E945226F70161937F01F0E200
:102D4000073F1F0739F74601C12CAA24A394D12CB1
:102D5000B12C2296EEADFFAD229780818C0D8E8F27
:102D6000B21431F0AA2021F0F40180818823F1F01F
:102D7000F4018081FE013196E80FF11DE80FF11D8D
:102D800064EB80819181EBDCEBA0FCA00DA11EA186
:102D9000A3019201BE01625E7F4F8BE893E2FCDCEF
:102DA000D39418A1C10ED31014C063C0FBA5F111B8
:102DB0005DC0EBA0FCA00DA11EA1A3019201BE016C
:102DC000625E7F4FCE018296E7DCD39488A1C80E65
:102DD0004DC0B2102CC02296EEADFFAD22970181FE
:102DE0002396FFAD2397FF2389F020E030E040E8F1
:102DF00050E4C301B2010E9486280E9485276C8F8F
:102E00006D8F015F0B8F86E0C80E07C094E09C8F2A
:102E10009D8F085E0B8FE8E0CE0E8E8D810F8E5F4A
:102E20008A8F6FEFCE014A966ADCA12C01C0A12CDB
:102E3000B394FFEF8F1A9F0A85E0B8128ACFAA20B9
:102E4000C1F064EB89819A818ADCEBA0FCA00DA122
:102E50001EA1A3019201BE01625E7F4F8BE893E247
:102E60009BDCD11006C0DD24D39403C0D310E0CF87
:102E7000E8CF8D2DAB96CDBFDEBFDF91CF911F91F7
:102E80000F91FF90EF90DF90CF90BF90AF909F9009
:102E90008F907F906F905F904F903F902F9008950C
:102EA000CF93DF9300D000D0CDB7DEB780E1898328
:102EB0001A8280EF8B8380E48C8360E0CE010196E0
:102EC0001EDC2496CDBFDEBFDF91CF910895EF9237
:102ED000FF920F931F93CF93DF93CDB7DEB7699720
:102EE000CDBFDEBF8FEF809341068093210610E8AF
:102EF0001093010682E08093E10789E1E4E9F0E2C2
:102F0000DE01119601900D928A95E1F71093060665
:102F100008E000932606A8DE00932506A5DE1093A0
:102F200005068E010F5F1F4F7E018AE1E80EF11C3E
:102F3000F80181918F01BED30E151F05C9F769965F
:102F4000CDBFDEBFDF91CF911F910F91FF90EF902A
:102F5000A7CFCF93DF9300D000D0CDB7DEB782E20A
:102F6000898388E18A8386E48B838EE18C8360E0A9
:102F7000CE010196C4DB2496CDBFDEBFDF91CF9199
:102F80000895CF93DF93CDB7DEB76697CDBFDEBF91
:102F90009CEC9B8B1C8A90E19D8B9E8B9CE0EDEAC8
:102FA000F0E2DE01119601900D929A95E1F796E01C
:102FB000E9EBF0E2DE011D9601900D929A95E1F7A2
:102FC000E82FF0E0DE01AE0FBF1FEE0FFF1F81E024
:102FD00090E08C0F9D1FE80FF91F1D962C9140E08B
:102FE000BE016D5E7F4F80819181F4DC8B899D896C
:102FF000890F8B8B20E240E0BE016D5E7F4F83E83E
:1030000096E0E8DC6696CDBFDEBFDF91CF910895F4
:103010002F923F924F925F926F927F928F929F92E8
:10302000AF92BF92CF92DF92EF92FF920F931F93D6
:10303000CF93DF93CDB7DEB7C054D109CDBFDEBF8C
:103040003C01FC014080518080913A2190913B21CC
:103050008415950529F024DF40923A2150923B21B6
:10306000F1E04F16510469F008F47DC232E04316D6
:10307000510409F44FC083E04816510409F435C1E6
:1030800080C2F3018385882341F020E940E062E6B5
:1030900070E28CEC9AE09EDC07C02EE740E066E62A
:1030A00070E28CE691E096DC20E840E06EE570E2AC
:1030B0008FE898E08FDC28E440E062E570E282E18E
:1030C00098E088DCF30163817481858196811F9289
:1030D00027EF30E23F932F93A2E08A2EB5E0AB2E8C
:1030E00016E6C12EDC2CEC2C1FE3F12E00E010E0E4
:1030F00020E43FE340E0BFDD40E0F30161898281ED
:1031000014DD6AE470E2F30180895FDD0F900F90B7
:103110000F9037C280E28BAF16E01CAF9CE29DAFF0
:1031200039E03EAF9CE49FAB9AE098AF0CE009AF6A
:1031300024E12AAF44E24BAB2CAB8DAB9EAB46E90E
:103140004FA718AB48E249AB3AAB3EEB3BA79CA775
:103150000DA72EA73AE93FA328A789A79AA78BA373
:1031600099E29CA390E69DA39EE09EA38F8F88A3E7
:1031700090EE99A3BB24B394BAA294E99B8F1C8EC2
:10318000BD8E8E8F6FEFCE014F96B9DA6CECCE010B
:103190004B96B5DA25E340E0BE01655C7F4F8AE5DA
:1031A00098E018DC26E240E0BE016D5C7F4F8CEEBB
:1031B00097E010DC26E240E0BE01695D7F4F8CEEB7
:1031C00097E008DC2DE240E0BE01615D7F4F8FE0BB
:1031D00099E000DC27EA40E0BE016D5D7F4F85E4A9
:1031E00097E0F8DBF3012089EDEAF0E2DE011196C9
:1031F00001900D920A95E1F7E9EBF0E2DE011D96F0
:1032000001900D921A95E1F78091E9209091EA20C2
:10321000A091EB20B091EC208F8B988FA98FBA8F63
:103220008B8B9C8BAD8BBE8BE22FF0E0DE01AE0F63
:10323000BF1FEE0FFF1F21E030E02C0F3D1FE20FFC
:10324000F31F1D962C9140E0BE01695E7F4F808187
:103250009181C0DB8B899D89890F8B8B20E240E0B7
:10326000BE016D5E7F4F83E896E0B4DB6EE470E2F2
:10327000F3018089AADCF3016381748185819681E1
:10328000BF929E01295C3F4F3F932F9352E0852EC2
:10329000E5E0AE2EF1E7CF2EFDE3DF2EFAE0EF2ED4
:1032A000FFE3FF2E00E010E020E03FE340E0E3DC3E
:1032B000F3016781708581859285BF929E01255DAE
:1032C0003F4F3F932F9300E010E020E03FE340E0CA
:1032D000D2DC40E0F3016189828127DC0F900F90FE
:1032E0000F900F900F900F904CC188E28B8B1C8A2F
:1032F00088E48D8B80E18E8B90E79D871E869CE015
:103300009F87888B20E940E0BE016D5E7F4F8CE394
:1033100099E060DB40E0F3016189828106DC20E80E
:1033200040E06EE570E28FE898E054DB28E440E08E
:1033300062E570E282E198E04DDBF3016381748124
:10334000858196811F9227EF30E23F932F9312E001
:10335000812E05E0A02E26E6C22EDC2CEC2C2FE3DD
:10336000F22E00E010E020E43FE340E084DCF301D3
:1033700064857585868597853CE3432E512C612CA9
:10338000712CA30192010E9452260F900F900F9072
:103390002C3331054105510528F41B01982EB92E17
:1033A000E0E023C0CA01B901A30192010E945226A4
:1033B000283131054105510528F41B01982EB92EFD
:1033C000E1E013C0CA01B90128E130E040E050E07B
:1033D0000E9452261B01982EB92E2E31310541052F
:1033E000510510F4E2E001C0E3E0CA01B90124365E
:1033F00031054105510520F063E670E080E090E082
:103400009E012F5F3F4F39014E2E512C61157105E2
:103410008105910509F43FC019821A8220E12B83AE
:103420002C835F851F929E01235F3F4F3F932F9315
:10343000EAE08E2EF2E0AF2EAEEACA2EA7E4DA2E34
:10344000A1EEEA2EAEE3FA2E9701860141E0219625
:103450005FAF219710DC21965FAD2197859F002DEE
:1034600011249D85900F9983F2013196DF01AC51B3
:10347000BF4D1C911B83EE0FFF1FE652FF4D20E452
:1034800040E0B30180819181A5DA502F510F0F9058
:103490000F900F9001C050E08D859E85AF85B88953
:1034A00089839A83AB83BC838D85850F89833F8510
:1034B0003FAF1F927F926F929AE0892E22E0A22E58
:1034C0003EEAC32E37E4D32E31EEE32E3EE3F32E55
:1034D0009701860141E0B101892D9B2D21965FAFB7
:1034E0002197C9DB21965FAD2197B52E9FAD899FAE
:1034F000B00C11241A8200E10C838D858B0D898319
:10350000F201EC51FF4D10811B83F201EE0FFF1F02
:10351000E652FF4D20E440E0B301808191815ADA08
:103520001B0D0F900F900F90103768F41A820B83C9
:103530000C838D85810F898320E240E0B3018CEC00
:1035400099E048DA105F1437E0F48D853E8598895C
:103550003A839C83810F898384E7811B8B8360E09E
:10356000C301CDD80EC0F3018289811103C08189C6
:10357000882331F041E0F30161898281D6DA01C00C
:103580008FDCC05CDF4FCDBFDEBFDF91CF911F91DD
:103590000F91FF90EF90DF90CF90BF90AF909F90F2
:1035A0008F907F906F905F904F903F902F900895F5
:1035B000AF92BF92CF92DF92EF92FF920F931F9341
:1035C000CF93DF9300E216E084E0F82EF801F58255
:1035D00090E4E92E96E0F92EDD24DA94F701D28208
:1035E000D5821682DD24D394F801D682C12C26E040
:1035F000D22E30E8B32EF601B68242E0A42EF801B6
:10360000A682F701F084F801A582F601B5821F2D8C
:10361000111F1127111F1295110F110F107CFF2D73
:10362000F170CF2F80E0D82FCC0FDD1F1C2BF1FACB
:10363000AA27A0F9B0E063E0AA0FBB1F6A95E1F7E3
:103640001A2BF2FAEE27E0F9F0E075E0EE0FFF1F1B
:103650007A95E1F71E2BF3FA662760F970E076950C
:10366000762F662777956795162BF4FA442740F94D
:1036700050E0440F551F142BF5FA222720F930E0B3
:10368000220F331F220F331F122BF6FA882780F9DF
:1036900090E0B4E0880F991FBA95E1F7812BDF9194
:1036A000CF911F910F91FF90EF90DF90CF90BF903F
:1036B000AF9008956F927F928F929F92AF92BF9238
:1036C000CF92DF92EF92FF920F931F93CF93DF93EE
:1036D000782E5BE0652E6CDF87FF03C06A94D9F714
:1036E0005AC08FEF8093410681E08093260680E8E0
:1036F0008093060624E02093260671FA992790F914
:1037000070FA882480F8912CC4E0880C991CCA9522
:10371000E1F7892A972D991F9927991F990F990FDA
:10372000990F982972FAAA24A0F8B12CD5E0AA0C16
:10373000BB1CDA95E1F79A2973FACC24C0F8D12C96
:10374000CC0CDD1C9C2974FAEE24E0F8F12C06E088
:10375000EE0CFF1C0A95E1F79E2975FA002700F987
:1037600010E0000F111F000F111F902B76FA772425
:1037700070F8C72D30E0D32FD695DC2FCC27D79506
:10378000C7959C2B90934506909590934606209361
:10379000250680930506DF91CF911F910F91FF9031
:1037A000EF90DF90CF90BF90AF909F908F907F90E1
:1037B0006F900895CF93DF93D82FCBE0F9DE87FF8A
:1037C00003C0C150D9F715C08FEF8093410681E047
:1037D0008093250680E88093060694E09093260661
:1037E000D0934506D095D0934606909325068093B6
:1037F0000506DF91CF910895909142249330D1F046
:1038000058F4992371F0913069F580933F2483E057
:103810008093422480E008959430E9F0953031F1AE
:1038200021C0833519F51092412481E08093422410
:1038300080E0089590914124E92FF0E0E15CFB4D98
:10384000848381E0890F80934124843079F48093CC
:10385000422480E00895853429F485E08093422451
:1038600081E008951092422480E0089580E0089558
:103870004F925F926F927F928F929F92AF92BF9280
:10388000CF92DF92EF92FF920F931F93CF93DF932C
:10389000CDB7DEB72997CDBFDEBF2A013B0107E4D4
:1038A00014E2C12CD12C7601812C912C54018394EB
:1038B000F801A2918F01B0E0D097A50194010E9478
:1038C000A9260E94B1279B01AC01C701B6010E9445
:1038D000B0266B017C01AAE0B0E0A50194010E9432
:1038E0009F264B015C01F4E203341F0709F720E037
:1038F00030E040E251E4C701B6010E9486286B0126
:103900007C01C301B2010E94B1279B01AC01C70138
:10391000B6010E94AF26A70196010E9418279B01BD
:10392000AC0160E070E080E89FE30E94AF266D8309
:103930007E838F8398876D817E818F819885C090EB
:103940004421D0904521E0904621F0904721A701E5
:1039500096010E94AF262AE939E949E15EE30E9417
:1039600086289B01AC01C701B6010E94B02669837D
:103970007A838B839C8389819A81AB81BC8180937C
:10398000442190934521A0934621B093472169811A
:103990007A818B819C8120E030E040E251E40E94FA
:1039A00086289B01AC0160E070E080E291E40E9417
:1039B000AF260E94E9280E9480279B0177FF04C060
:1039C00022273327261B370B27303105C4F46981A2
:1039D0007A818B819C8120E030E040E251E40E94BA
:1039E00086289B01AC0160E070E080E291E40E94D7
:1039F000AF260E94E9280E948027672BF1F1698198
:103A00007A818B819C8120E030E040E251E40E9489
:103A100086289B01AC0160E070E080E291E40E94A6
:103A2000AF260E94E9280E9480279B0177FF04C0EF
:103A300022273327261B370B2730310504F56981F0
:103A40007A818B819C8120E030E040E251E40E9449
:103A500086289B01AC0160E070E080E291E40E9466
:103A6000AF260E94E9280E9480279B0177FF08C0AB
:103A700022273327261B370B03C021E001C026E095
:103A80002987898581507DDA81E02996CDBFDEBF07
:103A9000DF91CF911F910F91FF90EF90DF90CF902A
:103AA000BF90AF909F908F907F906F905F904F905E
:103AB000089581E00895CF92DF92EF92FF926A011C
:103AC0007B01FC0124812D3411F52081318142815B
:103AD0005381AAE0B0E00E949F260E945D0DAB01D9
:103AE000BC018091CF0187FDFCCF80E392E00E9472
:103AF000D72A8091CF0187FDFCCFB701A60184E3CF
:103B000092E0FF90EF90DF90CF900C94D72AFF9037
:103B1000EF90DF90CF9008954F925F926F927F92D7
:103B20008F929F92AF92BF92CF92DF92EF92FF92CD
:103B3000CF93DF93EC012A013B01E7E4F4E2C12CCF
:103B4000D12C7601812C912C54018394A291B0E068
:103B5000D097A50194010E94A926C60ED71EE81E83
:103B6000F91EAAE0B0E00E949F264B015C0184E2AE
:103B7000E334F80759F7C882D982EA82FB82B3019D
:103B8000A201CE0198DF81E0DF91CF91FF90EF900D
:103B9000DF90CF90BF90AF909F908F907F906F906D
:103BA0005F904F90089520914224253051F4109257
:103BB000422420913F24FC012483CBD980913F24CF
:103BC000089580E008954F925F926F927F928F9256
:103BD0009F92AF92BF92CF92DF92EF92FF92CF93DC
:103BE000DF934B015C01EA01C0904021D09041215C
:103BF000E0904221F09043216C197D098E099F09C4
:103C00000E94B3272AE939E949E95EE30E94862840
:103C10002B013C01C701B6010E94B3279B01AC01F7
:103C2000C301B2010E94B0260E9480276B017C0173
:103C300060934021709341218093422190934321CE
:103C4000CB01881999094C0197FF03C09194819485
:103C50009108AA2497FCA094BA2C94EDC91690E37D
:103C6000D906E104F1044CF0C701B60125E030E0CB
:103C700040E050E00E94742604C024EC39E040E0AB
:103C800050E080913C2190913D21A0913E21B09146
:103C90003F2182169306A406B50674F48D3791056C
:103CA000A105B10524F40196A11DB11D11C08EE737
:103CB00090E0A0E0B0E00CC083309105A105B10513
:103CC00024F00297A109B10903C080E090E0DC0173
:103CD00080933C2190933D21A0933E21B0933F21BE
:103CE00080918A238D34B9F480913C2190913D21BB
:103CF000A0913E21B0913F210697A105B1055CF04E
:103D000088819981019729F4B701A60186E893E299
:103D100003DF10928A23DF91CF91FF90EF90DF9025
:103D2000CF90BF90AF909F908F907F906F905F905B
:103D30004F9008954F925F926F927F928F929F92D1
:103D4000AF92BF92CF92DF92EF92FF920F931F93A9
:103D5000CF93DF93162FD72FC82F092F8091CF0134
:103D600087FDFCCF80E392E00E94AA2A2B013C0150
:103D70008091CF0187FDFCCF84E392E00E94AA2AC4
:103D80004B015C01C301B2010E94B1276B017C01B0
:103D9000C501B4010E94B1279B01AC01C701B60166
:103DA0000E9418276B017C012AE939E949E95EE3A1
:103DB0000E94142787FD72C020E030E040E050E40C
:103DC000C701B6010E94822818160CF46CC0472067
:103DD00046204520409409F46BC08FEF8816980662
:103DE000A806B80609F464C060E573EC80E090E0D2
:103DF0000E945D0D86169706A806B90640F460E598
:103E000073EC80E090E00E945D0D4B015C01612F3E
:103E10007D2F8C2F902F0E94B1272B013C01C501D3
:103E2000B4010E94B1274B015C019B01AC01C301AD
:103E3000B2010E948228181644F5A5019401C3011D
:103E4000B2018DD72B013C0120E030E040E85FE378
:103E5000C701B60185D720E030E040E05FE30E9473
:103E600086289B01AC01C301B2010E9486282B0168
:103E70003C01A7019601C501B4010E9486289B015F
:103E8000AC01C301B2016CD706C0A7019601C30102
:103E9000B2010E9486280E9485270EC064E170E06E
:103EA00080E090E009C06AE070E080E090E004C04B
:103EB000612F7D2F8C2F902FDF91CF911F910F912C
:103EC000FF90EF90DF90CF90BF90AF909F908F903A
:103ED0007F906F905F904F9008959FB7F894E0E5C2
:103EE000F0E02081822B80839FBF08958FEF809325
:103EF00070008093710080937200809373008093B0
:103F00007400809375008093760082E0E6DF8091F4
:103F1000510081FFFCCF61E080E490E02DD09FB79D
:103F2000F894809150008E7F809350009FBF81E075
:103F30008093430008952FB7F894FC01E059FF4F98
:103F400060958081862380832FBF08952FB7F894D2
:103F5000FC01E059FF4F8081862B80832FBF08959D
:103F6000FC01128213824483440F415045836083D5
:103F7000718380E090E008951BBEFC0128ED24BF12
:103F800060830895109200042091010420FDFCCF6D
:103F9000609308047093090480934D2490934E24F9
:103FA00087E08093000408950F931F93809101048C
:103FB00080FDFCCF8FB7F89460914D2470914E2412
:103FC00000910804109109040115110531F4909134
:103FD000030490FF02C06F5F7F4F8FBFCB01A0E053
:103FE000B0E07727662720E030E0602B712B822B32
:103FF000932B1F910F91089521E020930204609369
:104000000C0470930D046093512470935224809398
:104010004F24909350248091010480FDFCCF82E0D6
:104020008093030485E080930204089580935324D1
:1040300090935424089564E080E090E07CDFE0E019
:10404000F4E08FEF9FEF82879387108611869FB7EA
:10405000F894EAE4F4E280818F5F80839FBFE0E020
:10406000F4E081E0828387E0808308951F920F92BD
:104070000FB60F9211240BB60F928F939F93EF936D
:10408000FF93EDE4F4E28081918101968083918336
:10409000FF91EF919F918F910F900BBE0F900FBEEC
:1040A0000F901F9018951F920F920FB60F92112428
:1040B0000BB60F92CF92DF92EF92FF920F931F9366
:1040C0002F933F934F935F936F937F938F939F9320
:1040D000AF93BF93EF93FF9360914D2470914E2463
:1040E00000914F24109150246017710798F181E0DE
:1040F00080930204E0915324F0915424309751F1BD
:10410000C0900804D0900904CB01A0E0B0E077276C
:104110006627E12CF12C6C297D298E299F2920E02E
:1041200030E0980111270027C0905124D0905224EC
:10413000E12CF12C0C291D292E293F2906171707E0
:104140002807390730F0C901B8016F5F7F4F8F4FE3
:104150009F4F0995FF91EF91BF91AF919F918F91E3
:104160007F916F915F914F913F912F911F910F918F
:10417000FF90EF90DF90CF900F900BBE0F900FBE8F
:104180000F901F9018951F920F920FB60F92112447
:104190000BB60F922F933F934F935F936F937F9341
:1041A0008F939F93AF93BF93EF93FF93E09172210F
:1041B000F0917321309709F00995FF91EF91BF912C
:1041C000AF919F918F917F916F915F914F913F91AF
:1041D0002F910F900BBE0F900FBE0F901F90189550
:1041E0001F920F920FB60F9211240BB60F922F93BE
:1041F0003F934F935F936F937F938F939F93AF936F
:10420000BF93EF93FF93E0917021F091712130976C
:1042100009F00995FF91EF91BF91AF919F918F9117
:104220007F916F915F914F913F912F910F900BBEB6
:104230000F900FBE0F901F9018951F920F920FB600
:104240000F9211240BB60F922F933F934F935F93CE
:104250006F937F938F939F93AF93BF93EF93FF934E
:10426000E0916E21F0916F21309709F00995FF914F
:10427000EF91BF91AF919F918F917F916F915F91DE
:104280004F913F912F910F900BBE0F900FBE0F904B
:104290001F9018951F920F920FB60F9211240BB614
:1042A0000F922F933F934F935F936F937F938F93CF
:1042B0009F93AF93BF93EF93FF93E0916C21F091A5
:1042C0006D21309709F00995FF91EF91BF91AF9162
:1042D0009F918F917F916F915F914F913F912F911E
:1042E0000F900BBE0F900FBE0F901F9018951F924E
:1042F0000F920FB60F9211240BB60F922F933F938C
:104300004F935F936F937F938F939F93AF93BF93DD
:10431000EF93FF93E0916A21F0916B21309709F0C0
:104320000995FF91EF91BF91AF919F918F917F91EF
:104330006F915F914F913F912F910F900BBE0F9016
:104340000FBE0F901F9018951F920F920FB60F92ED
:1043500011240BB60F922F933F934F935F936F935C
:104360007F938F939F93AF93BF93EF93FF93E091CE
:104370006821F0916921309709F00995FF91EF913B
:10438000BF91AF919F918F917F916F915F914F916D
:104390003F912F910F900BBE0F900FBE0F901F906B
:1043A00018951F920F920FB60F9211240BB60F9211
:1043B0002F933F934F935F936F937F938F939F932D
:1043C000AF93BF93EF93FF93E0916621F091672144
:1043D000309709F00995FF91EF91BF91AF919F91AF
:1043E0008F917F916F915F914F913F912F910F909E
:1043F0000BBE0F900FBE0F901F9018951F920F923B
:104400000FB60F9211240BB60F922F933F934F9339
:104410005F936F937F938F939F93AF93BF93EF932C
:10442000FF93E0916421F0916521309709F009959F
:10443000FF91EF91BF91AF919F918F917F916F917C
:104440005F914F913F912F910F900BBE0F900FBE38
:104450000F901F9018951F920F920FB60F92112474
:104460000BB60F922F933F934F935F936F937F936E
:104470008F939F93AF93BF93EF93FF93E09162214C
:10448000F0916321309709F00995FF91EF91BF9169
:10449000AF919F918F917F916F915F914F913F91DC
:1044A0002F910F900BBE0F900FBE0F901F9018957D
:1044B0001F920F920FB60F9211240BB60F922F93EB
:1044C0003F934F935F936F937F938F939F93AF939C
:1044D000BF93EF93FF93E0916021F09161213097BA
:1044E00009F00995FF91EF91BF91AF919F918F9145
:1044F0007F916F915F914F913F912F910F900BBEE4
:104500000F900FBE0F901F9018951F920F920FB62D
:104510000F9211240BB60F922F933F934F935F93FB
:104520006F937F938F939F93AF93BF93EF93FF937B
:10453000E0915E21F0915F21309709F00995FF919C
:10454000EF91BF91AF919F918F917F916F915F910B
:104550004F913F912F910F900BBE0F900FBE0F9078
:104560001F9018951F920F920FB60F9211240BB641
:104570000F922F933F934F935F936F937F938F93FC
:104580009F93AF93BF93EF93FF93E0915C21F091E2
:104590005D21309709F00995FF91EF91BF91AF919F
:1045A0009F918F917F916F915F914F913F912F914B
:1045B0000F900BBE0F900FBE0F901F9018951F927B
:1045C0000F920FB60F9211240BB60F922F933F93B9
:1045D0004F935F936F937F938F939F93AF93BF930B
:1045E000EF93FF93E0915A21F0915B21309709F00E
:1045F0000995FF91EF91BF91AF919F918F917F911D
:104600006F915F914F913F912F910F900BBE0F9043
:104610000FBE0F901F9018951F920F920FB60F921A
:1046200011240BB60F922F933F934F935F936F9389
:104630007F938F939F93AF93BF93EF93FF93E091FB
:104640005821F0915921309709F00995FF91EF9188
:10465000BF91AF919F918F917F916F915F914F919A
:104660003F912F910F900BBE0F900FBE0F901F9098
:1046700018951F920F920FB60F9211240BB60F923E
:104680002F933F934F935F936F937F938F939F935A
:10469000AF93BF93EF93FF93E0915621F091572191
:1046A000309709F00995FF91EF91BF91AF919F91DC
:1046B0008F917F916F915F914F913F912F910F90CB
:1046C0000BBE0F900FBE0F901F9018951F920F9268
:1046D0000FB60F9211240BB60F922F933F934F9367
:1046E0005F936F937F938F939F93AF93BF93EF935A
:1046F000FF93E0915421F0915521309709F00995ED
:10470000FF91EF91BF91AF919F918F917F916F91A9
:104710005F914F913F912F910F900BBE0F900FBE65
:104720000F901F9018951F920F920FB60F921124A1
:104730000BB60F922F933F934F935F936F937F939B
:104740008F939F93AF93BF93EF93FF93E091522189
:10475000F0915321309709F00995FF91EF91BF91A6
:10476000AF919F918F917F916F915F914F913F9109
:104770002F910F900BBE0F900FBE0F901F901895AA
:104780001F920F920FB60F9211240BB60F922F9318
:104790003F934F935F936F937F938F939F93AF93C9
:1047A000BF93EF93FF93E0915021F0915121309707
:1047B00009F00995FF91EF91BF91AF919F918F9172
:1047C0007F916F915F914F913F912F910F900BBE11
:1047D0000F900FBE0F901F9018951F920F920FB65B
:1047E0000F9211240BB60F922F933F934F935F9329
:1047F0006F937F938F939F93AF93BF93EF93FF93A9
:10480000E0914E21F0914F21309709F00995FF91E9
:10481000EF91BF91AF919F918F917F916F915F9138
:104820004F913F912F910F900BBE0F900FBE0F90A5
:104830001F9018951F920F920FB60F9211240BB66E
:104840000F922F933F934F935F936F937F938F9329
:104850009F93AF93BF93EF93FF93E0914C21F0911F
:104860004D21309709F00995FF91EF91BF91AF91DC
:104870009F918F917F916F915F914F913F912F9178
:104880000F900BBE0F900FBE0F901F9018951F92A8
:104890000F920FB60F9211240BB60F922F933F93E6
:1048A0004F935F936F937F938F939F93AF93BF9338
:1048B000EF93FF93E0914A21F0914B21309709F05B
:1048C0000995FF91EF91BF91AF919F918F917F914A
:1048D0006F915F914F913F912F910F900BBE0F9071
:1048E0000FBE0F901F9018951F920F920FB60F9248
:1048F00011240BB60F922F933F934F935F936F93B7
:104900007F938F939F93AF93BF93EF93FF93E09128
:104910004821F0914921309709F00995FF91EF91D5
:10492000BF91AF919F918F917F916F915F914F91C7
:104930003F912F910F900BBE0F900FBE0F901F90C5
:104940001895CF93CFB7F894811528E0920711F40A
:1049500061E005C0803428E0920741F462E083E022
:1049600090E0E9DA64E083E090E016C0811529E088
:10497000920741F461E084E090E0DDDA64E084E0F5
:1049800090E00AC081159A4081F461E085E090E0F2
:10499000D2DA64E085E090E0CEDA9FB7F8948091B7
:1049A00048248F5F809348249FBFCFBFCF91089545
:1049B000009709F463C0811524E0920711F464E0C4
:1049C00005C0803821E0920721F462E080E090E0A9
:1049D00054C0803823E0920711F461E005C08115CE
:1049E00022E0920721F462E081E090E046C0811568
:1049F00028E0920711F461E037C0811529E09207A1
:104A000011F461E029C081152AE0920711F461E0F8
:104A100032C0803428E0920711F462E025C080396A
:104A200028E0920711F464E01FC0803C28E0920760
:104A300011F468E019C0803C29E0920711F468E0A5
:104A40000BC0803A28E0920711F460E10DC0803A73
:104A500029E0920721F460E184E090E00EC0803804
:104A600024E0920721F460E483E090E006C0803AFD
:104A7000944021F460E485E090E05DCA0895FC0173
:104A8000218125FFFCCF608380E090E00895FC0148
:104A9000218127FFFCCF808108958F929F92AF9252
:104AA000BF92CF92DF92EF92FF920F931F93CF931B
:104AB000DF93EC016A017B0148015901B901A801AA
:104AC000A3E07695679557954795AA95D1F7D901B3
:104AD000C80116E1B695A795979587951A95D1F7D0
:104AE0002C8122FD08C07695679557954795B69518
:104AF000A795979587954C155D056E057F0508F47C
:104B000097C0C816D906EA06FB0608F491C08C8146
:104B100082FD04C0CC0CDD1CEE1CFF1CC501B401E1
:104B2000A7019601BFD08FEF90E0A0E0B0E019EFB1
:104B3000281739074A075B0758F0880F991FAA1FE3
:104B4000BB1F1D3F0CF481601F5F173089F74BC0FE
:104B500017FF49C0D701C60103E0880F991FAA1F9C
:104B6000BB1F0A95D1F7881A990AAA0ABB0A812F96
:104B7000992787FD90951E3FE4F46DEF7FEF681B4A
:104B8000790BA501940104C0220F331F441F551F48
:104B90006A95D2F7CA01B90146015701B694A794A4
:104BA00097948794680D791D8A1D9B1DA701960116
:104BB00018C09C012D5F3F4FD701C60104C0880F6C
:104BC000991FAA1FBB1F2A95D2F79C01AD01BC01FA
:104BD000CD019695879577956795680D791D8A1D06
:104BE0009B1D60D01CC023E0210FD701C60104C06B
:104BF000880F991FAA1FBB1F2A95D2F79C01AD01F0
:104C0000BC01CD019695879577956795680D791DBF
:104C10008A1D9B1D47D02150310941095109832F1D
:104C20008F701295107F812B8F832E8381E001C0BE
:104C300080E0DF91CF911F910F91FF90EF90DF9077
:104C4000CF90BF90AF909F908F9008950F931F9338
:104C5000CF93DF93EC018B01ABDE8D818F738D835E
:104C6000F80186819481892B9085992311F098E031
:104C700001C090E0892B8D83F801408151816281D0
:104C8000738100E018E428EE31E0CE0106DF9C815C
:104C900098609C839C8190619C83DF91CF911F9150
:104CA0000F910895A1E21A2EAA1BBB1BFD010DC096
:104CB000AA1FBB1FEE1FFF1FA217B307E407F507CC
:104CC00020F0A21BB30BE40BF50B661F771F881FA8
:104CD000991F1A9469F760957095809590959B013E
:104CE000AC01BD01CF010895052E97FB16F4009489
:104CF0000FD057FD05D0D6DF07FC02D046F408C020
:104D000050954095309521953F4F4F4F5F4F0895F7
:104D100090958095709561957F4F8F4F9F4F089527
:104D2000A29FB001B39FC001A39F700D811D1124EC
:104D3000911DB29F700D811D1124911D0895F0DF0A
:104D4000A59F900DB49F900DA49F800D911D1124DF
:104D50000895B7FFF4CFF3DF821B930B08955058EB
:104D6000BB27AA270ED094C185D130F08AD120F07C
:104D700031F49F3F11F41EF47AC10EF4E095E7FB85
:104D800070C1E92F96D180F3BA17620773078407C1
:104D9000950718F071F49EF5AEC10EF4E0950B2E58
:104DA000BA2FA02D0B01B90190010C01CA01A0017D
:104DB0001124FF27591B99F0593F50F4503E68F1D8
:104DC0001A16F040A22F232F342F4427585FF3CF19
:104DD000469537952795A795F0405395C9F77EF4EA
:104DE0001F16BA0B620B730B840BBAF09150A1F033
:104DF000FF0FBB1F661F771F881FC2F70EC0BA0FB9
:104E0000621F731F841F48F4879577956795B79540
:104E1000F7959E3F08F0B3CF9395880F08F0992738
:104E2000EE0F979587950895F8D008F481E00895DE
:104E30000CD02EC126D140F01DD130F021F45F3FBF
:104E400019F00FC1511158C112C133D198F39923F0
:104E5000C9F35523B1F3951B550BBB27AA2762173E
:104E60007307840738F09F5F5F4F220F331F441F83
:104E7000AA1FA9F333D00E2E3AF0E0E830D09150BB
:104E80005040E695001CCAF729D0FE2F27D0660FA8
:104E9000771F881FBB1F261737074807AB07B0E8E7
:104EA00009F0BB0B802DBF01FF2793585F4F2AF0FD
:104EB0009E3F510568F0D5C01FC15F3FECF3983E9F
:104EC000DCF3869577956795B795F7959F5FC9F75A
:104ED000880F911D9695879597F90895E1E0660FE3
:104EE000771F881FBB1F621773078407BA0720F05C
:104EF000621B730B840BBA0BEE1F88F7E0950895C5
:104F000004D06894B111F8C00895DBD088F09F57A1
:104F100090F0B92F9927B751A0F0D1F0660F771F05
:104F2000881F991F1AF0BA95C9F712C0B13081F0E5
:104F3000E2D0B1E00895DFC0672F782F8827B85FEF
:104F400039F0B93FCCF3869577956795B395D9F746
:104F50003EF490958095709561957F4F8F4F9F4F50
:104F60000895E89409C097FB3EF49095809570955C
:104F700061957F4F8F4F9F4F9923A9F0F92F96E9A5
:104F8000BB279395F695879577956795B795F1111A
:104F9000F8CFFAF4BB0F11F460FF1BC06F5F7F4FB7
:104FA0008F4F9F4F16C0882311F096E911C07723C9
:104FB00021F09EE8872F762F05C0662371F096E8D2
:104FC000862F70E060E02AF09A95660F771F881FA1
:104FD000DAF7880F9695879597F90895990FBB0B87
:104FE000550FAA0BE0E8FEEF16161706E807F907BB
:104FF00070F012161306E407F50760F0BA1754F0C4
:1050000031F42617370748075907A7951BF4B9014C
:10501000CA01BA2FB69597950895990F0008550FB4
:10502000AA0BE0E8FEEF16161706E807F907C0F02E
:1050300012161306E407F50798F0621B730B840B36
:10504000950B39F40A2661F0232B242B252B21F410
:1050500008950A2609F4A140A6958FEF811D811DB0
:10506000089597F99F6780E870E060E008959FEFEA
:1050700080EC089500240A941616170618060906EF
:10508000089500240A9412161306140605060895BE
:10509000092E0394000C11F4882352F0BB0F40F446
:1050A000BF2B11F460FF04C06F5F7F4F8F4F9F4F86
:1050B000089557FD9058440F551F59F05F3F71F008
:1050C0004795880F97FB991F61F09F3F79F087956F
:1050D0000895121613061406551FF2CF4695F1DFF8
:1050E00008C0161617061806991FF1CF8695710588
:1050F000610508940895E894BB2766277727CB01BC
:1051000097F908958ADF08F48FEF08950BD0C0CF88
:10511000B1DF28F0B6DF18F0952309F0A2CFA7CFB2
:105120001124EACFC6DFA0F3959FD1F3950F50E08D
:10513000551F629FF001729FBB27F00DB11D639F49
:10514000AA27F00DB11DAA1F649F6627B00DA11DEF
:10515000661F829F2227B00DA11D621F739FB00D95
:10516000A11D621F839FA00D611D221F749F332705
:10517000A00D611D231F849F600D211D822F762F9E
:105180006A2F11249F5750408AF0E1F088234AF09B
:10519000EE0FFF1FBB1F661F771F881F91505040E7
:1051A000A9F79E3F510570F05CCFA6CF5F3FECF3AF
:1051B000983EDCF3869577956795B795F795E795D3
:1051C0009F5FC1F7FE2B880F911D9695879597F9E4
:1051D000089577DFE0F09E37D8F09639B8F49E381E
:1051E00048F4672F782F8827985FF9CF86957795B1
:1051F000679593959539D0F3B62FB1706B0F711DEC
:10520000811D20F4879577956795939502C01CC002
:1052100073CF882371F4772321F09850872B762F52
:1052200007C0662311F499270DC09051862B70E0BA
:1052300060E02AF09A95660F771F881FDAF7880FCB
:105240009695879597F908959F3F31F0915020F4F6
:10525000879577956795B795880F911D9695879552
:1052600097F90895CF93DF938230910510F482E08F
:1052700090E0E0915724F091582420E030E0A0E045
:10528000B0E0309739F14081518148175907B8F0A3
:105290004817590771F482819381109729F012966B
:1052A0008D939C9313972CC08093572490935824EC
:1052B00027C02115310531F04217530718F0A90115
:1052C000DB0101C0EF019A01BD01DF010280F38122
:1052D000E02DD7CF21153105F9F0281B390B2430EB
:1052E000310580F48A819B816115710521F0FB01F4
:1052F0008283938304C08093572490935824FE01A3
:10530000329644C0FE01E20FF31F81939193225025
:105310003109288339833AC020915524309156248D
:10532000232B41F420910220309103202093552417
:105330003093562420910020309101202115310511
:1053400041F42DB73EB74091042050910520241B15
:10535000350BE0915524F0915624E217F307A0F4A1
:105360002E1B3F0B2817390778F0AC014E5F5F4FBB
:105370002417350748F04E0F5F1F40935524509374
:1053800056248193919302C0E0E0F0E0CF01DF91D9
:10539000CF910895CF93DF93009709F487C0FC0164
:1053A000329712821382C0915724D09158242097AB
:1053B00081F420813181280F391F809155249091EB
:1053C00056248217930779F5E0935524F0935624D9
:1053D0006DC0DE0120E030E0AE17BF0750F412963A
:1053E0004D915C9113979D014115510509F1DA0129
:1053F000F3CFA283B38340815181840F951F8A1715
:105400009B0771F48D919C911197840F951F0296C3
:105410008083918312968D919C91139782839383BD
:105420002115310529F4E0935724F09358243EC008
:10543000D9011296ED93FC9313974D915D91A40FB2
:10544000B51FEA17FB0779F480819181840F951FBE
:105450000296D9018D939C93119782819381129624
:105460008D939C931397E0E0F0E08A819B810097F5
:1054700019F0FE01EC01F9CFCE01029628813981A5
:10548000820F931F209155243091562428173907F5
:1054900069F4309729F4109257241092582402C0CE
:1054A00012821382C0935524D0935624DF91CF915A
:1054B0000895DC0101C06D9341505040E0F708951C
:1054C0000F931F93CF93DF93EC018B01009731F47F
:1054D0006115710519F480E090E037C06EE070E06E
:1054E00081E090E06CD0FC010097A9F380E8838311
:1054F0000115110571F00287138781E8838380917C
:10550000592490915A24892B21F4E0935924F09343
:105510005A242097C9F0C087D18783818260838312
:1055200080915B2490915C24892B71F4E0935B243F
:10553000F0935C2480915D2490915E24892B21F46A
:10554000E0935D24F0935E24CF01DF91CF911F9112
:105550000F91089552D06081718182819381089565
:105560004CD0808191810895262FE0ECF1E03785C1
:1055700037FDFDCF3485377F3487378531FF09C04C
:1055800036E3328738ED34BF31E03387378537FD76
:10559000FDCF33E33287808391831282248325E316
:1055A000228728ED31E024BF338701960895242F08
:1055B000DCDF252FDADF00C0D7DF272FD6CF0F9310
:1055C0001F93CF93DF93869F8001879F100D969F37
:1055D000100D1124C80146DEEC01009721F0A8014E
:1055E00060E070E066DFCE01DF91CF911F910F91F7
:1055F000089503D0808199270895E0ECF1E0378584
:1056000037FDFDCF348538603487FC01E050F04F22
:105610000895F894FFCF00005F242000C800000028
:105620000310060100001800000000000000000048
:105630000000000000000000000000000008300032
:10564000000000000000000000000000000000005A
:10565000000000000030BA01000300000000A009B3
:1056600078004010BA284010D626260F6C10602013
:10567000E80018082A25401028004410280040108F
:10568000BC0BA40B8C0B740B5C0B63064306C405AC
:105690004505C60447040B04E403A903680330036B
:1056A000F302A8027E023102EA010010408120A02C
:1056B000A4A6A83FAD8AAEC8D300D520DA12DB007D
:1056C000D922AF35071907FD06DF06C106A306106C
:1056D0001C1C1E1E1EB605D405F20510062E064C17
:1056E000066A06880622231FA00F401FE803D00782
:1056F000AC0A6C0A2C0A0C0AEC0910202010108647
:105700002810101027E80364000A0001006E1A1226
:105710001E00FFFFFFFFFFFFFFFFFFFFFFFFFFFF79
:10572000FFFFFFFFFFFFFFFFFFFFFFFFFFFFFFFF89
:10573000FFFFFFFFFFFFFFFFFFFFFFFFFFFFFFFF79
:10574000FFFFFFFFFFFFFFFFFFFFFFFFFFFFFFFF69
:10575000FFFFFFFFFFFFFFFFFFFFFFFFFFFFFFFF59
:020000021000EC
:00000001FF
